:100000008031432888342F347E1480310B1F092817
:100010000A2841284E01191E0E280F281A280F1EE3
:10002000122813281A2843016D088A006C080A0058
:1000300080314128991E1D281E2829288F1E21281D
:100040002228292843016B088A006A080A008031A7
:1000500041281A1C2C282D283528101C302831281E
:1000600035289031002080314128171C3828392844
:1000700041280D1C3C283D2841289A3133228031EB
:1000800041287E10090080314528803102208031CE
:10009000FC00803103208031FD009A313122803113
:1000A000EE009A3132228031EF0041018731FF2783
:1000B0008031EF009C3084009B30850058308600F2
:1000C000013087000030FF0016309A31C72280319E
:1000D0001B3084009B308500DA30860001308700B9
:1000E0000030FF0010309A31C7228031CA308400BE
:1000F0002B3085002630FE000430FF009A31BB22F1
:100100008031F701F801F901FA01FB014A3084005E
:10011000003085002430FE000030FF009A31BB2201
:100120008031E4308400003085000B30FE00003068
:10013000FF009A31BB2280312030840001308500DD
:100140003830FE000030FF009A31BB228031A030F1
:100150008400013085003A30FE000030FF009A3103
:10016000BB22803120308400023085001C30FE002C
:100170000030FF009A31BB228031A0308400023071
:1001800085003C30FE000030FF009A31BB228031F8
:100190007E1040019B314D2BB92E01304201DC0015
:1001A0000030DD0002304001E800DF2E9F318D2756
:1001B0008031003A0319DD28DE285729013040013B
:1001C000C4004408E90769030319E728E828DF2E7B
:1001D000E9017C0886007D0887005A310230C03F63
:1001E0000030C13F7C0886007D088700583104300C
:1001F000C03F0030C13F7C0886007D0887005C312D
:100200000230C03F0030C13F7C0886007D08870077
:100210005E31C830C03F0030C13F7C08523E86008E
:1002200000307D3D87000030C03FC13F7C08503E1C
:10023000860000307D3D87000030C03FC13F033065
:10024000E8000030CD000030CC000030CB000030A2
:10025000CA000030A3000030A2009930A1009D30F8
:10026000A0009D31CC2580314001E50100309B315B
:10027000FC2380319A3156228031400196141614A5
:100280004201C7014001EE019631CB268031013099
:100290004201DC000030DD00A501A6014001DF01C4
:1002A0004201AF01B0019A31B2228031DF2E40010C
:1002B0008E185B295C295F294201AF01B001013032
:1002C0004201AF070030B03D30082E02031D6A29FD
:1002D0002F082D0203186D296E297729053040015A
:1002E000E80005304201DC000030DD00DF2E0A307E
:1002F000DC000030DD00DF2EDF2E01304201DC00AB
:100300000030DD000130A5070030A63D0030260298
:10031000143003192502031C8E298F29EE29400170
:10032000E2014101EB014001E3014201AB01AC01FB
:100330000130DC000030DD00DE304001D2005E30F4
:10034000D3000030D40052084201A00040015308FD
:100350004201A100400154084201A200400152089C
:10036000A0005308A1005408A200A3019D31CC2590
:10037000803140015208C4005308C5005408C6002B
:10038000C7015A3086002D30870042314408C03FF3
:100390004508C13F4608C23F4708C33F0430E80054
:1003A000B8304E07CA000B304F3DCB000030503DF7
:1003B000CC000030513DCD006703031DE029E12949
:1003C000DF2E98304E07CA003A304F3DCB00003048
:1003D000503DCC000030513DCD00DF2E00302602D4
:1003E0000A3003192502031CF629F729DF2E1C30D9
:1003F0009A313022803140016B030319002A012A0F
:10040000FB291C309431A824803140012908DA00EE
:100410002808D90001305A022C3003195902031C54
:10042000122A132ADF2E9A315C2280314001961065
:1004300016100030CD000030CC000030CB00003072
:10044000CA000130C40044084201CB070630400115
:10045000E8005F08031D2D2A2E2ADF2E0330DF005F
:100460007C0886007D0887005A310230C03F00308A
:10047000C13F7C0886007D08870058310430C03FAA
:100480000030C13F7C0886007D0887005C31043065
:10049000C03F0030C13F7C0886007D0887005E3188
:1004A0006430C03F0030C13FDF2E01304201DC002C
:1004B0000030DD001C309A313022803140016B0366
:1004C0000319632A642A5E2A1C309431A8248031DF
:1004D00040012908DA002808D9006308C400C501D2
:1004E000C435C50D9830C6002E30C70044084607F5
:1004F00086004508473D87005908C03F5A08C13F5C
:100500000130C4004408E30742012C0840015A02AC
:10051000031D8E2A42012B0840015902031C912A17
:10052000922AA52A52084201A00040015308420124
:10053000A100400154084201A20040015A084201B2
:10054000AC00400159084201AB0001304001C40039
:100550004408E207243062020318AF2AB02AE02AD6
:100560006208031DB42AB52AC92A5208C4005308D8
:10057000C5005408C600C7015A3086002D308700D8
:1005800042314408C03F4508C13F4608C23F4708C2
:10059000C33F0D30C4000030C5000030C600440821
:1005A000D2024508D33B4608D43B5208A00053086A
:1005B000A1005408A200A3019D31CC258031DF2E7B
:1005C00024306206031DE52AE62A032B0730420188
:1005D00020074001D20000304201213D4001D300FC
:1005E00000304201223D4001D4005208A0005308CF
:1005F000A1005408A200A3019D31CC258031420105
:10060000AB01AC01DF2E2530E2000130C40044080C
:100610004101EB070F306B0203180F2B102B1E2B21
:1006200001304001C4000030C5000030C60044085D
:10063000D2024508D33B4608D43BD52A42012008C4
:100640004001D200420121084001D30042012208AA
:100650004001D4005208A0005308A1005408A20091
:10066000A3019D31CC258031400152084301B400E3
:10067000400153084301B500400154084301B6004E
:10068000B70142012C084301D10042012B0843016C
:10069000D0000E304101EB003230EC000530420159
:1006A000DC000030DD00C601C501A701A801A901D9
:1006B000AA0140016703031D5E2B5F2B622B0730ED
:1006C000E800DF2E0630E800DF2E60080319692BF2
:1006D0006A2B742B05304201DC000030DD00AF01D5
:1006E000B00102304001E8009A31FC228031DF2E57
:1006F00001304201DC000030DD001C309A31302234
:10070000803140016B030319862B872B812B1C3012
:100710009431A824803140012908DA002808D90042
:10072000323064020318952B962BC52B1930A0008C
:100730000030A10041016808E80A4001C400C50179
:100740004408A2004508A3008731AB27803140014F
:1007500020082104031DAD2BAE2BC52B6408C4005B
:10076000C501C435C50D3430C6002E30C70044085D
:10077000460786004508473D87005908C03F5A088C
:10078000C13F0130C4004408E40759084201A707EB
:1007900040015A084201A83D0130A9070030AA3D96
:1007A00000302A020A3003192902031CD82BD92B46
:1007B000962CA901AA010A304001A0000030A10036
:1007C000420128084001A300420127084001A2007D
:1007D00090315320803140012108D6002008D500F7
:1007E0004201A701A80140016308C400C501C43546
:1007F000C50D9830C6002E30C70044084607860055
:100800004508473D87005508C03F5608C13F78302E
:10081000630203180C2C0D2C112C0130C400440869
:10082000E30700305602A23003195502031C192CAD
:100830001A2C542C00305602A63003195502031C02
:10084000222C232C3E2C6E080319272C282C2F2C0D
:100850006E08FF3EEE009631CB268031962C10308C
:1008600065020318342C352C532C0130C400440885
:10087000E50765089B31FC238031962C103065021A
:100880000318432C442C4D2C0130C4004408E507C8
:1008900065089B31FC238031962C6E080319512C7E
:1008A000522C532C282C962C003056029F300319C2
:1008B000550203185C2C5D2C962C003056029B30A0
:1008C000031955020318652C662C7D2C0F306E021F
:1008D00003186B2C6C2C712C0130C4004408EE07FB
:1008E0002B2C65080319752C762C532C0130E5024E
:1008F00065089B31FC238031962C65080319812CF7
:10090000822C892C0130E50265089B31FC23803163
:10091000962C0130C4004408EE070F306E02031C11
:10092000922C932C2B2C0F30EE002B2C01304001FD
:10093000C40044084101EC076C080319A02CA12C49
:10094000DF2EEC014001EC01ED016C30B000003015
:10095000B1000A30B2000030B30091310B21803178
:10096000323041016A020318B62CB72CEA2C193038
:100970004001A0000030A10041016908E90A4001DE
:10098000C400C5014408A2004508A3008731AB2775
:100990008031400120082104031DCF2CD02CEA2CEB
:1009A00041016A084001C400C501C435C50D6C3061
:1009B000C6002D30C7004408460786004508473D5D
:1009C00087006C08C03F6D08C13F0130C400440877
:1009D0004101EA0740016C08C4006D08C500C6016A
:1009E000C701470843013302031D062D4001460895
:1009F00043013202031D062D400145084301310227
:100A0000031D062D40014408430130020318092D3F
:100A10000A2D142D40016C084301B00040016D08FF
:100A20004301B100B201B301003040016D020A3050
:100A300003196C0203181D2D1E2DDF2E0130C4007A
:100A40004408E9070319252D262DDF2EE9019A31E7
:100A50005C2280314001961016100030CD0000302D
:100A6000CC000030CB000030CA000630E8005F0840
:100A7000031D3B2D3C2D7C290330DF007C088600C4
:100A80007D0887005A310230C03F0030C13F7C08EA
:100A900086007D08870058310430C03F0030C13FD8
:100AA0007C0886007D0887005C310430C03F003040
:100AB000C13F7C0886007D0887005E316430C03FFE
:100AC0000030C13FDF2E01304201DC000030DD008C
:100AD00040014D084C044B044A040319702D712D3C
:100AE000762E1C309A313022803140016B0303197D
:100AF0007A2D7B2D752D1C309431A8248031400136
:100B00002908DA002808D900323064020318892D38
:100B10008A2DB92D1930A0000030A10041016808CC
:100B2000E80A4001C400C5014408A2004508A3002A
:100B30008731AB278031400120082104031DA12DFE
:100B4000A22DB92D6408C400C501C435C50D3430CB
:100B5000C6002E30C7004408460786004508473DBA
:100B600087005908C03F5A08C13F0130C4004408FB
:100B7000E40759084201A70740015A084201A83D6D
:100B80000130A9070030AA3D00302A020A300319BB
:100B90002902031CCC2DCD2DDF2EA901AA010A307C
:100BA0004001A0000030A100420128084001A3003C
:100BB000420127084001A2009031532080314001BA
:100BC0002108D6002008D5004201A701A8017830ED
:100BD000400163020318ED2DEE2DF22D0130C4000B
:100BE0004408E30700305602A23003195502031CE3
:100BF000FA2DFB2D342E00305602A6300319550273
:100C0000031C032E042E1F2E6E080319082E092E16
:100C1000102E6E08FF3EEE009631CB268031DF2E7F
:100C2000103065020318152E162E7C290130C400E1
:100C30004408E50765089B31FC238031DF2E103026
:100C400065020318242E252E2E2E0130C4004408E0
:100C5000E50765089B31FC238031DF2E6E08031900
:100C6000322E332E7C29092E003056029F30031974
:100C7000550203183C2E3D2E7C29003056029B3035
:100C8000031955020318452E462E5D2E0F306E02B5
:100C900003184B2E4C2E512E0130C4004408EE0791
:100CA0000C2E65080319552E562E7C290130E502BD
:100CB00065089B31FC238031DF2E65080319612E06
:100CC000622E692E0130E50265089B31FC238031DC
:100CD000DF2E0130C4004408EE070F306E02031C03
:100CE000722E732E0C2E0F30EE000C2E0930E80001
:100CF00002304201DC000030DD009A315C2280319C
:100D0000400196101610DF2E9A31E0228031003A11
:100D1000031D8B2E8C2E8F2E8A31792280319C31AF
:100D2000C024803114304201DC000030DD0040017D
:100D3000E7010230E8004201AF01B0017C08860003
:100D40007D0887005A310A30C03F0030C13F7C081F
:100D500086007D088700583102308104413100301F
:100D600081044101EA014201C0014101E901E801B8
:100D7000DF2E40016808C400C5014508003A031988
:100D8000C22EDF2E4408003A0319CD28013A031978
:100D9000CD28033A0319D628013A03197D29073AC9
:100DA0000319552A013A0319652B033A0319632DD8
:100DB000013A0319782B0E3A0319842EDF2E08000E
:100DC00040012108AD002008AC0024082504031DC3
:100DD000EA2EEB2EEC2EAA2F2C0886002D08870079
:100DE0002208810024082C07A60025082D3DA70015
:100DF0002608FF3EA800FF30273DA90028088600EE
:100E000029088700220881000030250203300319D9
:100E1000240203180C2F0D2F0E2FAA2F2C08013E91
:100E2000A60000302D3DA700260886002708870071
:100E3000220881002C08023EA60000302D3DA700AC
:100E400026088600270887002208810024082C072E
:100E5000A60025082D3DA7002608FE3EA800FF306D
:100E6000273DA9002808860029088700220881005C
:100E700024082C07A60025082D3DA7002608FD3EC6
:100E8000A800FF30273DA900280886002908870010
:100E900022088100003025020730031924020318BC
:100EA000522F532F542FAA2F2C08033EA600003098
:100EB0002D3DA7002608860027088700220881000C
:100EC00024082C07A60025082D3DA7002608FC3E77
:100ED000A800FF30273DA9002808860029088700C0
:100EE000220881000030250209300319240203186A
:100EF0007A2F7B2F7C2FAA2F2C09A6002D09A70063
:100F0000A60A0319A70A03302605AA000030270500
:100F1000AB002A08AC072B08AD3D2A08A4022B0819
:100F2000A53BFC30A405FF30A505A42F2C088600A6
:100F30002D088700220881000130A4020030A53B63
:100F40000130AC070030AD3D24082504031DA92F56
:100F5000AA2F962F08004001A601A31FB02FB12F82
:100F6000B82FA209A309A20A0319A30AA601A60A77
:100F7000A11FBB2FBC2FC12FA009A109A00A0319D3
:100F8000A10A200821040319C62FC72FF02FA5019D
:100F9000A50AD32F0130A035A10D890BCB2F01302D
:100FA000A4002408A507A11FD62FD72FCA2F2108D8
:100FB0002302031DDD2F20082202031CE02FE12F56
:100FC000E52F2008A2022108A33B0130A136A00C86
:100FD000890BE62F0130A502031DEF2FF02FD72F2D
:100FE00026080319F42FF52FFA2FA209A309A20A44
:100FF0000319A30A2308A1002208A0000800013455
:10100000D6304001A40000308E180130A30024081F
:1010100086000130870001082306031D10281128CF
:101020001B282408023E860001308700013081071A
:1010300041310318810A2408860001308700230803
:101040008100230803192528262860282408023E49
:10105000860001308700403FA000413FA1000030E2
:101060002102033003192002031C37283828552891
:101070002408023E860001308700403FA000413F27
:10108000A10000302102333003192002031849283F
:101090004A2855282408023E860001308700003087
:1010A000C03FC13F0530A20077282408023E8600D9
:1010B000013087000030C03FC13FA201A20A77285B
:1010C0002408023E860001308700403FA000413FD7
:1010D000A10000302102513003192002031C7128A5
:1010E000722875280430A20077280230A200220856
:1010F00008007C08223E860000307D3D87000A30D3
:10110000C03F0030C13F7C083A3E860000307D3D44
:1011100087006430C03F0030C13F7C0886007D08F6
:10112000870052311430C03F0030C13F7C08860038
:101130007D0887005A314B30C03F0030C13F7C08EA
:101140002A3E860000307D3D87001430C03F0030CD
:10115000C13F7C08423E860000307D3D8700D03094
:10116000C03F0730C13F7C085A3E860000307D3DBD
:101170008700E830C03F0330C13F7C08383E86001E
:1011800000307D3D87000030C03F8030C13F7C088B
:1011900086007D08870058310230C03F8030C13F53
:1011A0007C0886007D08870050310030C03FC13F79
:1011B0007C08283E860000307D3D87000030C03F1F
:1011C000C13F7C08403E860000307D3D87000030F6
:1011D000C03FC13F7C08583E860000307D3D8700FF
:1011E0000430C03F0030C13FFF304201BD00BE01AE
:1011F0004D146B30AD000430AE0002304001E80009
:10120000A0304201EE009A31EE2288319A315C2200
:1012100088319E31842688319C31662488319E3104
:10122000252688315A3086002D308700400123085A
:10123000C03F2408C13F08007C0886007D08870065
:101240005C3101084001A4007C0886007D0887000D
:101250005831403FA200413FA300221D30293129CF
:10126000A229A00101309331E02389314001241CDF
:101270003A293B294229A001A00A01309331E023F9
:1012800089314729A00101309331E02389314001A0
:10129000240803194C294D2995290130A402031D66
:1012A0005229532987297C0886007D0887005831F8
:1012B000043081064131003081067C0886007D08BB
:1012C00087005A310030C03FC13F7C0886007D084E
:1012D00087005C310030C03FC13F7C0886007D083C
:1012E00087005E310030C03FC13F6603031D79298E
:1012F0007A299529E6017C08403E860000307D3D34
:1013000087000030810441318030810495297C08B8
:1013100086007D0887005E317C0884007D0885009A
:101320001A31403F803F413F813F2408A200A30182
:101330007C0886007D0887005C312208C03F2308B6
:10134000C13FBF297C0886007D0887005831403F97
:10135000A200413FA300A21CAE29AF29BF297C08EF
:1013600086007D0887005831023081064131003007
:101370008106A001A00A01309331E02389310800E1
:1013800040016008A900E0010F1FC729C829112AE0
:101390000330A0000030A1009B31CA238931003006
:1013A00040010F1B0130AA0000308F1B0130A80044
:1013B0002A03031DDC29DD29122A7C08523E8600FF
:1013C00000307D3D87000030C03FC13F7C08503E6B
:1013D000860000307D3D87000030C03FC13F2A03BA
:1013E000031DF329F429122A7C08523E860000309E
:1013F0007D3D87000030C03FC13F7C08503E8600E5
:1014000000307D3D87000030C03FC13F2808031DEC
:101410000A2A0B2A0E2AE001E00A122A0230E00012
:10142000122AF901600829060319172A182A2B2AFB
:101430007C0886007D0887005A310530C03F0030A7
:10144000C13F7C0886007D08870058310230810446
:101450004131003081046003031D2F2A302A6B2A9A
:101460007C08223E860000307D3D8700F430C03F7E
:101470000130C13F0130A6002608F9070630790285
:10148000031C432A442A552AF901F90A552A9616BB
:10149000961516161A149A141A159611782A1A10F7
:1014A000782A9A10782A1A11782A7908A600A701B2
:1014B0002708003A03195D2A782A2608013A0319F9
:1014C000472A033A03194F2A013A0319512A073AC6
:1014D0000319532A782A02306006031D702A712AE4
:1014E000782AF9019616161696111A109A101A11E2
:1014F00008005A3086002D308700013081074131C5
:101500000318810A40015208BB005308BC0054086C
:10151000BD00BE015A3086002D30870046313B08A1
:10152000C03F3C08C13F3D08C23F3E08C33F5A3060
:1015300086002D30870050315708C03F5808C13F02
:101540005A3086002D3087004A314E08C03F4F0880
:10155000C13F5008C23F5108C33F5A3086002D306A
:1015600087004E3143013C08C03F3D08C13F400168
:10157000C301783043020318BE2ABF2AE12A430878
:10158000BB00BC01BB35BC0D9830BD002E30BE0089
:101590003B083D0786003C083E3D87004308BF00EE
:1015A000C001BF35C00DD030C1002D30C2003F0892
:1015B000410784004008423D8500403F803F413F55
:1015C000813F0130BB003B08C30732304302031C9C
:1015D000EA2AEB2AB92A5A30B7002D30B8009F31D9
:1015E000C6278A3100304301BF000030BE00003002
:1015F000BD000030BC004001E4015A3086002D30AF
:1016000087004E310030C03FC13F6C30A0002D300C
:10161000A1000030A200A3006430A4000030A500A7
:101620008631E0268A3134304001A0002E30A100FE
:101630000030A200A3006430A4000030A500863171
:10164000E0268A31D0304001A0002D30A1000030CA
:10165000A200A3006430A4000030A5008631E0267B
:101660008A3108007C0886007D088700403F4001E1
:10167000C800413FC900C91F3E2B3F2B4B2B7C08A4
:1016800086007D0887000030810641318030810668
:101690008E3133268B317C08403E860000307D3D04
:1016A0008700403F4001C800413FC900C91F592B76
:1016B0005A2B682B7C08403E860000307D3D870019
:1016C000003081064131803081068A3179228B31A8
:1016D0007C08203E860000307D3D8700403F400171
:1016E000C800413FC900C91F762B772B8F2B7C0880
:1016F000203E860000307D3D87000030810641316C
:10170000803081067C08223E860000307D3D8700C7
:101710009630C03F0030C13F8931C0218B317C08F9
:10172000383E860000307D3D8700403F4001C800C4
:10173000413FC900C91F9D2B9E2BC62B7C08383EFC
:10174000860000307D3D87000030810641318030C9
:1017500081060F1FAC2BAD2BBB2B7C083A3E8600BD
:1017600000307D3D8700E830C03F0330C13F9031FD
:1017700017208B31C62B7C083A3E860000307D3D19
:101780008700E830C03F0330C13FB72B7C0886009C
:101790007D0887005831403F4001C800413FC900E3
:1017A000C91FD32BD42BE12B7C0886007D08870032
:1017B00058310030810641318030810689311C2149
:1017C0008B317C0886007D0887005031403F400106
:1017D000C800413FC900C91FEE2BEF2BFC2B7C0832
:1017E00086007D088700503100308106413180300D
:1017F0008106923151228B317C08283E86000030D0
:101800007D3D8700403F4001C800413FC900C91FDE
:101810000A2C0B2C242C7C08283E860000307D3DB1
:101820008700003081064131803081068031CC2034
:101830008B317C082A3E860000307D3D87004201C6
:101840005C08C03F5D08C13F7C08503E8600003008
:101850007D3D8700403F4001C800413FC900C91F8E
:10186000322C332C412C7C08503E860000307D3DCC
:101870008700003081064131803081069A31FC2298
:101880008B317C08583E860000307D3D8700403F0C
:101890004001C800413FC900C91F4F2C502C652C86
:1018A0007C08583E860000307D3D87000030810670
:1018B0004131803081067C085A3E860000307D3DF3
:1018C00087006430C03F0030C13F08000130400154
:1018D000CE070030CF3D0030D03D0030D13D420139
:1018E000CF0140014D084C044B044A040319792CE4
:1018F0007A2CDB2C01304301BC070030BD3D0030A9
:10190000BE3D0030BF3D40014D085102031D922CE9
:101910004C085002031D922C4B084F02031D922CC1
:101920004A084E02031C952C962CDB2C02306706CD
:1019300003199B2C9C2CA22C03306706031DA12CA1
:10194000A22CDB2C9A3150228C31400196101610BB
:101950005F08031DAC2CAD2CD32C0330DF007C08BA
:1019600086007D0887005A310230C03F0030C13FF9
:101970007C0886007D08870058310430C03F003065
:10198000C13F7C0886007D0887005C310430C03F81
:101990000030C13F7C0886007D0887005E316430DE
:1019A000C03F0030C13F0030CD000030CC000030DF
:1019B000CB000030CA007C08223E860000307D3D0E
:1019C0008700160001040319E62CE72C042D7C087F
:1019D000223E860000307D3D87000130810241318A
:1019E0000030813B7F3116000104031DF82CF92CD7
:1019F000042D7C08203E860000307D3D87000030AD
:101A000081044131803081047C083A3E86000030F8
:101A10007D3D87001600010403190F2D102D2D2D7B
:101A20007C083A3E860000307D3D8700013081020F
:101A300041310030813B7F3116000104031D212D0F
:101A4000222D2D2D7C08383E860000307D3D8700FC
:101A5000003081044131803081047C0886007D089B
:101A600087005231160001040319372D382D6F2DD0
:101A70007C0886007D0887005231013081024131A7
:101A80000030813B7F3116000104031D482D492D94
:101A90006F2D7C0886007D0887005031003081045E
:101AA0004131803081047C0886007D0887005231F6
:101AB0001430C03F0030C13F4D084C044B044A0471
:101AC000031D632D642D6F2D6F03031D682D692D7C
:101AD0006F2D963152268C314001EF006F2D7C081E
:101AE00086007D0887005A31160001040319792DFC
:101AF0007A2D8E2D7C0886007D0887005A310130B2
:101B0000810241310030813B7F3116000104031D09
:101B10008A2D8B2D8E2D97315E278C317C082A3EA5
:101B2000860000307D3D8700160001040319992DC1
:101B30009A2DB72D7C082A3E860000307D3D870017
:101B40000130810241310030813B7F3116000104B8
:101B5000031DAB2DAC2DB72D7C08283E8600003030
:101B60007D3D8700003081044131803081047C0854
:101B70004A3E860000307D3D8700160001040319AF
:101B8000C22DC32DE02D7C084A3E860000307D3DED
:101B900087000130810241310030813B7F311600E6
:101BA0000104031DD42DD52DE02D7C08483E860070
:101BB00000307D3D87000030810441318030810458
:101BC0007C08523E860000307D3D870016000104EF
:101BD0000319EB2DEC2D092E7C08523E86000030B7
:101BE0007D3D87000130810241310030813B7F31F2
:101BF00016000104031DFD2DFE2D092E7C08503E0C
:101C0000860000307D3D8700003081044131803006
:101C100081047C08323E860000307D3D870016003E
:101C200001040319142E152E322E7C08323E860034
:101C300000307D3D87000130810241310030813B21
:101C40007F3116000104031D262E272E322E7C081C
:101C5000303E860000307D3D8700003081044131F8
:101C600080308104080001304001CE070030CF3DB4
:101C70000030D03D0030D13D4201CF0140014D0840
:101C80004C044B044A040319462E472EA82E01305B
:101C90004301BC070030BD3D0030BE3D0030BF3DBC
:101CA00040014D085102031D5F2E4C085002031DD8
:101CB0005F2E4B084F02031D5F2E4A084E02031C85
:101CC000622E632EA82E023067060319682E692E35
:101CD0006F2E03306706031D6E2E6F2EA82E9A31CD
:101CE0005C228E314001961016105F08031D792E7C
:101CF0007A2EA02E0330DF007C0886007D08870046
:101D00005A310230C03F0030C13F7C0886007D0858
:101D1000870058310430C03F0030C13F7C08860046
:101D20007D0887005C310430C03F0030C13F7C0833
:101D300086007D0887005E316430C03F0030C13FBF
:101D40000030CD000030CC000030CB000030CA00A5
:101D50007C08223E860000307D3D8700160001048D
:101D60000319B32EB42ED12E7C08223E86000030FB
:101D70007D3D87000130810241310030813B7F3160
:101D800016000104031DC52EC62ED12E7C08203E50
:101D9000860000307D3D8700003081044131803075
:101DA00081047C083A3E860000307D3D87001600A5
:101DB00001040319DC2EDD2EFA2E7C083A3E860043
:101DC00000307D3D87000130810241310030813B90
:101DD0007F3116000104031DEE2EEF2EFA2E7C0833
:101DE000383E860000307D3D87000030810441315F
:101DF000803081047C0886007D08870052311600FF
:101E000001040319042F052F3C2F7C0886007D0850
:101E1000870052310130810241310030813B7F31F6
:101E200016000104031D152F162F3C2F7C08860079
:101E30007D088700503100308104413180308104B9
:101E40007C0886007D08870052311430C03F003086
:101E5000C13F4D084C044B044A04031D302F312F61
:101E60003C2F6F03031D352F362F3C2F8831002068
:101E70008E314001EF003C2F7C0886007D088700F2
:101E80005A31160001040319462F472F5B2F7C0897
:101E900086007D0887005A310130810241310030CF
:101EA000813B7F3116000104031D572F582F5B2FF4
:101EB00089311C218E317C082A3E860000307D3D10
:101EC0008700160001040319662F672F842F7C08F2
:101ED0002A3E860000307D3D87000130810241317D
:101EE0000030813B7F3116000104031D782F792FCC
:101EF000842F7C08283E860000307D3D870000301E
:101F000081044131803081047C084A3E86000030E3
:101F10007D3D87001600010403198F2F902FAD2FF0
:101F20007C084A3E860000307D3D870001308102FA
:101F300041310030813B7F3116000104031DA12F88
:101F4000A22FAD2F7C08483E860000307D3D8700E3
:101F5000003081044131803081047C08523E86008B
:101F600000307D3D8700160001040319B82FB92FFA
:101F7000D62F7C08523E860000307D3D8700013020
:101F8000810241310030813B7F3116000104031D85
:101F9000CA2FCB2FD62F7C08503E860000307D3DC7
:101FA0008700003081044131803081047C08323E5A
:101FB000860000307D3D8700160001040319E12FE3
:101FC000E22FFF2F7C08323E860000307D3D8700E7
:101FD0000130810241310030813B7F311600010424
:101FE000031DF32FF42FFF2F7C08303E86000030B6
:101FF0007D3D87000030810441318030810408003C
:102000004E01101041016508F1006408F0009B3199
:102010002B23903143016E086F04031910281128F7
:1020200016286F088A006E080A00903108000230F6
:102030004001680603191D281E281F2852289431C4
:10204000432490314001BA003A086106031D292853
:102050002A282C28FA013E280130B9003908FA074D
:1020600003307A020318352836283E283A08031927
:102070003A283B283E283A08E1005228FA01600835
:102080000319432844284F287C083A3E8600003034
:102090007D3D8700E830C03F0330C13F52289E316C
:1020A000B726903108004001A501A60120082104AF
:1020B00003195B285C288B28A701A70A6828013030
:1020C000A035A10D890B60280130A4002408A707C2
:1020D000A11F6B286C285F280130A535A60D890B40
:1020E0006D2821082302031D772820082202031CE3
:1020F0007A287B2880282008A2022108A33B2514E7
:102100000130A136A00C890B81280130A702031DE4
:102110008A288B286C282608A1002508A000080022
:102120004001A101A2019A3136229031400199105B
:102130009A31392290310A309A31A92290314001E6
:1021400099140A309A31A9229031003040010F18B9
:102150000130A3000130A1070030A23D1F30220250
:10216000413003192102031CB628B728B828BD281E
:102170002308031DBC28BD28A5280A309A31A922AE
:102180009031400199100A309A31A92290319A3148
:102190003C229031400123080800E03040012D0529
:1021A000B4007F302E05B5002D081F39B300B601ED
:1021B00036083407A00035080318350AA1009C3101
:1021C000E0249031400136352F07B20032088600F6
:1021D00087012008C03F2108C13F0130B20032080A
:1021E000B60720303602031CF628F728D8283335E6
:1021F0002F07B2003208860087013008C03F31083F
:10220000C13F3508A4003408A3002F08A50095316C
:102210007A25903108009F3156279131013A031DEC
:10222000122913294929420155084001B400B5017A
:102230003408B6003508B7000830B635B70D890B3D
:102240001D29420156084001B400B5013408B60406
:102250003508B704803037020030031936020318FE
:10226000322933293B2930088600310887000030A5
:10227000C03FC13F49293708B5003608B400B4094A
:10228000B50930088600310887003408C03F35089A
:10229000C13F08004001A7006A35A8009C31A12475
:1022A0009131400128089E31EC26913190319020E7
:1022B0009131003A03195D295E296029003089298E
:1022C0004001A9017E29240886002508870001080D
:1022D0009E31EC26913101304001A4070030A53D2C
:1022E000903190209131003A031977297829792982
:1022F000842901304001A6002608A90727082902E1
:10230000031C8329842963299B31E32391314001F4
:102310002908080040015B08A03E860001308700C4
:10232000810142011D1D95299629A32940015B08C1
:10233000A03E8600013087008114440141088A00D4
:1023400040080A00913142019D1CA729A829B529FE
:1023500040015B08A03E8600013087000115440162
:102360003F088A003E080A00913140015B08A03E08
:1023700086000130870001080319BF29C029C72939
:1023800044013D088A003C080A009131CA299C3169
:102390001524913108004001AD00A030AF002F0896
:1023A0008600023087002D0881000130AC002C0827
:1023B000AF07AE01F0292F088600023087002A08F7
:1023C00084008501000881000130AC002C08AA07B8
:1023D0000130AC002C08AF070130AC002C08AE0770
:1023E0002B082E02031CF529F629DB290130AC004D
:1023F0002C08AB07A030A4000230A5002B089131B7
:102400004A2191314001AE002E082B060319092AFA
:102410000B2A01300C2A003008004E0199128A3034
:102420004001A0001130A1009A31852292314E0165
:10243000191263304001A0001D30A1009A318E2294
:102440009231083042019F0090309D0024309E0060
:10245000A0309B0001309C002F304001A0001A30BA
:10246000A1009A317322923143304001A0001A300A
:10247000A1009A317C2292313F304001A0001A30F5
:10248000A1009A316A2292314201BF014001DE016E
:10249000DD010830DC00DB01F801F7014E0199167F
:1024A000080040014D084C044B044A040319592A02
:1024B0005A2A5B2A972A6F08A100EF01EF0AA03081
:1024C00042016E06031D652A662A6D2A400121031A
:1024D00003196B2A6C2A6D2A972A400121084201B0
:1024E000EE0002306E06031D762A772A7A2AAF01A3
:1024F000B001972A05306E06031D7F2A802A8E2A96
:10250000023040016806031D862A872A8B2A410172
:10251000ED01ED0A972A4101ED01972A04306E067C
:10252000031D932A942A972A9A31FC22923108009B
:102530004001A900A8016A35A7009C31A12492316D
:102540004001270801389E31EC26923190319020CD
:102550009231003A0319AD2AAE2AB12A4001A901ED
:10256000D42AD42A9E31542692314001A600240850
:10257000860025088700260881000130A407003066
:10258000A53D2903031DC52AC62ACA2A9D31A925AE
:102590009231CD2A9D318625923101304001A6002D
:1025A0002608A8070130A90240012908031DD92ADD
:1025B000DA2AB22A9B31E32392314001280808002D
:1025C00040019A01990130309600023097000430A2
:1025D00098009501C0309100C03092008E30930079
:1025E000F33094003C307E01D9007D30CE00FF30C6
:1025F000C3000730E400CF30B800DA01E501023053
:10260000C400B9010430CF00E6013030BA00C50182
:10261000D001DB01FF30BB00FF30C600FF30D1002E
:10262000FF30DC000730E700FF30BC00FF30C700A0
:10263000FF30D200FF30DD000F30E80017307D01A1
:10264000CB0013309C0005307E019D0006309C00BD
:102650001030A60008004001B801B9011530B000E3
:102660003630B1009B31B22393311E304001A000BF
:102670000030A1009B31CA2393319F3156279331FB
:10268000013A031D442B452B5D2B420155084001A7
:10269000B600B7013608B8003708B9000830B835B9
:1026A000B90D890B4F2B420156084001B600B70106
:1026B0003608B8043708B904652B0A304001A00079
:1026C0000030A1009B31CA239331F9304001B000A2
:1026D0003F30B1009B31B223933180304001390249
:1026E0000030031938020318762B772B7A2BB401AC
:1026F000B501802BB809B9093908B5003808B4000C
:1027000008004001C7014708353E86008701810166
:102710000130B4003408C70712304702031C912B64
:10272000922B832B7C30B0003630B1009B31B2232A
:102730009331003A03199D2B9E2BDE2B0230400172
:10274000B000E130B1009B31B2239331003A03195C
:10275000AA2BAB2BDE2B03309F3121279331353051
:102760004001AA000030AB001230AC009B31722354
:10277000933103309B310B23933135304001A0005E
:102780000030A1000230A2009D31F72593314001B5
:102790003706031DCC2BCD2BDE2B3830A0000030AC
:1027A000A1000230A2009D31F725933140013A0685
:1027B000031DDB2BDC2BDE2B0130DF2B0030080070
:1027C0004001A1002003031DE62BE72B132C21035E
:1027D0000319EB2BEC2BF22B05302106031DF12BFB
:1027E000F22BF72B9812181299111911422C023062
:1027F0002106031DFC2BFD2B012C98121812991198
:10280000422C03302106031D062C072C0A2C98129B
:102810001812422C04302106031D0F2C102C122CF0
:102820009812422C422C2008031D172C182C422CE5
:10283000210303191C2C1D2C232C05302106031DFC
:10284000222C232C282C9816181699151915422C71
:1028500002302106031D2D2C2E2C322C9816181612
:102860009915422C03302106031D372C382C3B2CA4
:1028700098161816422C04302106031D402C412CBA
:10288000422C9816080040016108B8001D309A31AA
:102890003022943140016B0303194F2C502C4A2CE9
:1028A0001D309431A824943140012908D80028080B
:1028B000D70003305802DB3003195702031C612C88
:1028C000622C652C0530E100A62C03305802DB3069
:1028D0000319570203186D2C6E2C7A2C0330580202
:1028E000A93003195702031C762C772C7A2C04305C
:1028F000E100A62C03305802A9300319570203182F
:10290000822C832C8F2C03305802843003195702F9
:10291000031C8B2C8C2C8F2C0330E100A62C033055
:1029200058028430031957020318972C982CA42CB2
:1029300003305802393003195702031CA02CA12C74
:10294000A42C0230E100A62CE101E10A38080800BD
:102950004001AE00B401B5012E089B3186239431AD
:102960004001AF01B0010030B1000430B200B3014A
:102970002E089B318623943140012108B70020089E
:10298000B60037083002031DC72C36082F02031883
:10299000CA2CCB2CD02C3708B0003608AF00DE2C68
:1029A00032083702031DD62C310836020318D92C01
:1029B000DA2CDE2C3708B2003608B1003608B4072E
:1029C0003708B53D0130AA002A08B3071430330296
:1029D000031CEB2CEC2CB82C2F09AA003009AB00FF
:1029E000AA0A0319AB0A31082A02AC0032082B3BB1
:1029F000AD0034082C07B40035082D3DB500123069
:102A0000A0000030A1003508A3003408A2009031D6
:102A10005320943140012108A9002008A800080093
:102A2000F1007003031D152D162D462D710303199A
:102A30001A2D1B2D212D05307106031D202D212D52
:102A4000272D40019812181299111911792D023071
:102A50007106031D2C2D2D2D322D400198121812B8
:102A60009911792D03307106031D372D382D3C2D1A
:102A7000400198121812792D04307106031D412D62
:102A8000422D452D40019812792D792D7008031D96
:102A90004A2D4B2D792D710303194F2D502D562D95
:102AA00005307106031D552D562D5C2D40019816DD
:102AB000181699151915792D02307106031D612D0F
:102AC000622D672D4001981618169915792D03303F
:102AD0007106031D6C2D6D2D712D40019816181671
:102AE000792D04307106031D762D772D792D400147
:102AF00098160800E03040012305A9007F30240526
:102B0000AA0000308B1B0130AB002A082406031DED
:102B10008B2D2908230603198E2D8F2D902DE52D41
:102B20008B132408A1002308A0009D3100259531B6
:102B300050011E131E159E164001AC0123085001C2
:102B40009A004001240850019B0040012C352507C4
:102B5000A600260886008701010850019C0040015C
:102B60002C352507A600260886008701403FA700D0
:102B7000413FA800280850019D001F3040012C064D
:102B8000031DC32DC42DC62D50019E12553050017A
:102B90009F00AA309F009E140000000001304001F9
:102BA000A3070030A43D0130A6002608AC07203062
:102BB0002C02031CDC2DDD2D9E2D50011E11400129
:102BC0002B0C031C8B1303188B17080040011111E9
:102BD0007E013A114001161593147E01CF14400175
:102BE00098147E014310400112107E0145104001EF
:102BF00017107E01C310400192107E01C5104001E4
:102C000097107E014311400112117E0145114001D0
:102C100017117E01C311400192117E01C5114001BF
:102C200097117E013810400111107E013A104001C9
:102C300016107E01B810400191107E01BA104001BB
:102C400096107E014E10400113107E01501040017D
:102C500018107E015913400114177E015A134001C8
:102C600019177E01D913400194177E01DA1740012C
:102C7000991714167E015A1259164001191294160A
:102C80007E01DA12D9164001991213157E014F11F7
:102C90004E154001181193157E01CF11CE1540013C
:102CA00098110800D630F400003040018E18013031
:102CB000F300740886000130870001087306031DC5
:102CC000622E632E6D2E7408023E8600013087004E
:102CD0000130810741310318810A740886000130F0
:102CE00087007308810073080319772E782EB22E9F
:102CF0007408023E860001308700403FF000413FEB
:102D0000F10000307102033003197002031C892E98
:102D10008A2EA72E7408023E860001308700403FAD
:102D2000F000413FF10000307102333003197002AE
:102D300003189B2E9C2EA72E7408023E860001309D
:102D400087000030C03FC13F0530F200C92E740833
:102D5000023E8600013087000030C03FC13FF201D3
:102D6000F20AC92E7408023E860001308700403FF7
:102D7000F000413FF1000030710251300319700240
:102D8000031CC32EC42EC72E0430F200C92E0230FD
:102D9000F20072080800222F9711171197101710D0
:102DA0005D2F97151711971017105D2F9711171595
:102DB000971017105D2F97151715971017105D2F87
:102DC00097111711971417105D2F97151711971456
:102DD00017105D2F97111715971417105D2F971562
:102DE0001715971417105D2F9711171197101714B7
:102DF0005D2F97151711971017145D2F9711171541
:102E0000971017145D2F97151715971017145D2F2E
:102E100097111711971417145D2F97151711971401
:102E200017145D2F97111715971417145D2F971509
:102E30001715971417145D2FEE019711171197109E
:102E400017105D2F40016E08A000A1012108003A73
:102E500003192B2F1C2F2008003A0319CC2E013AFE
:102E60000319D12E033A0319D62E013A0319DB2E8A
:102E7000073A0319E02E013A0319E52E033A031924
:102E8000EA2E013A0319EF2E0F3A0319F42E013AF4
:102E90000319F92E033A0319FE2E013A0319032FE1
:102EA000073A0319082F013A03190D2F033A0319A2
:102EB000122F013A0319172F1C2F08007C088600D7
:102EC0007D0887005C310108F4007C0886007D08DD
:102ED00087005831403FF200413FF300721D712FCF
:102EE000722FE22FF0010130953110259731741CBB
:102EF0007A2F7B2F822FF001F00A013095311025B7
:102F00009731872FF00101309531102597317408E2
:102F100003198B2F8C2FD52F0130F402031D912F15
:102F2000922FC72F7C0886007D0887005831043017
:102F300081064131003081067C0886007D088700CB
:102F40005A310030C03FC13F7C0886007D088700B1
:102F50005C310030C03FC13F7C0886007D0887009F
:102F60005E310030C03FC13F40016603031DB92FF1
:102F7000BA2FD52FE6017C08403E860000307D3D0B
:102F8000870000308104413180308104D52F7C08D6
:102F900086007D0887005E317C0884007D088500FE
:102FA0001A31403F803F413F813F7408F200F301F6
:102FB0007C0886007D0887005C317208C03F73087A
:102FC000C13FFF2F7C0886007D0887005831403FB5
:102FD000F200413FF300F21CEE2FEF2FFF2F7C0891
:102FE00086007D088700583102308106413100306B
:102FF0008106F001F00A0130953110259731080063
:10345E00080008001F3401344E010D100800400111
:10346E0094100800400114140800400114100800C4
:10347E009C3115249A31080042011D121D160800B8
:10348E00823052018C000800510196019030950057
:10349E00080085304C0190004B01921308008430D7
:1034AE004C0190004B019217080085304C019000A2
:1034BE004B01921308004F01960197019801990153
:1034CE009A019B010800400121084401BD00400102
:1034DE0020084401BC000800400121084401C1003D
:1034EE00400120084401C0000800400121084401A9
:1034FE00BF00400120084401BE0008004001210821
:10350E004301EB00400120084301EA00080040019E
:10351E0021084301ED00400120084301EC000800A2
:10352E00703051018D008F01910105309300920191
:10353E000800400121084301EF004001200843012B
:10354E00EE0008004001A0000130A002031DB02AC9
:10355E00B12AAB2A080015304001B0003630B10058
:10356E009B31B2239A310800640080010131013091
:10357E00FE020030FF3B7F087E04031DBC2A003490
:10358E00FE0012001E000130FE020030FF3B7F08DD
:10359E007E04031DC82A00344B01920193018E0153
:1035AE008D018C01910160309000C5308F00921713
:1035BE0008007E3041016702C23003196602031C07
:1035CE00E92AEA2AEC2A0130ED2A003008009C3163
:1035DE004A249A314001C80048080319F72AF82AEC
:1035EE00FB2A933181239A310800400160080319A8
:1035FE00012B022B032B0A2B00309D3141259A31D2
:10360E0040011611092B08004001A00020087B067E
:10361E00031D122B132B1A2BFF30EA00FF30420131
:10362E00D400FF30D30008001E34003401340034BF
:10363E00023400341E340034013400341E3400349D
:10364E00013400340234003444010E1D2F2B302B74
:10365E00372B0E1071088D0070088C000E143B2B4A
:10366E0071088D0070088C0008004C019101033028
:10367E008E0003308F001430920093010F309400AF
:10368E008C0108308D008530900008009C3182241A
:10369E009B319531E6259B318B170B17883179209D
:1036AE009B318B3132239B31582B80314328013093
:1036BE004201D8020030D93B58085904031D682B2B
:1036CE00692B712B8C3166249B3102304201D8005C
:1036DE000030D900080040012B08A5002A08A400DC
:1036EE002C08923198229B314001AD002D082C06FA
:1036FE000319822B842B0130852B003008004001EA
:10370E00A200220841019E00931713131314000008
:10371E0041011318932B942B8F2B0D084001A10000
:10372E0041010C084001A00008000234003464344A
:10373E000034F43401341E340034013400340234C5
:10374E0000341E3400340134003402340034143496
:10375E0001340134013403309F3121279B31400164
:10376E003008B3003330AA00AB01AB0A31089131F7
:10377E00CB219B314001B20003309B310B239B3197
:10378E0040013208080040012008A300A2012208CF
:10379E00A4002308A500D72B0000000000000000A5
:1037AE0001304001A4020030A53B24082504031D6E
:1037BE00E12BE22BD32B08009A313C229B319A311C
:1037CE0036229B31400119100A309A31A9229B31C1
:1037DE00400199140A309A31A9229B3140011914E3
:1037EE000A309A31A9229B3108004001A2004C01F7
:1037FE0010084001A1003F30A00020084C019005A8
:10380E00400122084C018E00400122084C018F001D
:10381E004001210840384C019000080040015B082F
:10382E00343E8600023087004201190881000130C3
:10383E00F00070084001DB0708305B02031C282CE7
:10384E00292C2A2CDB010130F0007008F707080044
:10385E0042018E018F0190019101920193018D0120
:10386E0041019E019B019C019401950196019701D6
:10387E0003309A00990198019430930001309D0015
:10388E004E010D10080004309F3121279C3140015C
:10389E00AA01AB0106309131CB219C314001B00021
:1038AE0004309B310B239C3119304001A0000030B5
:1038BE00A1009B31CA239C31400130080800FA0157
:1038CE00943143249C314001BA003A086106031D2D
:1038DE00712C722C662C0130B9003908FA070330AE
:1038EE007A0203187B2C7C2C7D2C672CFA019E31DE
:1038FE00B7269C3108009A3162229C319231E02227
:10390E009C319A3197229C319A3147229C319C31BD
:10391E002F249C319A31D3229C319D3120259C310C
:10392E009B313C239C3192310D229C319A314B229A
:10393E009C3108009A313C229C319A3136229C31BE
:10394E00400119140A309A31A9229C314001991470
:10395E000A309A31A9229C31400119100A309A314D
:10396E00A9229C31400199100A309A31A9229C312A
:10397E000800F9304001B0003F30B1009B31B22356
:10398E009C3102304001A0000030A1009B31CA23BF
:10399E009C3104309F3121279C314001AA01AB019B
:1039AE0006309131CB219C3104309B310B239C315D
:1039BE00080000308B1B01304001A2008B13200841
:1039CE0050019A004001210850019B001E131E1445
:1039DE00000000004001220C031C8B1303188B17F0
:1039EE0050011D084001A10050011C084001A0001B
:1039FE00080000308B1B01304001A2008B13200801
:103A0E0050019A004001210850019B001E131E1602
:103A1E001E1555309F00AA309F009E140000000016
:103A2E0050011E114001220C031C8B1303188B171F
:103A3E00080044018F01900101309100FC308D008F
:103A4E0018308C004E01101044010D084101E500A4
:103A5E0044010C084101E4004E011A145E3040018D
:103A6E00A0001B30A1009A31A0229D3111304401DB
:103A7E008E0008004001A0002003031D472D482D95
:103A8E00532D9612961116121A109A101A11981288
:103A9E00181299111911622D2008031D572D582D3A
:103AAE00622D9616961516161A149A141A1598163D
:103ABE001816991519150800083040015C020318F4
:103ACE00692D6A2D832D5D08A83E86000130870082
:103ADE00010842019A000130F00070084001DD0734
:103AEE0008305D02031C7C2D7D2D7E2DDD01013005
:103AFE00F0007008DC07852D4E01191208009A316E
:103B0E003C229D319A3136229D310A309A31A922BA
:103B1E009D31400199100A309A31A9229D31400100
:103B2E0019100A309A31A9229D31400199140A3098
:103B3E009A31A9229D31400199100A309A31A92259
:103B4E009D3108009A313C229D319A3136229D31A9
:103B5E000A309A31A9229D31400199100A309A31CA
:103B6E00A9229D31400119140A309A31A9229D31A2
:103B7E00400199140A309A31A9229D3140019910C1
:103B8E000A309A31A9229D31080040012008A40074
:103B9E002108A5002208A6002308A7001030A7368A
:103BAE00A60CA50CA40C890BD62D24084B01910054
:103BBE0040012008A4002108A5002208A600230821
:103BCE00A7000830A736A60CA50CA40C890BE92D6E
:103BDE0024084B019000400120084B018F00080083
:103BEE00FF304001A5001C2E20088600210887000A
:103BFE000108A3002308A5060130A0070030A13D4F
:103C0E00A401A51F0B2E0C2E102E2535313AA50022
:103C1E00122E0310A50D0130A3002308A4070830AF
:103C2E002402031C1B2E1C2E082E0130A202220A77
:103C3E00031D222E232EFB2D250808004001A50171
:103C4E00A60100304101E6003030E7006708400170
:103C5E00A100410166084001A0009C31E0249E3184
:103C6E0040012108A8002008A700270A3F300319A9
:103C7E002806031D432E442E452E4F2E2808A6003F
:103C8E002708A5003E304101E6070130E73D2D2E05
:103C9E002608A4002508A30008004001A2019910DF
:103CAE009A3139229E310A309A31A9229E31400131
:103CBE00A30199140A309A31A9229E3103104001B2
:103CCE00A20D0F1C6B2E6C2E6D2E22140A309A3103
:103CDE00A9229E31400199100A309A31A9229E31B3
:103CEE0001304001A1002108A30708302302031C64
:103CFE00812E822E602E2208080040019615911109
:103D0E007E01BA154001161611127E013A164001B7
:103D1E00961691127E01BA1640011A1415107E01E4
:103D2E00661440019A1495107E01E61440011A158E
:103D3E0015117E0166154001981693127E01D0165C
:103D4E004001181613127E01501640019915941158
:103D5E007E01DB154001191514117E015B1508005B
:103D6E0040019616961516161A149A141A15053041
:103D7E006106031DC32EC42EC92E96111A109A1059
:103D8E001A11EB2E04306106031DCE2ECF2ED32E2C
:103D9E0096111A109A10EB2E03306106031DD82EC1
:103DAE00D92EDC2E96111A10EB2E02306106031D51
:103DBE00E12EE22EE52E96129611EB2E6103031DD7
:103DCE00E92EEA2EEB2E961208004001A2009A313F
:103DDE003C229E3140019910A301A21FF72EF82E0E
:103DEE00FA2E1914FB2E191005309A31A9229E3184
:103DFE00400199140A309A31A9229E31400199103E
:103E0E000A309A31A9229E3103104001A20D0130D1
:103E1E00A1002108A30708302302031C172F182F17
:103E2E00F42E0A309A31A9229E310A309A31A922F3
:103E3E009E3108004001A0002003031D272F282FCC
:103E4E002C2F38304201D400522F03302006031D90
:103E5E00312F322F3A2F2130EA0042304201D40066
:103E6E004330D300522F04302006031D3F2F402F26
:103E7E00452FEA014201D401D301522F053020060D
:103E8E00031D4A2F4B2F552F6430EA00C8304201D4
:103E9E00D400C930D30040012008FB0008004201C5
:103EAE00D701D601D50103309F3121279F315530DF
:103EBE004001AA000130AB000330AC009B317223ED
:103ECE009F314001AF0003309B310B239F314001E6
:103EDE002F03031D732F742F802F5530A000013038
:103EEE00A1000230A2009D31F7259F314001AE00A6
:103EFE00822F00308C2F4201570840012E060319E5
:103F0E00892F8B2F01308C2F003008004001BC010F
:103F1E00023061020318942F952F972F0030C52F72
:103F2E0093312B239F3140013508BB003408BA0072
:103F3E0000303B02333003193A02031CA72FA82F7F
:103F4E00B52FE701E70ABC01BC0A3A084301B000ED
:103F5E0040013B084301B100B201B30141016D08BC
:103F6E000319BA2FBB2FC32FED0102304001E90018
:103F7E000230E700BC01BC0A40013C0808004001C9
:103F8E0038084101E100400137084101E000E2013B
:103F9E00E30167084001AE00410166084001AD0033
:103FAE00A030AF004101600886006108870001085B
:103FBE004001B900BA013908B0003A08B100903199
:103FCE00CD209F3101304101E6070030E73D013041
:103FDE00E0070030E13D0130E2070030E33D013003
:103FEE0063023E3003196202031CFE2FFF2FD02FF7
:063FFE000800193419341B
:020000040001F9
:08000000FF3FFF3FFF3FFF3F00
:0A000E00FC3EFF3F9F3FFF1FFF3F36
:00000001FF
