:040000000EEF00F00F
:04000800FFEF2AF0EC
:080018002AEF27F030EF2DF074
:1026000000805700000000000000000000000000F3
:1026100000000000000000000000000000000000BA
:1026200000000000000000000000000000000000AA
:1026300000000000000000000000000000266B0009
:10264000046B00E26A00000000C0560000000000B9
:10265000000000000000000000000000000000007A
:10266000000000000000000000000000000000006A
:10267000000000000000000000000000000000005A
:102680000000000000C06A009E6A007C6A00000032
:1026900000346500D86C00000000000000066C00EB
:1026A00000000000190E2C6E69EF1CF0000E0501F1
:1026B000F96F010EF86F020E5A6E9AEF1CF001ECE2
:1026C00033F00009D8B467EF13F069EF13F0E5EFCA
:1026D00013F00501EE2BEE05D8B471EF13F073EF94
:1026E00013F09AEF1CF0000EEE6F20EE0AF05D5032
:1026F000D9265E50DA22020EDE6E000EDD6E20EE6E
:1027000008F05D50D9265E50DA22040EDE6E000E0F
:10271000DD6E20EE0CF05D50D9265E50DA22020EFE
:10272000DE6E000EDD6E20EE0EF05D50D9265E509E
:10273000DA22C80EDE6E000EDD6E20EE4AF05D502D
:10274000D9265E50DA22DE6ADD6A20EE48F05D505E
:10275000D9265E50DA22DE6ADD6A030E5A6E000E5A
:102760003B6E000E3C6E000E3D6E000E3E6E9D0EEA
:102770000F6E990E106E000E116E000E126EF5ECBB
:1027800035F0000E596E000ECFEC35F0000E536E92
:10279000000E526EC1EC1EF02CEC36F0BE82BE80F4
:1027A000000E0501D76F000EF96F020EF86F000ED4
:1027B000A86F000EA76F000EDD6F000EB66F000E43
:1027C000B56FFCEC35F09AEF1CF0D1A8EAEF13F0EE
:1027D000ECEF13F0F1EF13F0000E0501B66F000EF1
:1027E000B56F0501B54BB62BB551B35DB651B459B4
:1027F000D8B0FDEF13F0FFEF13F007EF14F0050E64
:102800005A6E000EF96F050EF86F9AEF1CF0000E6D
:10281000F96F640EF86F9AEF1CF09AEF1CF0000E3F
:102820000501F96F010EF86FA74BA82BA85109E11C
:10283000140EA75DD8A01FEF14F021EF14F070EF75
:1028400014F0000EE06F000EE16F000E446E000EFB
:10285000436E000EB26F000EB16F000EF96F010EE5
:10286000F86F5C0E376E5F0E386E000E396E000E1C
:102870003A6E37C564F538C565F539C566F53AC5AC
:1028800067F537C50FF538C510F539C511F53AC5E7
:1028900012F5F5EC35F0040E5A6EB80E3F243B6E7F
:1028A0000B0E40203C6E000E41203D6E000E42207B
:1028B0003E6E0501E505D8A460EF14F062EF14F058
:1028C0009AEF1CF0700E3F243B6E170E40203C6EBA
:1028D000000E41203D6E000E42203E6E9AEF1CF02D
:1028E000A85109E10A0EA75DD8A079EF14F07BEF9B
:1028F00014F09AEF1CF0160E7CEC36F05C04D8B4A1
:1029000084EF14F086EF14F07EEF14F0160E34EC22
:102910002AF014C549F515C54AF549C50FF54AC54C
:1029200010F578EC33F00FC5A5F510C5A6F50A0E25
:102930000501A719A811D8A4A0EF14F0A2EF14F074
:102940009AEF1CF0D8904334D96E4434DA6E600E9E
:10295000D926090EDA2249C5DEF44AC5DDF4D8903D
:102960004334D96E4434DA6E800ED9260C0EDA2246
:10297000A5C5DEF4A6C5DDF4434A442A9AEF1CF04F
:10298000000E0501F96F010EF86F160E7CEC36F0A3
:102990005C04D8B4CEEF14F0D0EF14F0C8EF14F00C
:1029A000160E34EC2AF014C549F515C54AF5DD0EAE
:1029B000495C050E4A58D8A0E0EF14F0E2EF14F09D
:1029C000E6EF14F0000E4A6E000E496E49C50FF591
:1029D0004AC510F578EC33F00FC5A5F510C5A6F57E
:1029E000D8904334D96E4434DA6E600ED926090E7D
:1029F000DA2249C5DEF44AC5DDF4D8904334D96EF5
:102A00004434DA6E800ED9260C0EDA22A5C5DEF427
:102A1000A6C5DDF4434A442A0501B151495CB251CF
:102A20004A58D8A016EF15F018EF15F024EF15F05E
:102A300037C564F538C565F539C566F53AC567F536
:102A400049C5B1F54AC5B2F5E02B320EE0612BEF76
:102A500015F02DEF15F053EF15F0E005D8A433EF86
:102A600015F035EF15F041EF15F06100DDF4EEF3F0
:102A70006100E1F4EFF36100E5F4F0F36100E9F4E3
:102A8000F1F30D0E375E000E385A395A3A5A37C5EF
:102A90000FF538C510F539C511F53AC512F5F5EC45
:102AA00035F09AEF1CF0320EE019D8A45AEF15F069
:102AB0005CEF15F079EF15F0140E6425376E000EFB
:102AC0006521386E000E6621396E000E67213A6E60
:102AD00037C50FF538C510F539C511F53AC512F5EA
:102AE000F5EC35F0000E0501B26F000EB16F9AEFF4
:102AF0001CF0330EE06FE12B0F0EE16182EF15F059
:102B000084EF15F08BEF15F03706000E385A395A5E
:102B10003A5A47EF15F0010E6425376E000E652115
:102B2000386E000E6621396E000E67213A6E37C589
:102B30000FF538C510F539C511F53AC512F5F5ECA4
:102B400035F037C584F638C585F639C586F63AC5F9
:102B500087F6B1C5A3F6B2C5A4F60E0E0501E16F66
:102B6000320EE26F000EF96F050EF86F000ED66F91
:102B7000000ED56F000ED46F000EAC6F000EAB6F61
:102B8000000EAE6F000EAD6F000EA46F000EA36FAF
:102B9000030EB06F700EAF6FE505D8A4D2EF15F03D
:102BA000D4EF15F0D8EF15F0070E5A6E9AEF1CF01F
:102BB000060E5A6E9AEF1CF05750D8B4E2EF15F09B
:102BC000E4EF15F0EFEF15F0000E0501F96F050EBB
:102BD000F86F000EB66F000EB56F020E5A6E2DEC38
:102BE00035F09AEF1CF0000E0501F96F010EF86F39
:102BF000160E7CEC36F05C04D8B401EF16F003EF4F
:102C000016F0FBEF15F0160E34EC2AF014C549F55A
:102C100015C54AF549500501AB274A50AC23AD4BC9
:102C2000AE2B320E516017EF16F019EF16F034EF9D
:102C300016F0190E0F6ECB2BCB05B0EC33F000095C
:102C4000D8A425EF16F027EF16F034EF16F0515008
:102C5000020DE20EF324D96E140EF420DA6E49C58B
:102C6000DEF44AC5DDF4512A0501AE5109E10A0E30
:102C7000AD5DD8A03EEF16F040EF16F095EF18F0DE
:102C8000000EAE6F000EAD6FABC50FF5ACC510F505
:102C9000000E126E0A0E116EE7EC2FF00FC545F50F
:102CA00010C546F5000E0501AC6F000EAB6F45C5B3
:102CB0000FF546C510F578EC33F00FC5A5F510C536
:102CC000A6F5D8904334D96E4434DA6E600ED92616
:102CD000090EDA2245C5DEF446C5DDF4D89043344A
:102CE000D96E4434DA6E800ED9260C0EDA22A5C5D0
:102CF000DEF4A6C5DDF45E0E435C010E4458D8B088
:102D000084EF16F086EF16F088EF16F0434A442A57
:102D10005350525CD8B08FEF16F091EF16F0BDEF24
:102D200016F052C50FF5106AFF0E126EF10E116EFD
:102D3000D3EC34F053500F0DF3C428F5F4C429F547
:102D40000F5028242A6E105029202B6E0501AF51F8
:102D50002A26B0512B22A00E2A26000E2B224550E7
:102D60002A5C46502B58D8B0B8EF16F0BAEF16F0E0
:102D7000D1EF16F0D62BD1EF16F0780E0501AF2566
:102D8000286E000EB021296E4550285C4650295807
:102D9000D8B0CDEF16F0CFEF16F0D1EF16F0BAEFB6
:102DA00016F0480E455C030E4658D8A0DAEF16F030
:102DB000DCEF16F0DDEF16F0D52B53C552F545C507
:102DC000AFF546C5B0F5210E455C020E4658D8A0B9
:102DD000ECEF16F0EEEF16F0B7EF17F0000EDB6F2A
:102DE0002A0E455C020E4658D8A0F9EF16F0FBEF0C
:102DF00016F07AEF17F0000EDC6FE50E4524286E12
:102E0000FD0E4620296E050E2A6ED89029322832F2
:102E10002A2E05EF17F02850556E5550D8A413EF01
:102E200017F015EF17F017EF17F0010E556EE50EBE
:102E30004524286EFD0E4620296E050E2A6ED89078
:102E4000293228322A2E1FEF17F02850546E545082
:102E5000D8A42DEF17F02FEF17F031EF17F0010E78
:102E6000546E5350D8B437EF17F039EF17F04FEFD7
:102E700017F0000ED46F5550535CD8A042EF17F0F6
:102E800044EF17F049EF17F05550535C536E4BEF7A
:102E900017F0000E536EC1EC1EF077EF18F0290EFC
:102EA000596055EF17F057EF17F06CEF17F05950C6
:102EB0005424596E270E596460EF17F062EF17F033
:102EC00064EF17F0280E596E5950CFEC35F0000E14
:102ED0000501D46F77EF18F0F80E455C020E4658E6
:102EE000D8A075EF17F077EF17F067EF17F0D42B36
:102EF00077EF18F0250E455C020E4658D8B083EFE8
:102F000017F085EF17F086EF17F0DC2B250E455CE8
:102F1000020E4658D8B08FEF17F091EF17F099EFE7
:102F200017F0010EDC6597EF17F099EF17F077EFC8
:102F300018F0000EDC6F290E5960A1EF17F0A3EF17
:102F400017F0A9EF17F0592A5950CFEC35F077EF69
:102F500018F05350D8B4AFEF17F0B1EF17F077EF88
:102F600018F05304536E4BEF17F077EF18F0160E6E
:102F7000455C020E4658D8B0C0EF17F0C2EF17F00C
:102F800077EF18F0000EDC6F0D0E455C020E465810
:102F9000D8B0CDEF17F0CFEF17F03DEF18F0000EDF
:102FA000DB6F020EAA6F1B0EA96F4550A95D286E3C
:102FB0004650AA59296E060E2A6ED8902932283218
:102FC0002A2EDDEF17F02850556E5550D8A4EBEFA0
:102FD00017F0EDEF17F0EFEF17F0010E556E4550BB
:102FE000A95D286E4650AA59296E060E2A6ED89001
:102FF000293228322A2EF7EF17F02850546E5450F9
:10300000D8A405EF18F007EF18F009EF18F0010E3B
:10301000546E1F0E53600FEF18F011EF18F020EFF1
:1030200018F053505524536E1E0E53641AEF18F0C7
:103030001CEF18F04BEF17F01F0E536E4BEF17F00D
:103040005950D8B426EF18F028EF18F0B5EF17F064
:103050005450595CD8B02FEF18F031EF18F035EF1D
:1030600018F0000E596E38EF18F05450595C596E34
:103070005950CFEC35F077EF18F0120E455C020E88
:103080004658D8A046EF18F048EF18F049EF18F06E
:10309000DB2B120E455C020E4658D8A052EF18F0FA
:1030A00054EF18F05CEF18F0010EDB655AEF18F0E2
:1030B0005CEF18F077EF18F0000EDB6F5950D8B4C2
:1030C00064EF18F066EF18F06CEF18F059065950DD
:1030D000CFEC35F077EF18F01F0E536072EF18F059
:1030E00074EF18F077EF18F0532A4BEF17F0A00E9B
:1030F0000501A325D96E0F0EA421DA6E53C5DFF4A6
:10310000FE0EA325D96E100EA421DA6E59C5DFF488
:103110002C0EA35D010EA459D8B091EF18F093EFD7
:1031200018F095EF18F0A34BA42BE22B090EE265E3
:103130009CEF18F09EEF18F09AEF1CF0000EE26F73
:10314000000EF36F000EF26FF20E1E6E050E1F6E74
:10315000000E216E0A0E206E37EC31F0320E0501A2
:10316000CD61B5EF18F0B7EF18F0D3EF18F0190EE6
:103170000F6ECC2BCC05B0EC33F00009D8A4C3EF14
:1031800018F0C5EF18F0D3EF18F00501CD51020D7E
:10319000FE0EF324D96E130EF420DA6EF2C5DEF4BF
:1031A000F3C5DDF4CD2B0501F251286EF351296EE4
:1031B0002A6A2B6A2850605D295061592A50625949
:1031C0002B506359D8B0E7EF18F0E9EF18F0EFEFA4
:1031D00018F0F2C560F5F3C561F5626B636B60C50D
:1031E0000FF561C510F562C511F563C512F5190E2D
:1031F000136E000E146E000E156E000E166E02ECAD
:1032000031F00FC51BF510C51CF511C51DF512C514
:103210001EF5640E1F6E000E206E000E216E000E55
:10322000226E84EC2DF00501F251286EF351296EC7
:103230002A6A2B6A1B50285C1C5029581D502A589A
:103240001E502B58D8B027EF19F029EF19F09AEF3C
:103250001CF0010EEE27D8B430EF19F032EF19F060
:103260009AEF1CF0000EEE6F26EC36F0BE92BE9088
:10327000000E3B6E000E3C6E000E3D6E000E3E6E6C
:10328000060E5A6E0501DD51D8A449EF19F04BEF37
:1032900019F00DEF14F0030EDD6F20EE0AF05D5013
:1032A000D9265E50DA22020EDE6E000EDD6E20EEB2
:1032B00008F05D50D9265E50DA22040EDE6E000E54
:1032C000DD6E20EE0CF05D50D9265E50DA22040E41
:1032D000DE6E000EDD6E20EE0EF05D50D9265E50E3
:1032E000DA22640EDE6E000EDD6E9AEF1CF0000E28
:1032F0000501F96F010EF86F3B503C103D103E1078
:10330000D8B485EF19F087EF19F026EF1CF0160EF0
:103310007CEC36F05C04D8B490EF19F092EF19F021
:103320008AEF19F0160E34EC2AF014C549F515C5CC
:103330004AF5320E51609FEF19F0A1EF19F0BDEF81
:1033400019F0190E0F6E0501CB2BCB05B0EC33F045
:103350000009D8A4AEEF19F0B0EF19F0BDEF19F0E5
:103360005150020DE20EF324D96E140EF420DA6EE1
:1033700049C5DEF44AC5DDF4512A49500501AB27A1
:103380004A50AC23AD4BAE2BAE5109E10A0EAD5DF8
:10339000D8A0CDEF19F0CFEF19F09AEF1CF0000E86
:1033A000AE6F000EAD6FABC50FF5ACC510F5000EDE
:1033B000126E0A0E116EE7EC2FF00FC545F510C521
:1033C00046F5000E0501AC6F000EAB6F45C50FF55D
:1033D00046C510F578EC33F00FC5A5F510C5A6F578
:1033E000D8904334D96E4434DA6E600ED926090E73
:1033F000DA2245C5DEF446C5DDF4D8904334D96EF3
:103400004434DA6E800ED9260C0EDA22A5C5DEF41D
:10341000A6C5DDF45E0E435C010E4458D8B013EF30
:103420001AF015EF1AF017EF1AF0434A442A5350D6
:10343000525CD8B01EEF1AF020EF1AF04CEF1AF0E1
:1034400052C50FF5106AFF0E126EF10E116ED3EC1D
:1034500034F053500F0DF3C428F5F4C429F50F5080
:1034600028242A6E105029202B6E0501AF512A26E0
:10347000B0512B22A00E2A26000E2B2245502A5C8A
:1034800046502B58D8B047EF1AF049EF1AF060EFCA
:103490001AF0D62B60EF1AF0780E0501AF25286ED2
:1034A000000EB021296E4550285C46502958D8B0EE
:1034B0005CEF1AF05EEF1AF060EF1AF049EF1AF0C5
:1034C000480E455C030E4658D8A069EF1AF06BEF22
:1034D0001AF06CEF1AF0D52B53C552F545C5AFF570
:1034E00046C5B0F5210E455C020E4658D8A07BEFCC
:1034F0001AF07DEF1AF046EF1BF0000EDB6F2A0E7C
:10350000455C020E4658D8A088EF1AF08AEF1AF0F0
:1035100009EF1BF0000EDC6FE50E4524286EFD0E52
:103520004620296E050E2A6ED890293228322A2E7E
:1035300094EF1AF02850556E5550D8A4A2EF1AF007
:10354000A4EF1AF0A6EF1AF0010E556EE50E452411
:10355000286EFD0E4620296E050E2A6ED89029325F
:1035600028322A2EAEEF1AF02850546E5450D8A4A8
:10357000BCEF1AF0BEEF1AF0C0EF1AF0010E546E55
:103580005350D8B4C6EF1AF0C8EF1AF0DEEF1AF0B5
:10359000000ED46F5550535CD8A0D1EF1AF0D3EF82
:1035A0001AF0D8EF1AF05550535C536EDAEF1AF058
:1035B000000E536EC1EC1EF006EF1CF0290E596090
:1035C000E4EF1AF0E6EF1AF0FBEF1AF0595054242A
:1035D000596E270E5964EFEF1AF0F1EF1AF0F3EF7E
:1035E0001AF0280E596E5950CFEC35F0000E050137
:1035F000D46F06EF1CF0F80E455C020E4658D8A0BA
:1036000004EF1BF006EF1BF0F6EF1AF0D42B06EFD9
:103610001CF0250E455C020E4658D8B012EF1BF088
:1036200014EF1BF015EF1BF0DC2B250E455C020E92
:103630004658D8B01EEF1BF020EF1BF028EF1BF010
:10364000010EDC6526EF1BF028EF1BF006EF1CF0E7
:10365000000EDC6F290E596030EF1BF032EF1BF0CB
:1036600038EF1BF0592A5950CFEC35F006EF1CF01B
:103670005350D8B43EEF1BF040EF1BF006EF1CF0A8
:103680005304536EDAEF1AF006EF1CF0160E455C89
:10369000020E4658D8B04FEF1BF051EF1BF006EF6B
:1036A0001CF0000EDC6F0D0E455C020E4658D8B0C3
:1036B0005CEF1BF05EEF1BF0CCEF1BF0000EDB6F3E
:1036C000020EAA6F1B0EA96F4550A95D286E4650C9
:1036D000AA59296E060E2A6ED890293228322A2E2F
:1036E0006CEF1BF02850556E5550D8A47AEF1BF0A4
:1036F0007CEF1BF07EEF1BF0010E556E4550A95D6F
:10370000286E4650AA59296E060E2A6ED890293284
:1037100028322A2E86EF1BF02850546E5450D8A41D
:1037200094EF1BF096EF1BF098EF1BF0010E546E18
:103730001F0E53609EEF1BF0A0EF1BF0AFEF1BF0CE
:1037400053505524536E1E0E5364A9EF1BF0ABEF7C
:103750001BF0DAEF1AF01F0E536EDAEF1AF0595021
:10376000D8B4B5EF1BF0B7EF1BF044EF1BF054508B
:10377000595CD8B0BEEF1BF0C0EF1BF0C4EF1BF0DC
:10378000000E596EC7EF1BF05450595C596E5950DA
:10379000CFEC35F006EF1CF0120E455C020E4658D9
:1037A000D8A0D5EF1BF0D7EF1BF0D8EF1BF0DB2B29
:1037B000120E455C020E4658D8A0E1EF1BF0E3EF75
:1037C0001BF0EBEF1BF0010EDB65E9EF1BF0EBEFFD
:1037D0001BF006EF1CF0000EDB6F5950D8B4F3EF6E
:1037E0001BF0F5EF1BF0FBEF1BF059065950CFEC27
:1037F00035F006EF1CF01F0E536001EF1CF003EFD5
:103800001CF006EF1CF0532ADAEF1AF0A00E0501A7
:10381000A325D96E0F0EA421DA6E53C5DFF4FE0E78
:10382000A325D96E100EA421DA6E59C5DFF42C0E33
:10383000A35D010EA459D8B020EF1CF022EF1CF0BC
:103840009AEF1CF0A34BA42B9AEF1CF0090E5A6EB2
:10385000010EF96FF40EF86F26EC36F0BE92BE90B2
:103860009AEF1CF094EC33F0C0EC34F00009D8A4CB
:103870003CEF1CF03EEF1CF040EF1CF0B7EC27F0E3
:10388000000E0501E56F000EF96F320EF86F020EA3
:103890005A6E000EB66F000EB56F20EE0AF05D5046
:1038A000D9265E50DA220A0EDE6E000EDD6E20EEA4
:1038B00008F05D50D9265E50DA22000EDB82000E41
:1038C000CD6F000E516E000ECC6F000ECB6F9AEFD5
:1038D0001CF05A50286E296A2950000AD8B473EF98
:1038E0001CF09AEF1CF02850000AD8B456EF13F0E1
:1038F000010AD8B456EF13F0030AD8B45FEF13F0FF
:10390000010AD8B40FEF14F0070AD8B4C0EF14F0CE
:10391000010AD8B4DCEF15F0030AD8B477EF19F038
:10392000010AD8B4F3EF15F00E0AD8B432EF1CF048
:103930009AEF1CF01200010E3F26000E4022412299
:103940004222000E0501EB6F3B503C103D103E1033
:10395000D8B4ADEF1CF0AFEF1CF004EF1DF0010E7A
:1039600006019427000E9523962397233B503F5C36
:103970003C5040583D5041583E504258D8A0C3EFAB
:103980001CF0C5EF1CF004EF1DF04AEC36F0BE92BF
:10399000BE900501DD51D8A4D0EF1CF0D2EF1CF091
:1039A000FCEF1CF0030EDD6F20EE0AF05D50D9260F
:1039B0005E50DA22020EDE6E000EDD6E20EE08F0A2
:1039C0005D50D9265E50DA22040EDE6E000EDD6EEA
:1039D00020EE0CF05D50D9265E50DA22040EDE6E29
:1039E000000EDD6E20EE0EF05D50D9265E50DA221C
:1039F000640EDE6E000EDD6E000E3B6E000E3C6E41
:103A0000000E3D6E000E3E6E20EE12F05D50D92687
:103A10005E50DA22DE50DE10D8B411EF1DF013EF45
:103A20001DF02DEF1DF020EE12F05D50D9265E50F6
:103A3000DA22DE06000EDD5ADE50DE10D8A423EFB7
:103A40001DF025EF1DF02DEF1DF020EE10F05D5064
:103A5000D9265E50DA22010EDB8E20EE2AF05D5070
:103A6000D9265E50DA22DE50DE10D8B43AEF1DF0CF
:103A70003CEF1DF056EF1DF020EE2AF05D50D926E8
:103A80005E50DA22DE06000EDD5ADE50DE10D8A4CB
:103A90004CEF1DF04EEF1DF056EF1DF020EE28F01C
:103AA0005D50D9265E50DA22010EDB8E20EE02F048
:103AB0005D50D9265E50DA22DE50DE10D8B463EFB6
:103AC0001DF065EF1DF0A1EF1DF020EE02F05D503E
:103AD000D9265E50DA22DE06000EDD5ADE50DE10F8
:103AE000D8A475EF1DF077EF1DF0A1EF1DF05DC5B7
:103AF000D9F45EC5DAF4010EDB8E20EE02F05D50E3
:103B0000D9265E50DA22140EDE6E000EDD6E3B50BA
:103B10003C103D103E10D8A490EF1DF092EF1DF028
:103B2000A1EF1DF00501FC05D8A499EF1DF09BEF56
:103B30001DF0A1EF1DF041EC28F00501FC6FA1EF95
:103B40001DF020EE0AF05D50D9265E50DA22DE50DC
:103B5000DE10D8B4AEEF1DF0B0EF1DF0CAEF1DF0CF
:103B600020EE0AF05D50D9265E50DA22DE06000E05
:103B7000DD5ADE50DE10D8A4C0EF1DF0C2EF1DF0FC
:103B8000CAEF1DF020EE08F05D50D9265E50DA2213
:103B9000010EDB8E20EE1AF05D50D9265E50DA223F
:103BA000DE50DE10D8B4D7EF1DF0D9EF1DF0F3EFE3
:103BB0001DF020EE1AF05D50D9265E50DA22DE06A6
:103BC000000EDD5ADE50DE10D8A4E9EF1DF0EBEF59
:103BD0001DF0F3EF1DF020EE18F05D50D9265E5079
:103BE000DA22010EDB8E20EE32F05D50D9265E50D7
:103BF000DA22DE50DE10D8B400EF1EF002EF1EF025
:103C00001CEF1EF020EE32F05D50D9265E50DA2215
:103C1000DE06000EDD5ADE50DE10D8A412EF1EF0D4
:103C200014EF1EF01CEF1EF020EE30F05D50D92690
:103C30005E50DA22010EDB8E20EE42F05D50D92676
:103C40005E50DA22DE50DE10D8B429EF1EF02BEFE2
:103C50001EF045EF1EF020EE42F05D50D9265E507A
:103C6000DA22DE06000EDD5ADE50DE10D8A43BEF6D
:103C70001EF03DEF1EF045EF1EF020EE40F05D50CF
:103C8000D9265E50DA22010EDB8E20EE4AF05D501E
:103C9000D9265E50DA22DE50DE10D8B452EF1EF084
:103CA00054EF1EF06EEF1EF020EE4AF05D50D92664
:103CB0005E50DA22DE06000EDD5ADE50DE10D8A499
:103CC00064EF1EF066EF1EF06EEF1EF020EE48F07F
:103CD0005D50D9265E50DA22010EDB8E20EE3AF0DE
:103CE0005D50D9265E50DA22DE50DE10D8B47BEF6C
:103CF0001EF07DEF1EF097EF1EF020EE3AF05D50C3
:103D0000D9265E50DA22DE06000EDD5ADE50DE10C5
:103D1000D8A48DEF1EF08FEF1EF097EF1EF020EE6F
:103D200038F05D50D9265E50DA22010EDB8E20EE8F
:103D300022F05D50D9265E50DA22DE50DE10D8B473
:103D4000A4EF1EF0A6EF1EF0C0EF1EF020EE22F052
:103D50005D50D9265E50DA22DE06000EDD5ADE50B6
:103D6000DE10D8A4B6EF1EF0B8EF1EF0C0EF1EF0C4
:103D700020EE20F05D50D9265E50DA22010EDB8E57
:103D80001200ACEF1FF0C39EC39CC39AC398BF96AA
:103D900039EF20F0C38EC39CC39AC398BF9639EF06
:103DA00020F0C39EC38CC39AC398BF9639EF20F00E
:103DB000C38EC38CC39AC398BF9639EF20F0C39EBD
:103DC000C39CC38AC398BF9639EF20F0C38EC39CAF
:103DD000C38AC398BF9639EF20F0C39EC38CC38AB1
:103DE000C398BF9639EF20F0C38EC38CC38AC398A3
:103DF000BF9639EF20F0C39EC39CC39AC388BF9679
:103E000039EF20F0C38EC39CC39AC388BF9639EFA5
:103E100020F0C39EC38CC39AC388BF9639EF20F0AD
:103E2000C38EC38CC39AC388BF9639EF20F0C39E5C
:103E3000C39CC38AC388BF9639EF20F0C38EC39C4E
:103E4000C38AC388BF9639EF20F0C39EC38CC38A50
:103E5000C388BF9639EF20F0C38EC38CC38AC38852
:103E6000BF9639EF20F0C39EC39CC39AC398BF8608
:103E700039EF20F0C38EC39CC39AC398BF8639EF35
:103E800020F0C39EC38CC39AC398BF8639EF20F03D
:103E9000C38EC38CC39AC398BF8639EF20F0C39EEC
:103EA000C39CC38AC398BF8639EF20F0C38EC39CDE
:103EB000C38AC398BF8639EF20F0C39EC38CC38AE0
:103EC000C398BF8639EF20F0C38EC38CC38AC398D2
:103ED000BF8639EF20F0C39EC39CC39AC388BF86B8
:103EE00039EF20F0C38EC39CC39AC388BF8639EFD5
:103EF00020F0C39EC38CC39AC388BF8639EF20F0DD
:103F0000C38EC38CC39AC388BF8639EF20F0C39E8B
:103F1000C39CC38AC388BF8639EF20F0C38EC39C7D
:103F2000C38AC388BF8639EF20F0C39EC38CC38A7F
:103F3000C388BF8639EF20F0C38EC38CC38AC38881
:103F4000BF8639EF20F0000E536EC39EC39CC39A08
:103F5000C398BF9639EF20F053500F6E106A10507F
:103F6000000AD8B4B6EF1FF0A3EF1FF00F50000AFD
:103F7000D8B4C3EF1EF0010AD8B4CAEF1EF0030A8A
:103F8000D8B4D1EF1EF0010AD8B4D8EF1EF0070A5A
:103F9000D8B4DFEF1EF0010AD8B4E6EF1EF0030A32
:103FA000D8B4EDEF1EF0010AD8B4F4EF1EF00F0AFA
:103FB000D8B4FBEF1EF0010AD8B402EF1FF0030AD9
:103FC000D8B409EF1FF0010AD8B410EF1FF0070AA8
:103FD000D8B417EF1FF0010AD8B41EEF1FF0030A80
:103FE000D8B425EF1FF0010AD8B42CEF1FF01F0A38
:103FF000D8B433EF1FF0010AD8B43AEF1FF0030A28
:10400000D8B441EF1FF0010AD8B448EF1FF0070AF7
:10401000D8B44FEF1FF0010AD8B456EF1FF0030ACF
:10402000D8B45DEF1FF0010AD8B464EF1FF00F0A97
:10403000D8B46BEF1FF0010AD8B472EF1FF0030A77
:10404000D8B479EF1FF0010AD8B480EF1FF0070A47
:10405000D8B487EF1FF0010AD8B48EEF1FF0030A1F
:10406000D8B495EF1FF0010AD8B49CEF1FF0A3EF6E
:104070001FF0120020EE10F05D50D9265E50DA22BB
:10408000DEC42DF5DDC42EF52EAE49EF20F04BEF4A
:1040900020F061EF20F020EE10F05D50D9265E5048
:1040A000DA22000EDE1A800EDD1A20EE12F05D50CC
:1040B000D9265E50DA22960EDE6E000EDD6E60ECC2
:1040C00024F020EE28F05D50D9265E50DA22DEC4BE
:1040D0002DF5DDC42EF52EAE70EF20F072EF20F03E
:1040E0009BEF20F020EE28F05D50D9265E50DA22BA
:1040F000000EDE1A800EDD1AD1A881EF20F083EFCA
:1041000020F08FEF20F020EE2AF05D50D9265E508F
:10411000DA22640EDE6E000EDD6E9BEF20F020EEE4
:104120002AF05D50D9265E50DA22E80EDE6E030ECC
:10413000DD6E8DEC22F020EE08F05D50D9265E5049
:10414000DA22DEC42DF5DDC42EF52EAEAAEF20F066
:10415000ACEF20F0B8EF20F020EE08F05D50D9264B
:104160005E50DA22000EDE1A800EDD1A66EC21F0B7
:104170005DC5D9F45EC5DAF4DEC42DF5DDC42EF5D7
:104180002EAEC5EF20F0C7EF20F0D3EF20F05DC5D5
:10419000D9F45EC5DAF4000EDE1A800EDD1A20ECCA
:1041A0002CF0C1EC35F020EE18F05D50D9265E50B1
:1041B000DA22DEC42DF5DDC42EF52EAEE2EF20F0BE
:1041C000E4EF20F0FAEF20F020EE18F05D50D92651
:1041D0005E50DA22000EDE1A800EDD1A52EC13F069
:1041E00020EE1AF05D50D9265E50DA22F8C5DEF4D2
:1041F000F9C5DDF420EE38F05D50D9265E50DA22A4
:10420000DEC42DF5DDC42EF52EAE09EF21F00BEF47
:1042100021F021EF21F020EE38F05D50D9265E50DC
:10422000DA22000EDE1A800EDD1A20EE3AF05D5022
:10423000D9265E50DA22640EDE6E000EDD6EEBECE7
:1042400035F020EE48F05D50D9265E50DA22DEC40B
:104250002DF5DDC42EF52EAE30EF21F032EF21F03A
:104260003EEF21F020EE48F05D50D9265E50DA2274
:10427000000EDE1A800EDD1A2DEC35F020EE50F027
:104280005D50D9265E50DA22DEC42DF5DDC42EF550
:104290002EAE4DEF21F04FEF21F065EF21F020EE33
:1042A00050F05D50D9265E50DA22000EDE1A800EE4
:1042B000DD1A20EE52F05D50D9265E50DA22640EEF
:1042C000DE6E000EDD6E68EC31F0120020EE0CF0B8
:1042D0005D50D9265E50DA22DF50136EBFC615F549
:1042E0004A0E156476EF21F078EF21F07CEF21F093
:1042F000010E146EBAEF21F04C0E156082EF21F022
:1043000084EF21F090EF21F0320E15648AEF21F056
:104310008CEF21F090EF21F0020E146EBAEF21F035
:10432000330E156096EF21F098EF21F0A4EF21F005
:10433000190E15649EEF21F0A0EF21F0A4EF21F0FB
:10434000030E146EBAEF21F01A0E1560AAEF21F0D9
:10435000ACEF21F0B8EF21F01550D8B4B2EF21F056
:10436000B4EF21F0B8EF21F0040E146EBAEF21F093
:10437000050E146E20EE08F05D50D9265E50DA224C
:10438000DEC411F5DDC412F511A4C9EF21F0CBEFA5
:1043900021F042EF22F0000E0F6E010E9CEC26F091
:1043A00013A0D5EF21F0D7EF21F0EFEF21F0050EAC
:1043B0001418D8A4DEEF21F0E0EF21F0E8EF21F0AF
:1043C0001304D8B4E6EF21F0E8EF21F0F4EF21F088
:1043D000010E0F6E14509CEC26F0F4EF21F0000E4D
:1043E0000F6E14509CEC26F01350D8B4FAEF21F065
:1043F000FCEF21F033EF22F0132E23EF22F020EE1A
:1044000008F05D50D9265E50DA22040EDE1A000E46
:10441000DD1A20EE0AF05D50D9265E50DA22DE6AFF
:10442000DD6A20EE0CF05D50D9265E50DA22DE6A9D
:10443000DD6A20EE0EF05D50D9265E50DA22DE6A8B
:10444000DD6A33EF22F020EE0EF05D50D9265E508B
:10445000DA2210EE0AF05D50E1265E50E222DEC460
:10446000E6F4DDC4E5F41350116E126A20EE0CF090
:104470005D50D9265E50DA2211C5DEF412C5DDF496
:104480008CEF22F020EE08F05D50D9265E50DA2243
:10449000DEC411F5DDC412F511A251EF22F053EF85
:1044A00022F08CEF22F020EE08F05D50D9265E500D
:1044B000DA22020EDE1A000EDD1A000E0F6E010E59
:1044C0009CEC26F06BEF22F0010E0F6E14509CEC6A
:1044D00026F08CEF22F01450116E126A1250000A6E
:1044E000D8B475EF22F08CEF22F01150010AD8B445
:1044F00064EF22F0030AD8B464EF22F0010AD8B4C2
:1045000064EF22F0070AD8B464EF22F0010AD8B4AD
:104510008CEF22F08CEF22F01200020E5A18D8B461
:1045200094EF22F096EF22F098EF22F08BEF23F039
:1045300058C522F5170E7CEC36F05C04D8B4A3EF16
:1045400022F0A5EF22F09DEF22F0170E34EC2AF0B6
:1045500014C547F515C548F56E0E475C0F0E485853
:10456000D8A0B5EF22F0B7EF22F0BBEF22F0050E96
:10457000586E0BEF23F06E0E475C0F0E4858D8B004
:10458000C4EF22F0C6EF22F0D5EF22F0A60E475C72
:104590000E0E4858D8A0CFEF22F0D1EF22F0D5EF81
:1045A00022F0040E586E0BEF23F0A60E475C0E0EA1
:1045B0004858D8B0DEEF22F0E0EF22F0EFEF22F023
:1045C000100E475C0E0E4858D8A0E9EF22F0EBEF32
:1045D00022F0EFEF22F0030E586E0BEF23F0100ED7
:1045E000475C0E0E4858D8B0F8EF22F0FAEF22F0F0
:1045F00009EF23F0E40E475C0C0E4858D8A003EFF7
:1046000023F005EF23F009EF23F0020E586E0BEFB5
:1046100023F0010E586E58502218D8A412EF23F040
:1046200014EF23F019EF23F0000E0501DF6F2FEFD9
:1046300023F00501DF2B030EDF6121EF23F023EFD1
:1046400023F02FEF23F02250D8B429EF23F02BEFE3
:1046500023F02FEF23F022C558F58BEF23F0000E47
:10466000DF6F5750D8B437EF23F039EF23F045EF21
:1046700023F020EE2AF05D50D9265E50DA22E80EB3
:10468000DE6E030EDD6E8BEF23F0BE8ABE86BE8823
:10469000C280C282C284050E5818D8A452EF23F0FB
:1046A00054EF23F05AEF23F0BE96C290C292C29408
:1046B0008BEF23F0040E5818D8A461EF23F063EFBA
:1046C00023F068EF23F0BE96C290C2928BEF23F0E6
:1046D000030E5818D8A46FEF23F071EF23F075EF95
:1046E00023F0BE96C2908BEF23F0020E5818D8A488
:1046F0007CEF23F07EEF23F082EF23F0BE9ABE968C
:104700008BEF23F05804D8A488EF23F08AEF23F02E
:104710008BEF23F0BE9A1200000E0501DF6F58C523
:1047200022F5170E7CEC36F05C04D8B49AEF23F037
:104730009CEF23F094EF23F0170E34EC2AF014C50D
:1047400047F515C548F56E0E475C0F0E4858D8A0C2
:10475000ACEF23F0AEEF23F0B2EF23F0050E586E6E
:1047600002EF24F06E0E475C0F0E4858D8B0BBEF36
:1047700023F0BDEF23F0CCEF23F0A60E475C0E0E26
:104780004858D8A0C6EF23F0C8EF23F0CCEF23F0B1
:10479000040E586E02EF24F0A60E475C0E0E485829
:1047A000D8B0D5EF23F0D7EF23F0E6EF23F0100ECB
:1047B000475C0E0E4858D8A0E0EF23F0E2EF23F05C
:1047C000E6EF23F0030E586E02EF24F0100E475C64
:1047D0000E0E4858D8B0EFEF23F0F1EF23F000EFC2
:1047E00024F0E40E475C0C0E4858D8A0FAEF23F0F2
:1047F000FCEF23F000EF24F0020E586E02EF24F0DD
:10480000010E586E58502218D8A409EF24F00BEF6F
:1048100024F08CEF23F00501DF2B030EDF6113EF93
:1048200024F015EF24F017EF24F08FEF23F0000EA3
:10483000DF6FBE8ABE86BE88C280C282C284050E79
:104840005818D8A426EF24F028EF24F02EEF24F0F7
:10485000BE96C290C292C2945FEF24F0040E581824
:10486000D8A435EF24F037EF24F03CEF24F0BE96C7
:10487000C290C2925FEF24F0030E5818D8A443EF01
:1048800024F045EF24F049EF24F0BE96C2905FEF8C
:1048900024F0020E5818D8A450EF24F052EF24F060
:1048A00056EF24F0BE9ABE965FEF24F05804D8A4C9
:1048B0005CEF24F05EEF24F05FEF24F0BE9A12006C
:1048C00057C517F5000E576ED1A869EF24F06BEFAE
:1048D00024F0A1EF24F0000E106E030E0F6E44ECD6
:1048E00034F0000ED1B8010E156E000ED1BA010ED3
:1048F000166E1504D8A47FEF24F081EF24F0A4EF06
:1049000024F020EE4AF05D50D9265E50DA22DE6AAD
:10491000DD6A20EE48F05D50D9265E50DA22DE6A6C
:10492000DD6A1650D8A497EF24F099EF24F09DEF9C
:1049300024F0010E576EA4EF24F0020E576EA4EF80
:1049400024F0000E0501DE6F17505718D8B4ABEFF6
:1049500024F0ADEF24F0BFEF24F020EE0AF05D501C
:10496000D9265E50DA22050EDE6E000EDD6E20EED8
:1049700008F05D50D9265E50DA22000EDB82570423
:10498000D8A4C5EF24F0C7EF24F00EEF25F020EEF9
:1049900012F05D50D9265E50DA22F40EDE6E010E62
:1049A000DD6E0501DE2B050EDE65D9EF24F0DBEFB1
:1049B00024F0F1EF24F0010EDE6FF1EF24F0BE8A57
:1049C000BE86BE88C280C282C284BE9620EF25F019
:1049D000C29020EF25F0C29220EF25F0C29420EF84
:1049E00025F0DE51136E146A1450000AD8B4FBEFA0
:1049F00024F020EF25F01350010AD8B4DFEF24F0A3
:104A0000030AD8B4E8EF24F0010AD8B4EBEF24F09D
:104A1000070AD8B4EEEF24F020EF25F0020E571865
:104A2000D8A415EF25F017EF25F020EF25F0000EA4
:104A30000501DE6FBE8ABE88BE96C290C292C29445
:104A4000120020EE12F05D50D9265E50DA220A0ED6
:104A5000DE6E000EDD6E20EE2AF05D50D9265E502F
:104A6000DA22640EDE6E000EDD6E20EE02F05D5086
:104A7000D9265E50DA22140EDE6E000EDD6E20EEB8
:104A80000AF05D50D9265E50DA224B0EDE6E000E23
:104A9000DD6E20EE1AF05D50D9265E50DA22140E3B
:104AA000DE6E000EDD6E20EE32F05D50D9265E50D7
:104AB000DA22D00EDE6E070EDD6E20EE3AF05D508B
:104AC000D9265E50DA22640EDE6E000EDD6E20EE18
:104AD00052F05D50D9265E50DA22E80EDE6E030EEB
:104AE000DD6E20EE28F05D50D9265E50DA22000EF1
:104AF000DE6E800EDD6E20EE08F05D50D9265E5031
:104B0000DA22020EDE6E800EDD6E5DC5D9F45EC562
:104B1000DAF4DE6ADD6A20EE18F05D50D9265E50C8
:104B2000DA22DE6ADD6A20EE30F05D50D9265E5072
:104B3000DA22DE6ADD6A20EE38F05D50D9265E505A
:104B4000DA22010EDE6E000EDD6E20EE50F05D50BA
:104B5000D9265E50DA22040EDE6E000EDD6E0501EF
:104B6000E881000EB46FD20EB36F020E5A6EA00E23
:104B7000566EA50EF46F060EF56F000E0601A86FB7
:104B8000640EA76F000EAA6F000EA96F640EBF6FB0
:104B9000000EC06F000EC16F000EC26FB3EC35F097
:104BA00026EC36F0BE92BE90E1EC32F08CEC23F0B5
:104BB000D6EC2DF0610089F4ECF361008DF4EDF397
:104BC00012000FC519F510C51AF513501410D8A40A
:104BD000ECEF25F0EEEF25F0F0EF25F09BEF26F05F
:104BE00019C5D9F41AC5DAF411C5DFF41350192424
:104BF000156E14501A20166EFF0E1524D96EFF0E76
:104C00001620DA6E11C5DFF4145007E1030E135CB1
:104C1000D8B00DEF26F00FEF26F011EF26F09BEF46
:104C200026F020EE01F01950D9261A50DA2211C5CB
:104C3000DFF420EE02F01950D9261A50DA2211C5FD
:104C4000DFF413501924156E14501A20166EFE0E40
:104C50001524D96EFF0E1620DA6E11C5DFF413503D
:104C60001924156E14501A20166EFD0E1524D96ED7
:104C7000FF0E1620DA6E11C5DFF4145007E1070E9F
:104C8000135CD8B046EF26F048EF26F04AEF26F046
:104C90009BEF26F020EE03F01950D9261A50DA22A5
:104CA00011C5DFF413501924156E14501A20166E16
:104CB000FC0E1524D96EFF0E1620DA6E11C5DFF436
:104CC000145007E1090E135CD8B069EF26F06BEFC2
:104CD00026F06DEF26F09BEF26F019C515F51AC5E5
:104CE00016F5151E161E154A162A030E1514176EF4
:104CF000186A1750192618501A221750135E1850A8
:104D0000145AFC0E1316FF0E141692EF26F019C556
:104D1000D9F41AC5DAF411C5DFF41306D8A01406C5
:104D2000194A1A2A13501410D8A499EF26F09BEFB1
:104D300026F087EF26F01200106E0F04D8A4A3EF20
:104D400026F0A5EF26F0E5EF26F01004D8B4ABEF7F
:104D500026F0ADEF26F0B6EF26F0050E1018D8A419
:104D6000B4EF26F0B6EF26F0BCEF26F0C09AC0985C
:104D7000C196C19429EF27F0020E1018D8A4C3EFF2
:104D800026F0C5EF26F0CAEF26F0C09AC098C1966B
:104D900029EF27F0030E1018D8A4D1EF26F0D3EF97
:104DA00026F0D7EF26F0C09AC09829EF27F0040E1E
:104DB0001018D8A4DEEF26F0E0EF26F0E3EF26F09F
:104DC000C09A29EF27F029EF27F00F50D8A4EBEF76
:104DD00026F0EDEF26F029EF27F01004D8B4F3EF1A
:104DE00026F0F5EF26F0FEEF26F0050E1018D8A4F9
:104DF000FCEF26F0FEEF26F004EF27F0C08AC08813
:104E0000C186C18429EF27F0020E1018D8A40BEF39
:104E100027F00DEF27F012EF27F0C08AC088C18677
:104E200029EF27F0030E1018D8A419EF27F01BEF75
:104E300027F01FEF27F0C08AC08829EF27F0040E63
:104E40001018D8A426EF27F028EF27F029EF27F035
:104E5000C08A1200D8C40CF5FAC40DF5FBC40EF5D7
:104E60009EAE35EF27F037EF27F040EF27F0AEAEDC
:104E70003CEF27F03EEF27F040EF27F07FEC36F0D5
:104E8000A7A245EF27F047EF27F05CEF27F0B7A286
:104E90004CEF27F04EEF27F05CEF27F002D85CEFE5
:104EA00027F00500FA6E05019B51FD6E9C51FE6EC8
:104EB0009D51FF6EFA501200A7A461EF27F063EF37
:104EC00027F078EF27F0B7A468EF27F06AEF27F014
:104ED00078EF27F002D878EF27F00500FA6E050189
:104EE0009551FD6E9651FE6E9751FF6EFA5012006D
:104EF000A6A27DEF27F07FEF27F094EF27F0B6A270
:104F000084EF27F086EF27F094EF27F002D894EF94
:104F100027F00500FA6E0601F251FD6EF351FE6EA8
:104F2000F451FF6EFA501200A6A499EF27F09BEF00
:104F300027F0B0EF27F0B6A4A0EF27F0A2EF27F0FC
:104F4000B0EF27F002D8B0EF27F00500FA6E0601A7
:104F5000EC51FD6EED51FE6EEE51FF6EFA501200F7
:104F60000EC5FBF40DC5FAF40CC5D8F4110024EEFF
:104F7000ECF3DE2A000EDD226100DDF4F2F36100C5
:104F8000E1F4F3F36100E5F4F4F36100E9F4F5F31F
:104F900061001DF5FCF3610021F5FDF36100FDF4F6
:104FA000F6F3610001F5F7F3610005F5F8F3610030
:104FB00009F5F9F3610051FAFAF3610055FAFBF3D0
:104FC000000E1E6E1E50020D600EF324D96E090EE7
:104FD000F420DA6E1E50020D620EF324E16E140E00
:104FE000F420E26EDEC4E6F4DDC4E5F41E2A3F0ED2
:104FF0001E64FDEF27F0FFEF27F0E2EF27F0EC0E45
:10500000186E130E196EAAEC2EF0000E0601946FA6
:10501000000E956F000E966F000E976F000E6100E8
:10502000A1F3FAF3000E6100A1F3FBF3FE0E0F6E85
:10503000130E106E000E126E000E116E000E146E26
:10504000640E136EE1EC25F0E20E0F6E140E106E7E
:10505000000E126E000E116E000E146E640E136EB2
:10506000E1EC25F0620E0F6E140E106E000E126E43
:10507000000E116E000E146E800E136EE1EC25F022
:105080001200E50E056E060E066E000ED3B0010E80
:10509000046E05C5D9F406C5DAF40450DE18D8A4A8
:1050A00054EF28F056EF28F05FEF28F020EE02F0E2
:1050B0000550D9260650DA22DE2A000EDD2205C56B
:1050C000D9F406C5DAF404C5DFF40450D8B46BEFA4
:1050D00028F06DEF28F0A9EF28F020EE02F005503F
:1050E000D9260650DA22010EDB5009E1030EDE5C00
:1050F000D8A07DEF28F07FEF28F09DEF28F020EE7C
:1051000002F00550D9260650DA22010EDB5007E1E5
:10511000330EDE5CD8B08FEF28F091EF28F09DEFD2
:1051200028F020EE02F00550D9260650DA22DE6A79
:10513000DD6A050E036EC1EF28F020EE02F0055087
:10514000D9260650DA22DE6ADD6A010E036EC1EF4F
:1051500028F020EE02F00550D9260650DA22010E82
:10516000DB5009E1970EDE5CD8A0B9EF28F0BBEF69
:1051700028F0BFEF28F0040E036EC1EF28F0020EF6
:10518000036E03501200000EBE6E000EBF6E000EC6
:10519000C06E000EC16E000EC26E000EC36EC00E59
:1051A000C66EC70EC76ECB0EC86EB00EC96E080EA7
:1051B000CA6E0D0ECB6EC00E0401006FF70E086FA5
:1051C000CB0E106F000E186F000E206F080E286FA8
:1051D000000E016F000E096F000E116F300E196F77
:1051E000000E216F010E296F000E026F000E0A6F74
:1051F000000E126F030E1A6F000E226F000E2A6F40
:1052000003690B691369CC0E1B6F070E236FFE0E2B
:105210002B6F04690C6914691C690F0E246F2C69CB
:10522000000E0201896F000E886F000E876F000E5E
:10523000866F1F0E746F2A0E766F230E1F6F090E76
:105240000E6F0A0E0D6F260E2A6F000E0401056FF9
:10525000000E066F000E076F000E0D6F000E0E6F32
:10526000000E0F6F000E156F000E166F000E176FF9
:10527000000E256F000E266F000E276F12004E5095
:10528000020D400EF324D96E060EF420DA6EDE6AAB
:10529000DD6A0201D8A74FEF29F051EF29F073EF33
:1052A00029F04E50020D400EF324D96E060EF42064
:1052B000DA6E0601DF82050189518A118B11D8B49B
:1052C00064EF29F066EF29F073EF29F002D873EF4D
:1052D00029F00500FA6E8951FD6E8A51FE6E8B51E0
:1052E000FF6EFA5012000201D8A379EF29F07BEF8C
:1052F00029F09DEF29F04E50020D400EF324D96E97
:10530000060EF420DA6E0601DF840501865187114E
:105310008811D8B48EEF29F090EF29F09DEF29F095
:1053200002D89DEF29F00500FA6E8651FD6E875177
:10533000FE6E8851FF6EFA501200C7C201F54E286A
:105340001F0B026E4D500218D8A4A9EF29F0ABEF45
:1053500029F0ADEF29F0B9EF29F0600E4E24D96E97
:10536000DA6A070EDA2201C5DFF402C54EF505013F
:10537000C22B12004C50020D000EF324D96E060E03
:10538000F420DA6EDE6ADD6A0201C5A7CAEF29F0F1
:10539000CCEF29F0EEEF29F04C50020D000EF32473
:1053A000D96E060EF420DA6E0601DF820501775110
:1053B00078117911D8B4DFEF29F0E1EF29F0EEEFA1
:1053C00029F002D8EEEF29F00500FA6E7751FD6E54
:1053D0007851FE6E7951FF6EFA5012000201C5A39A
:1053E000F4EF29F0F6EF29F018EF2AF04C50020DF7
:1053F000000EF324D96E060EF420DA6E0601DF8467
:105400000501745175117611D8B409EF2AF00BEF2C
:105410002AF018EF2AF002D818EF2AF00500FA6EE9
:105420007451FD6E7551FE6E7651FF6EFA5012008A
:10543000B4C201F54C281F0B026E4B500218D8A4C1
:1054400024EF2AF026EF2AF028EF2AF033EF2AF093
:10545000400E4C24D96EDA6A070EDA2201C5DFF459
:1054600002C54CF55B2A1200186E000E1E6E000E6F
:105470001D6E18502DEC34F0000E1A6E000E196ED1
:10548000100E1C6E000E1B6E000E1F6E18502DECC1
:1054900034F00FC520F510C521F52050195C2150BE
:1054A0001A58D8B056EF2AF058EF2AF05EEF2AF0DB
:1054B00020C519F521C51AF56DEF2AF01B50205CA7
:1054C0001C502158D8B067EF2AF069EF2AF06DEF31
:1054D0002AF020C51BF521C51CF520501D262150A2
:1054E0001E221F2A090E1F6478EF2AF07AEF2AF095
:1054F00046EF2AF019C516F51AC517F5161E171E20
:10550000164A172A1B50165E1C50175A1D50162497
:105510001D6E1E5017201E6E1DC516F51EC517F5F3
:10552000D89017321632D89017321632D8901732D8
:10553000163216C514F517C515F51200000E356E96
:10554000230E3524D96EDA6A050EDA22DF6A352A8F
:10555000110E3564AEEF2AF0B0EF2AF0A0EF2AF07A
:10556000360E206E7C0E1F6E84EC34F00009D8B429
:10557000BCEF2AF0BEEF2AF0FDEF2AF0E10E206E1C
:10558000020E1F6E84EC34F00009D8B4CAEF2AF082
:10559000CCEF2AF0FDEF2AF0030E65EC2EF0230E7F
:1055A000186E050E196E120E1A6E98EC34F0030E7A
:1055B000A4EC35F0230E0F6E050E106E020E116E68
:1055C00098EC31F02518D8A4E8EF2AF0EAEF2AF099
:1055D000FDEF2AF0260E0F6E050E106E020E116EF4
:1055E00098EC31F02818D8A4F8EF2AF0FAEF2AF056
:1055F000FDEF2AF0010EFEEF2AF0000E1200FAC4B1
:1056000009F5FBC40AF5A1A808EF2BF00AEF2BF06F
:1056100013EF2BF0B1A80FEF2BF011EF2BF013EFDE
:105620002BF0BFEC32F0A7A018EF2BF01AEF2BF005
:105630002FEF2BF0B7A01FEF2BF021EF2BF02FEF68
:105640002BF002D82FEF2BF00500FA6E05019851D0
:10565000FD6E9951FE6E9A51FF6EFA501200A6A08F
:1056600034EF2BF036EF2BF04BEF2BF0B6A03BEFE7
:105670002BF03DEF2BF04BEF2BF002D84BEF2BF044
:105680000500FA6E0601EF51FD6EF051FE6EF1510C
:10569000FF6EFA5012009FA450EF2BF052EF2BF048
:1056A0005BEF2BF0AFA457EF2BF059EF2BF05BEF34
:1056B0002BF0CBEC33F00AC5FBF409C5FAF411006A
:1056C000A7907E0E0501986F520E996F000E9A6F8B
:1056D000A7927C0E9B6F660E9C6F000E9D6FA79429
:1056E000F80E956F580E966F000E976F000E020120
:1056F000C76F000EC96F000ECB6F000ECD6F000E8E
:10570000CF6FB00ED16F800ED26F000ED36FA00E90
:10571000D46F010ED56F200ED66F000ED76F800E9E
:10572000D86F000ED96F880E0F6E6C0E106E000EC3
:10573000116E60EC35F0060E0F6E6D0E106E000EE1
:10574000116E4FEC35F0FC0E0F6E6C0E106E000EED
:10575000116E3EEC35F0000E0601A26F000EA16F37
:10576000000E0501C56F000EC46F800EC36F000EE2
:105770004E6E000E4D6E000EC26FA780A784120001
:10578000A690740E0601EF6F530EF06F000EF16FCE
:10579000A692B60EF26F660EF36F000EF46FA6942B
:1057A000AC0EEC6F590EED6F000EEE6F000E0201A5
:1057B000B46F000EB66F000EB86F000EBA6F000E19
:1057C000BC6FB00EBE6F800EBF6F000EC06FA00E1C
:1057D000C16F010EC26F200EC36F000EC46F800E2A
:1057E000C56F000EC66F7C0E0F6E6C0E106E000E35
:1057F000116E93EC35F0040E0F6E6D0E106E000EF0
:10580000116E82EC35F0FA0E0F6E6C0E106E000EFB
:10581000116E71EC35F0000E0601A06F000E9F6F47
:10582000000E0501C16F000EC06F400EBF6F000E6D
:105830004C6E000E4B6E000E5B6EA680A6841200AE
:105840003B503C103D103E10D8B429EF2CF02BEF0C
:105850002CF02DEF2CF07BEF2CF0FCC510F5010E99
:105860000501FC6FA00E5618D8A439EF2CF03BEFC1
:105870002CF045EF2CF01004D8B441EF2CF043EF9E
:105880002CF045EF2CF07BEF2CF010C556F5020EF6
:105890005618D8A44EEF2CF050EF2CF056EF2CF009
:1058A000000EB66F000EB56F7BEF2CF0050E56188C
:1058B000D8A45DEF2CF05FEF2CF070EF2CF0020E0F
:1058C0005A18D8A466EF2CF068EF2CF06CEF2CF08F
:1058D000010EE46F7BEF2CF0000EE46F7BEF2CF0F9
:1058E000040E5618D8A477EF2CF079EF2CF07BEF4C
:1058F0002CF02DEC35F012000201D8AD82EF2CF027
:1059000084EF2CF0A6EF2CF04E50020D400EF32445
:10591000D96E060EF420DA6E0601DF800501835190
:1059200084118511D8B497EF2CF099EF2CF0A6EFE5
:105930002CF002D8A6EF2CF00500FA6E8351FD6E14
:105940008451FE6E8551FF6EFA5012000201D8A7F5
:10595000ACEF2CF0AEEF2CF0D0EF2CF04E50020D4F
:10596000400EF324D96E060EF420DA6E0601DF82B3
:10597000050189518A118B11D8B4C1EF2CF0C3EF06
:105980002CF0D0EF2CF002D8D0EF2CF00500FA6EFE
:105990008951FD6E8A51FE6E8B51FF6EFA501200D6
:1059A0000201D893D895D89BD89D12000201C5ADAD
:1059B000DCEF2CF0DEEF2CF000EF2DF04C50020D60
:1059C000000EF324D96E060EF420DA6E0601DF8095
:1059D0000501715172117311D8B4F1EF2CF0F3EF8E
:1059E0002CF000EF2DF002D800EF2DF00500FA6E3C
:1059F0007151FD6E7251FE6E7351FF6EFA501200BE
:105A00000201C5A706EF2DF008EF2DF02AEF2DF0CB
:105A10004C50020D000EF324D96E060EF420DA6EFF
:105A20000601DF820501775178117911D8B41BEF97
:105A30002DF01DEF2DF02AEF2DF002D82AEF2DF0DA
:105A40000500FA6E7751FD6E7851FE6E7951FF6E4A
:105A5000FA5012000201C593C595C59BC59D120061
:105A6000A00EF66E6C0EF76E000EF86E01EEF4F1FD
:105A700010EE0BF00900F5C4EEF4E550E150FAE148
:105A8000F60EF66E6C0EF76E000EF86E0900F5C499
:105A90005DF50900F5C45EF502EE60F112EEE6F385
:105AA000EE6AE550E150FCE1E250FAE102EE00F16D
:105AB000600EEE6AE806FDE102EE00F0BC0EEE6A52
:105AC000E806FDE101EE00F3CB0EEE6AE806FDE12B
:105AD00001EE00F2E90EEE6AE806FDE101EE60F18A
:105AE000940EEE6AE806FDE101EE37F1260EEE6A4D
:105AF000E806FDE10401080E5D6F000E5E6F000E0A
:105B00005F6F0001E6EF34F0000E236E000E246E8E
:105B1000000E256E000E266E1F5020102110221040
:105B2000D8B495EF2DF097EF2DF0CDEF2DF0010EBD
:105B3000276EA1EF2DF0D8901F3620362136223661
:105B4000272A22AEA6EF2DF0A8EF2DF09BEF2DF027
:105B5000D89023362436253626361F501B5C20501D
:105B60001C5821501D5822501E58D8A0BAEF2DF0B5
:105B7000BCEF2DF0C5EF2DF01F501B5E20501C5ABE
:105B800021501D5A22501E5A2380D8902232213291
:105B900020321F32272EA8EF2DF023C51BF524C578
:105BA0001CF525C51DF526C51EF51200000E286E34
:105BB000000E276E000E05019E6F000E9F6F010EF6
:105BC000A06F9EC50FF59FC510F5A0C511F51FEC80
:105BD0002EF0246E2450296E2A6A010E05019E259E
:105BE0000F6E000E9F21106E000EA021116E1FEC93
:105BF0002EF0246E2450266E256A25502912265038
:105C00002A12292806E12A28D8A409EF2EF00BEF42
:105C10002EF00DEF2EF01AEF2EF029C527F52AC52C
:105C200028F55A0E05019E27010E9F23000EA02382
:105C3000E1EF2DF027C522F528C523F51200F7C4A2
:105C400012F5136A146A156A14C515F513C514F50F
:105C500012C513F5126AF8C416F5176A186A196A9C
:105C600017C519F516C518F5176A166A12501610D9
:105C70001A6E135017101B6E145018101C6E15500E
:105C800019101D6EF6501A101E6E1B501F6E1C5000
:105C9000206E1D50216E11C5F8F40FC512F510C508
:105CA00013F511C514F513C512F514C513F5146ACF
:105CB0001250F76E0FC5F6F4080020C5F8F41FC5A2
:105CC000F7F41EC5F6F4F55012000F6E0F04D8A4B9
:105CD0006CEF2EF06EEF2EF073EF2EF0380E050104
:105CE000C76FA7EF2EF0030E0F18D8A47AEF2EF08F
:105CF0007CEF2EF085EF2EF0210E0501C96F420ECC
:105D0000C76F430EC66FA7EF2EF0040E0F18D8A46E
:105D10008CEF2EF08EEF2EF097EF2EF0000E050197
:105D2000C96F000EC76F000EC66FA7EF2EF0050EED
:105D30000F18D8A49EEF2EF0A0EF2EF0A9EF2EF0B2
:105D4000640E0501C96FC80EC76FC90EC66F0FC5B7
:105D5000C8F5120018C51AF519C51BF5000E1D6E01
:105D6000000E1C6EAA0E106E550E0F6E56EC36F01D
:105D70009EC50FF59FC510F5A0C511F51AC5D9F43C
:105D80001BC5DAF4DEC412F5DDC413F521EC30F0E6
:105D9000E806D8A4CEEF2EF0D0EF2EF0D2EF2EF002
:105DA000D0EF2EF05BEC36F0020E05019E27000EC0
:105DB0009F23000EA023020E1A26000E1B221C4A4F
:105DC0001D2A1D5009E1AD0E1C5CD8A0EAEF2EF093
:105DD000ECEF2EF0B2EF2EF01200176E000E166EE2
:105DE0000501C951C925156E5AEC34F01550010949
:105DF000C8EC31F0CCEC30F00009D8B402EF2FF051
:105E000004EF2FF008EF2FF0000E176E23EF2FF0A6
:105E100023EF2FF0F6EC31F013C5D9F414C5DAF402
:105E2000DF6E134A142A1704D8A419EF2FF01BEFC2
:105E30002FF01FEF2FF0FDEC33F021EF2FF015ECDA
:105E400034F0162A17061750D8A429EF2FF02BEF9D
:105E50002FF00AEF2FF01CEC35F0165012001B6EDD
:105E6000800E1C6E080E1D6E1CC5D9F41DC5DAF41B
:105E70001BC5DFF41C4A1D2A000E1E6E4FEF2FF0CB
:105E800018C5D9F419C5DAF41CC5E1F41DC5E2F44E
:105E9000DFC4E7F4184A192A1C4A1D2A1E2A1A5080
:105EA0001E5CD8A056EF2FF058EF2FF040EF2FF0E8
:105EB0001A2A800E136E080E146E1A506DEC2FF015
:105EC0001E6E1A501E18D8B468EF2FF06BEF2FF02B
:105ED000010E6CEF2FF0000E1200156E0501C95176
:105EE000C925166E5AEC34F01650C8EC31F0CCECE3
:105EF00030F00009D8B47FEF2FF081EF2FF084EF5E
:105F00002FF0000EAAEF2FF0000E176E9EEF2FF06D
:105F100013C5D9F414C5DAF4DF50C8EC31F0134AD4
:105F2000142ACCEC30F00009D8B499EF2FF09BEF95
:105F30002FF09DEF2FF0A7EF2FF0172A1550175CC9
:105F4000D8A0A5EF2FF0A7EF2FF088EF2FF01CECD3
:105F500035F017501200C69404010295BE84CB8020
:105F60002981C3800897C7960A97BF962899CB982E
:105F70002A99C398289BCB9A2A9BC39A289DCB9C8D
:105F80002A9DC39C289FCB9E2A9FC39E0091C690AA
:105F90000291BE900093C6920293BE921095C8944F
:105FA0001295C0841899C9881999C188189BC98A03
:105FB000198BC18AC88611971087C096C88C119D0D
:105FC000108DC09CC88E119F108FC09E1200000EB5
:105FD000146E000E136E11501210D8B4F2EF2FF0A1
:105FE000F4EF2FF01CEF30F0010E156EFCEF2FF0E8
:105FF000D89011361236152A12AE01EF30F003EFA9
:1060000030F0F8EF2FF0D8901336143611500F5CA3
:1060100012501058D8A00FEF30F011EF30F016EFFB
:1060200030F011500F5E1250105A1380D890123277
:106030001132152E03EF30F013C50FF514C510F50E
:106040001200000ED6BE010E176E11C545F00FC529
:1060500014F510C515F511C516F515C514F516C5B9
:1060600015F5166A14500001446F0FC543F0135024
:10607000476F12C546F04151F80B0309416FD69E98
:10608000000150C542F04F50426F408117B002D01E
:10609000D69E01D0D68EF80E0001411741AF53EFC6
:1060A00030F055EF30F058EF30F0010E59EF30F08E
:1060B000000E1200000E0501F16FF1C5F0F5F0C5FC
:1060C000EFF5030E65EC2EF0EF0E186E050E196E4F
:1060D000030E1A6E98EC34F01D6E030EA4EC35F02E
:1060E0001D04D8A476EF30F078EF30F083EF30F075
:1060F000EF0E0F6E050E106E020E116E98EC31F061
:106100001C6E86EF30F0000E92EF30F01C5005014F
:10611000F119D8B48EEF30F091EF30F0010E92EF1C
:1061200030F0000E1200000E0301D96F000EDA6F7E
:10613000000EDB6F000EDC6F000EDF6F000EE06FF5
:10614000000EE56F000EE76F3E0EEC6F080EEE6F6F
:10615000000EEF6F000EF06F000EF16F000EF26F89
:10616000000EF46F100EF56F000EF66F000EF76F55
:10617000030EF86F000EF96F030EFA6F840EF36FC3
:10618000AF940A0E0F6E6D0E106E000E116E1FECA6
:1061900036F09F84B0901200000E116E000E106E4B
:1061A00079EC36F0C19277EC36F00A0E60EC36F0FE
:1061B000C1820A0E60EC36F0000ED1B0010E126EF4
:1061C000104A112A410E105C1F0E1158D8A0EBEF97
:1061D00030F0EDEF30F0EFEF30F0F7EF30F012503D
:1061E000D8A4F5EF30F0F7EF30F0DCEF30F00A0E26
:1061F00060EC36F0C1920A0E60EC36F075EC36F0C9
:1062000012501200000E176E000E186E000E196E5E
:10621000000E1A6E0FA00FEF31F011EF31F019EFF1
:1062200031F0135017261450182215501922165009
:106230001A22D8901336143615361636D8901232E4
:10624000113210320F320F50101011101210D8A44A
:106250002CEF31F02EEF31F00AEF31F017C50FF5CA
:1062600018C510F519C511F51AC512F512005AEC2A
:1062700030F0E806D8A43FEF31F041EF31F067EF9E
:1062800031F0EFC524F5256A2450256E246A0501F6
:10629000F0512412800E255CD8B051EF31F053EF4D
:1062A00031F05BEF31F01EC5D9F41FC5DAF4DE6AB8
:1062B000DD6A67EF31F0241C226E251C236E1EC59B
:1062C000D9F41FC5DAF422C5DEF423C5DDF41200CB
:1062D0005B50D8B46EEF31F070EF31F097EF31F0E2
:1062E0000501CF51D8A477EF31F079EF31F087EF86
:1062F00031F0010ECF6F20EE52F05D50D9265E5086
:10630000DA22320EDE6E000EDD6E97EF31F0000EF7
:10631000CF6F5C0E0F6E120E106EA30E116E070E75
:10632000126E000E146E000E136E4AEC32F0120064
:106330001368BDEF31F00FC5D9F410C5DAF4DF50A2
:10634000131A0F4A102A000E126E13AEAAEF31F084
:10635000ACEF31F0B2EF31F013501324310A136E69
:10636000B4EF31F0D8901336122A070E1264BBEF47
:1063700031F0BDEF31F0A5EF31F011061128D8A4AE
:10638000C4EF31F0C6EF31F09BEF31F01350120043
:10639000106E75EC36F0C192000E116E10AED3EF98
:1063A00031F0D5EF31F0D8EF31F0C180D9EF31F0D5
:1063B000C190050E60EC36F0C1820A0E60EC36F03A
:1063C000C1920A0E60EC36F0D8901036112A070EF2
:1063D0001164EDEF31F0EFEF31F0CEEF31F00A0E56
:1063E00060EC36F00A0E60EC36F01200000E106E13
:1063F000C19277EC36F00A0E60EC36F0000E116EAA
:10640000C1820A0E60EC36F0D8901036D1A00BEFA6
:1064100032F00DEF32F00EEF32F010800A0E60EC29
:1064200036F0C1920A0E60EC36F0112A070E1164A4
:106430001CEF32F01EEF32F000EF32F0105012007D
:10644000D68A030165896B816A816385629F6B933C
:106450006B956A936A95AF90D680000E0F6E000E12
:10646000106E000E116E18EC36F0B490D682000E4D
:106470000F6E000E106E000E116E11EC36F0B8901B
:10648000D684000E0F6E000E106E000E116E0AEC18
:1064900036F0120011C517F512C518F50FC515F520
:1064A00010C516F564EF32F017C5D9F418C5DAF443
:1064B000DF50196E174A182A15C5D9F416C5DAF433
:1064C00019C5DFF4154A162A1306D8A01406132896
:1064D00006E11428D8A46FEF32F071EF32F054EFD8
:1064E00032F012000F6E0F04D8A479EF32F07BEF78
:1064F00032F087EF32F0BE9ABE96BE98C290C2923A
:10650000C294C09AC098C196C19499EF32F00F50CE
:10651000D8A48DEF32F08FEF32F099EF32F0BE8ACF
:10652000BE86BE88C280C282C284C08AC088C1863C
:10653000C1841200000E03011F6F000E206F020EB7
:10654000216FC10E1D6F7F0E1C6F1C511DC312F5F4
:10655000136A12C513F5126A12100501A16F1350C8
:10656000A26F080E0F6E6D0E106E000E116E03EC12
:1065700036F0B198A188010E03011E6F1200B19888
:10658000A1C501F5A2C502F56FEC34F00601E95191
:10659000EA11EB11D8B4CFEF32F0D1EF32F0E0EFE7
:1065A00032F002D8DEEF32F00500FA6EE951FD6EEE
:1065B000EA51FE6EEB51FF6EFA5012009BEC1CF09C
:1065C0001200BE86C69604010287BE88C69802895C
:1065D000BE8AC69A028BC280CA902281C282CA92A7
:1065E0002283C284CA942285C08AC89A128BC0882A
:1065F000C8981289C186C9961A87C184C9941A8518
:106600001200000E0F6E020E586009EF33F00BEF10
:1066100033F00EEF33F0000E20EF33F00501E451BC
:10662000D8B415EF33F017EF33F01FEF33F0000E4F
:10663000E46F020EEE6F020EE56F010E0F6E0F504B
:106640001200DDEC35F0C3EC28F093EC30F038ECC0
:1066500036F0ACEC34F065EC36F00AEC35F06FEC6B
:1066600036F0F8EC34F09AEC32F0C0EC2BF060EC41
:106670002BF032EC36F020EC32F01200800E0501E7
:10668000C36145EF33F047EF33F059EF33F0000EBD
:10669000C425D96EDA6A080EDA22DF500201C96F0A
:1066A0000501C4297F0B0B6E0BC5C4F5C32B5AEF34
:1066B00033F0A7921200400E0501BF6162EF33F084
:1066C00064EF33F076EF33F0000EC025D96EDA6A4E
:1066D000070EDA22DF500201B66F0501C0293F0B19
:1066E0000B6E0BC5C0F5BF2B77EF33F0A6921200EF
:1066F0000FC511F510C512F512C511F5126A11502A
:10670000156E166A0F50126E116A000E1114136E78
:10671000FF0E1214146E135015121450161215C5D4
:106720000FF516C510F512003F0E206EF90E1F6E04
:1067300084EC34F0000E106E020E0F6E44EC34F058
:10674000040E65EC2EF0000E186E000E196E000E91
:106750001A6E060E2FEC2FF0040EA4EC35F012008A
:10676000106E080E116E000E126ED8901034123496
:10677000126ED89010360F50125CD8A0C2EF33F0D2
:10678000C4EF33F0C6EF33F00F50125E112EB5EFA9
:1067900033F012501200AF940601F551F611F711C3
:1067A000D8B4D5EF33F0D7EF33F0E4EF33F002D8BD
:1067B000E4EF33F00500FA6EF551FD6EF651FE6E12
:1067C000F751FF6EFA5012001200040E65EC2EF025
:1067D000000E186E000E196E000E1A6E060E2FECCB
:1067E0002FF01F6E040EA4EC35F0000E106E190E83
:1067F0000F6E44EC34F01F50120075EC36F079EC5B
:1068000036F00A0E60EC36F0C1920A0E60EC36F0FB
:10681000C1800A0E60EC36F0C1820A0E60EC36F0E0
:10682000C1920A0E60EC36F0120075EC36F079EC8D
:1068300036F00A0E60EC36F0C1920A0E60EC36F0CB
:10684000C1900A0E60EC36F0C1820A0E60EC36F0A0
:10685000C1920A0E60EC36F01200136E13C5ECF311
:106860000301F39DF381F3B138EF34F03AEF34F0E4
:1068700033EF34F0EB51126E116AEA5111240F6EAE
:10688000000E1220106E12000F50126E116A4DEFA2
:1068900034F000F000F000F000F01106D8A012066D
:1068A00011501210D8A457EF34F059EF34F049EFDB
:1068B00034F0120075EC36F079EC36F0C1800A0E37
:1068C00060EC36F0C1820A0E60EC36F0C1900A0E20
:1068D00060EC36F0C1920A0E60EC36F01200030153
:1068E0001EA575EF34F077EF34F07FEF34F01E9192
:1068F00002501D6F01C51CF31E8183EF34F002505E
:106900001D6F01C51CF31200030E65EC2EF01FC5B0
:1069100022F5220E186E050E196E010E1A6E205009
:106920002FEC2FF0216E030EA4EC35F02150120055
:1069300018C513F519C514F51A50EDEC2EF01B6EA1
:106940001A501B18D8B4A7EF34F0AAEF34F0010E98
:10695000ABEF34F0000E1200000E0301BC6F030E0B
:10696000C16F010EBE6F010EBF6F140EC26F000E1D
:10697000C36F030EC46F0C0EBD6F800EC06F12008C
:10698000A60E05019E5DFE0E9F59010EA059D8A0CE
:10699000CCEF34F0CEEF34F0D1EF34F0010ED2EF83
:1069A00034F0000E12000F501102F3C413F5F4C4BA
:1069B00014F50F501202F350142610501102F35028
:1069C000142613C50FF514C510F5120021EC33F091
:1069D000D68EBE846CEC36F0ABEC2FF021EC25F0BB
:1069E00069EC36F03AEC20F0F2EF34F00EEF00F004
:1069F000080E0001606F7C0E616F470E636F080E1A
:106A0000646F030E656FC70E666FFC0E676F3C0EFA
:106A1000686F1200060E0401476F000E426F000EF1
:106A2000416F000E406F000E456F5D0E446FB20E59
:106A3000436F100E466F120075EC36F079EC36F0AD
:106A4000C1900A0E60EC36F0C1820A0E60EC36F09E
:106A5000C1800A0E60EC36F012005750D8B433EF04
:106A600035F035EF35F037EF35F03DEF35F0000E0E
:106A700072EC32F0BE943BEF35F012000F50101064
:106A80001110D8B446EF35F048EF35F04EEF35F041
:106A90000FC583F510C584F511C585F512000F509B
:106AA00010101110D8B457EF35F059EF35F05FEFF3
:106AB00035F00FC586F510C587F511C588F51200AC
:106AC0000F5010101110D8B468EF35F06AEF35F0A0
:106AD00070EF35F00FC589F510C58AF511C58BF536
:106AE00012000F5010101110D8B479EF35F07BEF71
:106AF00035F081EF35F00FC571F510C572F511C590
:106B000073F512000F5010101110D8B48AEF35F041
:106B10008CEF35F092EF35F00FC574F510C575F5B3
:106B200011C576F512000F5010101110D8B49BEF5C
:106B300035F09DEF35F0A3EF35F00FC577F510C5B3
:106B400078F511C579F512000F6E0501C8510F18BF
:106B5000D8A4ADEF35F0AFEF35F0B2EF35F0C9693D
:106B6000C769C6691200E5EC33F0366E3650D8B40A
:106B7000BCEF35F0BEEF35F0C0EF35F09EEC2AF0FB
:106B80001200000ED6BE010E0F6ED69E0001785187
:106B900004000FB002D0D69E01D0D68E1200106E27
:106BA000C0C30FF53F0E0301C01710C5BEF310C5DB
:106BB000BFF30F504009C06F1200700E0001AD6F9F
:106BC000000EAF6F000EB36F050EB16F000EB06F09
:106BD000000EAC6F1200640E0601BF6F000EC06F96
:106BE000000EC16F000EC26F120011C545F410C532
:106BF00044F40FC543F41200360E206E150E1F6EBE
:106C000084EC34F012000FC5E9F610C5EAF611C5A0
:106C1000EBF612000FC58CF510C58DF511C58EF57C
:106C200012000FC58FF510C590F511C591F5120032
:106C30000FC592F510C593F511C594F512000FC557
:106C4000F5F610C5F6F611C5F7F61200800E030131
:106C5000C06F0401469F1200840E0301C06F04013F
:106C6000468F1200160E0001786F070E796F120022
:106C7000060E00013A6F900E396F1200D7AE43EF47
:106C800036F080EF36F01200D7AE49EF36F081EFE4
:106C900036F01200800E0301C06F0401469F1200FF
:0B6CA000A5066400F4011401010101CD
:106CAC0010504F6E0FC550F51200000E4F6E000EB7
:106CBC00506E12000F6E0F2E61EF36F01200C20EE6
:106CCC000301D76F120000017881120003011E81AD
:106CDC00120072EC36F012000001419F1200C990B4
:106CEC001200C9801200C992120000091200120091
:106CFC0012001200120012001200120012001200F8
:020000040020DA
:10000000FF0FFF0FFF0FFF0FFF0FFF0FFF0FFF0F80
:10001000FF0FFF0FFF0FFF0FFF0FFF0FFF0FFF0F70
:10002000FF0FFF0FFF0FFF0FFF0FFF0FFF0FFF0F60
:10003000FF0FFF0FFF0FFF0FFF0FFF0FFF0FFF0F50
:020000040030CA
:0A000000FAFEF7FFBFC7FFFFFFFF86
:00000001FF
