:040000000EEF00F00F
:04000800ADEF32F036
:08001800D8EF2EF00EEF33F0DB
:10260000009C6700000000000000000000000000C7
:1026100000000000000000000000000000000000BA
:1026200000000000000000000000000000000000AA
:1026300000000000000000000000000000787B00A7
:10264000567B00347B00000000DC660000000000C8
:10265000000000000000000000000000000000007A
:10266000000000000000000000000000000000006A
:10267000000000000000000000000000000000005A
:102680000000000000127B00F07A00CE7A0000000B
:1026900000BE7500287D00000000000000587C008E
:1026A00000000000190E2E6EF6EF1EF0000E050160
:1026B000F96F010EF86F020E5A6E27EF1FF0F0EC63
:1026C00037F00009D8B467EF13F069EF13F0EFEFBC
:1026D00013F00501F02BF005D8B471EF13F073EF90
:1026E00013F027EF1FF0000EF06F20EE0AF05D50A0
:1026F000D9265E50DA22020EDE6E000EDD6E20EE6E
:1027000008F05D50D9265E50DA22040EDE6E000E0F
:10271000DD6E20EE0CF05D50D9265E50DA22020EFE
:10272000DE6E000EDD6E20EE0EF05D50D9265E509E
:10273000DA22C80EDE6E000EDD6E20EE4AF05D502D
:10274000D9265E50DA22DE6ADD6A20EE48F05D505E
:10275000D9265E50DA22DE6ADD6A030E5A6E000E5A
:102760003B6E000E3C6E000E3D6E000E3E6E9D0EEA
:102770000F6E990E106E000E116E000E126E1EEC92
:102780003EF0000E596E5950F8EC3DF0000E536EBD
:1027900053C552F528EC1FF0020E446E7E0E436EB8
:1027A00055EC3EF0BE82BE80000E0501D96F000ED2
:1027B000D86F000EF96F020EF86F000EAC6F000EAE
:1027C000AB6F000EA86F000EA76F000E556E000EC7
:1027D000B86F000EB76F25EC3EF027EF1FF0D1A8C1
:1027E000F4EF13F0F6EF13F0FBEF13F0000E05011A
:1027F000B86F000EB76F0501B74BB82BB751B55D79
:10280000B851B659D8B007EF14F009EF14F011EF32
:1028100014F0050E5A6E000EF96F050EF86F27EFD3
:102820001FF0000EF96F640EF86F27EF1FF027EF0F
:102830001FF0000E0501F96F010EF86FA74BA82BD2
:10284000A85109E1140EA75DD8A029EF14F02BEFD1
:1028500014F07AEF14F0000EE26F000EE36F000E3A
:10286000A66F000EA56F000EB46F000EB36F000EC2
:10287000F96F010EF86F350E376E5F0E386E000E71
:10288000396E000E3A6E37C564F538C565F539C541
:1028900066F53AC567F537C50FF538C510F539C582
:1028A00011F53AC512F51EEC3EF0040E5A6EB80E44
:1028B0003F243B6E0B0E40203C6E000E41203D6ECF
:1028C000000E42203E6E0501E705D8A46AEF14F021
:1028D0006CEF14F027EF1FF0700E3F243B6E170EC5
:1028E00040203C6E000E41203D6E000E42203E6EA8
:1028F00027EF1FF0A85109E10A0EA75DD8A083EFCA
:1029000014F085EF14F027EF1FF0160EA5EC3EF043
:102910005C04D8B48EEF14F090EF14F088EF14F04C
:10292000160EE2EC31F014C549F515C54AF50A0E4C
:102930000501A719A811D8A4A0EF14F0A2EF14F074
:10294000B1EF14F0D890A535D96EA635DA6E600EC9
:10295000D926090EDA2249C5DEF44AC5DDF4A54BB5
:10296000A62BDD0E495C050E4A58D8A0BAEF14F02C
:10297000BCEF14F0C0EF14F0AB4BAC2B27EF1FF003
:10298000900E495C010E4A58D8B0C9EF14F0CBEF55
:1029900014F0D6EF14F0AC5109E1030EAB5DD8A0F2
:1029A000D4EF14F0D6EF14F018EF15F04FEC3EF022
:1029B000BE92BE90000E3B6E000E3C6E000E3D6E51
:1029C000000E3E6E060E5A6E5550D8A4EAEF14F073
:1029D000ECEF14F017EF14F0030E556E20EE0AF032
:1029E0005D50D9265E50DA22020EDE6E000EDD6EDC
:1029F00020EE08F05D50D9265E50DA22040EDE6E1D
:102A0000000EDD6E20EE0CF05D50D9265E50DA220D
:102A1000040EDE6E000EDD6E20EE0EF05D50D92647
:102A20005E50DA22640EDE6E000EDD6E27EF1FF0C0
:102A3000000EAC6F000EAB6F27EF1FF0000E05010C
:102A4000F96F010EF86F160EA5EC3EF05C04D8B4D9
:102A50002CEF15F02EEF15F026EF15F0160EE2EC28
:102A600031F014C549F515C54AF5DD0E495C050E72
:102A70004A58D8A03EEF15F040EF15F090EF15F052
:102A80000501AB4BAC2BAC5109E1050EAB5DD8A0F9
:102A90004CEF15F04EEF15F027EF1FF04FEC3EF026
:102AA000BE92BE90000E3B6E000E3C6E000E3D6E60
:102AB000000E3E6E060E5A6E5550D8A462EF15F009
:102AC00064EF15F027EF1FF0030E556E20EE0AF0AD
:102AD0005D50D9265E50DA22020EDE6E000EDD6EEB
:102AE00020EE08F05D50D9265E50DA22040EDE6E2C
:102AF000000EDD6E20EE0CF05D50D9265E50DA221D
:102B0000040EDE6E000EDD6E20EE0EF05D50D92656
:102B10005E50DA22640EDE6E000EDD6E27EF1FF0CF
:102B2000000E0501AC6F000EAB6FD890A535D96EC5
:102B3000A635DA6E600ED926090EDA2249C5DEF412
:102B40004AC5DDF4A54BA62B300E495C020E4A584F
:102B5000D8A0ADEF15F0AFEF15F00EEF16F0D82BB3
:102B6000580E495C020E4A58D8A0B9EF15F0BBEFD9
:102B700015F0BCEF15F0D92BD951D8A4C2EF15F040
:102B8000C4EF15F0CCEF15F0010ED865CAEF15F0C3
:102B9000CCEF15F00EEF16F04FEC3EF0BE92BE906B
:102BA000000E3B6E000E3C6E000E3D6E000E3E6E43
:102BB0000501E52B060E5A6E5550D8A4E2EF15F02C
:102BC000E4EF15F00EEF16F0030E556E20EE0AF04E
:102BD0005D50D9265E50DA22020EDE6E000EDD6EEA
:102BE00020EE08F05D50D9265E50DA22040EDE6E2B
:102BF000000EDD6E20EE0CF05D50D9265E50DA221C
:102C0000040EDE6E000EDD6E20EE0EF05D50D92655
:102C10005E50DA22640EDE6E000EDD6E4950B35D4A
:102C20004A50B459D8B017EF16F019EF16F025EF47
:102C300016F037C564F538C565F539C566F53AC58A
:102C400067F549C5B3F54AC5B4F5E22B280EE26134
:102C50002CEF16F02EEF16F054EF16F0E205D8A484
:102C600034EF16F036EF16F042EF16F06100DDF4A7
:102C7000EEF36100E1F4EFF36100E5F4F0F36100DD
:102C8000E9F4F1F30D0E375E000E385A395A3A5A0C
:102C900037C50FF538C510F539C511F53AC512F528
:102CA0001EEC3EF027EF1FF0280EE219D8A45BEFD0
:102CB00016F05DEF16F07AEF16F0210E6425376EF0
:102CC000000E6521386E000E6621396E000E6721F8
:102CD0003A6E37C50FF538C510F539C511F53AC547
:102CE00012F51EEC3EF0000E0501B46F000EB36F3E
:102CF00027EF1FF0290EE26FE32B290EE36183EF2C
:102D000016F085EF16F08CEF16F03706000E385AE5
:102D1000395A3A5A48EF16F064C537F565C538F5A3
:102D200066C539F567C53AF537C50FF538C510F5ED
:102D300039C511F53AC512F51EEC3EF037C584F6DB
:102D400038C585F639C586F63AC587F6B3C5A7F600
:102D5000B4C5A8F6280E0501E36F320EE46F000E2D
:102D6000F96F050EF86F000ED76F000ED66F000ECC
:102D7000D56F000ED46F000EB06F000EAF6F000E57
:102D8000B26F000EB16F000EA46F000EA36F030EA2
:102D90000601A66F700EA56F000E0501AA6F000E4A
:102DA000A96FE705D8A4D7EF16F0D9EF16F0DDEF3D
:102DB00016F0070E5A6E27EF1FF0060E5A6E27EF19
:102DC0001FF05750D8B4E7EF16F0E9EF16F0F4EF24
:102DD00016F0000E0501F96F050EF86F000EB86FC2
:102DE000000EB76F020E5A6E56EC3DF027EF1FF043
:102DF000000E0501F96F010EF86F160EA5EC3EF0FE
:102E00005C04D8B406EF17F008EF17F000EF17F0E6
:102E1000160EE2EC31F014C549F515C54AF5320E2F
:102E2000516015EF17F017EF17F033EF17F0190E89
:102E30000F6E0501CB2BCB05D9EC3BF00009D8A4D4
:102E400024EF17F026EF17F033EF17F05150020D73
:102E5000020EF324D96E150EF420DA6E49C5DEF4A5
:102E60004AC5DDF4512ADD0E495C050E4A58D8A04A
:102E70003CEF17F03EEF17F08EEF17F00501AB4B6C
:102E8000AC2BAC5109E1050EAB5DD8A04AEF17F0B1
:102E90004CEF17F027EF1FF04FEC3EF0BE92BE90C4
:102EA000000E3B6E000E3C6E000E3D6E000E3E6E40
:102EB000060E5A6E5550D8A460EF17F062EF17F067
:102EC00027EF1FF0030E556E20EE0AF05D50D92655
:102ED0005E50DA22020EDE6E000EDD6E20EE08F08D
:102EE0005D50D9265E50DA22040EDE6E000EDD6ED5
:102EF00020EE0CF05D50D9265E50DA22040EDE6E14
:102F0000000EDD6E20EE0EF05D50D9265E50DA2206
:102F1000640EDE6E000EDD6E27EF1FF0000E050161
:102F2000AC6F000EAB6F4950AF274A50B023B14B86
:102F3000B22BB25109E10A0EB15DD8A0A2EF17F091
:102F4000A4EF17F05FEF1AF0000EB26F000EB16F32
:102F5000AFC50FF5B0C510F5000E126E0A0E116E5A
:102F60002CEC38F00FC545F510C546F5000E0501EF
:102F7000B06F000EAF6FD890A535D96EA635DA6E5A
:102F8000600ED926090EDA2245C5DEF446C5DDF409
:102F9000900EA55D010EA659D8B0D1EF17F0D3EF72
:102FA00017F0D5EF17F0A54BA62B52505318D8A405
:102FB000DCEF17F0DEEF17F0E0EF17F0A94BAA2BCC
:102FC0004350455C0F6E44504658106E46EC3BF043
:102FD00010BEF4EF17F0105009E1230E0F5CD8A0DB
:102FE000F4EF17F0F6EF17F025EF18F00501AA51EE
:102FF00009E1060EA95DD8A000EF18F002EF18F065
:1030000025EF18F0D42B4350455C0F6E44504658C2
:10301000106E46EC3BF00F500501AD5D1050AE59FF
:10302000D8B015EF18F017EF18F02CEF18F0435048
:10303000455C0F6E44504658106E46EC3BF00FC591
:10304000ADF510C5AEF52CEF18F0000E0501D46FEC
:10305000000EAE6F000EAD6F5350525CD8B033EF20
:1030600018F035EF18F061EF18F052C50FF5106A3F
:10307000FF0E126EF90E116EFCEC3CF05350070D72
:10308000F3C42AF5F4C42BF50F502A242C6E1050EB
:103090002B202D6E43502C2644502D228C0E2C2696
:1030A000000E2D2245502C5C46502D58D8B05BEFB9
:1030B00018F05DEF18F0C4EF18F00501D72BC4EF3E
:1030C00018F0535052C52AF52B6A2A5E000E2B5A6F
:1030D0002BBE74EF18F02B5009E1040E2A5CD8A027
:1030E00074EF18F076EF18F0A0EF18F052C50FF556
:1030F000106AFF0E126EFB0E116EFCEC3CF053508A
:10310000050DF3C42AF5F4C42BF50F502A242C6EB8
:1031100010502B202D6E43502C2644502D22780E1B
:103120002C26000E2D2245502C5C46502D58D8B030
:103130009CEF18F09EEF18F0C4EF18F05DEF18F058
:10314000535052C52AF52B6A2A5E000E2B5AD8908E
:103150002A362B36D8902A362B362A50435C2C6ED2
:103160002B5044582D6E640E2C26000E2D224550F7
:103170002C5C46502D58D8B0C0EF18F0C2EF18F0B4
:10318000C4EF18F05DEF18F0480E455C030E46588A
:10319000D8A0CDEF18F0CFEF18F0D1EF18F005015F
:1031A000D62B53C552F545C5A5F646C5A6F6830EE2
:1031B000455C020E4658D8A0E0EF18F0E2EF18F098
:1031C0006BEF19F0000E0501DD6FDE2B860E455CFE
:1031D000020E4658D8B0EFEF18F0F1EF18F0F9EF03
:1031E00018F0040EDE65F7EF18F0F9EF18F0DFEFD6
:1031F00019F0000EDE6F820E45240F6EFD0E462084
:10320000106E000E126E0C0E116E2CEC38F00F507A
:10321000546E5450D8A40FEF19F011EF19F013EFBA
:1032200019F0010E546E5350D8B419EF19F01BEF7A
:1032300019F032EF19F0000E0501D56F5450535CB0
:10324000D8A025EF19F027EF19F02CEF19F0545002
:10325000535C536E2EEF19F0000E536E28EC1FF0E6
:10326000DFEF19F01A0E596038EF19F03AEF19F044
:103270004FEF19F059505424596E180E596443EF0A
:1032800019F045EF19F047EF19F0190E596E595022
:10329000F8EC3DF0000E0501D56FDFEF19F0F80EE8
:1032A000455C020E4658D8B058EF19F05AEF19F0A5
:1032B00065EF19F0B00E455C020E4658D8A063EFDA
:1032C00019F065EF19F04AEF19F00501D52BDFEF82
:1032D00019F0DFEF19F07C0E455C020E4658D8B0AD
:1032E00074EF19F076EF19F0DFEF19F0000E050119
:1032F000DE6FDD2B7A0E455C020E4658D8A083EFB8
:1033000019F085EF19F08DEF19F0040EDD658BEFE4
:1033100019F08DEF19F0DFEF19F0000EDD6F020EDE
:10332000446E7E0E436E4550435C2A6E46504458B0
:103330002B6E040E2C6ED8902B322A322C2E9BEF43
:1033400019F02A50546E5450D8A4A9EF19F0ABEFDD
:1033500019F0ADEF19F0010E546E7F0E5360B3EF0C
:1033600019F0B5EF19F0C4EF19F053505424536E0F
:103370007E0E5364BEEF19F0C0EF19F02EEF19F076
:103380007F0E536E2EEF19F05950D8B4CAEF19F0D2
:10339000CCEF19F069EF19F05450595CD8B0D3EF65
:1033A00019F0D5EF19F0D9EF19F0000E596EDCEFD6
:1033B00019F05450595C596E5950F8EC3DF0A00E7C
:1033C0000501A325D96E0F0EA421DA6E53C5DFF4D3
:1033D000FE0EA325D96E100EA421DA6E59C5DFF4B6
:1033E0002C0EA35D010EA459D8B0F9EF19F0FBEF34
:1033F00019F0FDEF19F0A34BA42B040ED76103EFD6
:103400001AF005EF1AF01DEF1AF0030ED6610BEF5C
:103410001AF00DEF1AF01DEF1AF0050ED56113EF3B
:103420001AF015EF1AF01DEF1AF0020ED4651BEF1B
:103430001AF01DEF1AF05FEF1AF04FEC3EF0BE925B
:10344000BE90000E3B6E000E3C6E000E3D6E000EF8
:103450003E6E060E5A6E5550D8A431EF1AF033EF77
:103460001AF05FEF1AF0030E556E20EE0AF05D5071
:10347000D9265E50DA22020EDE6E000EDD6E20EEE0
:1034800008F05D50D9265E50DA22040EDE6E000E82
:10349000DD6E20EE0CF05D50D9265E50DA22040E6F
:1034A000DE6E000EDD6E20EE0EF05D50D9265E5011
:1034B000DA22640EDE6E000EDD6E5FEF1AF005019B
:1034C000E42B090EE46567EF1AF069EF1AF027EFB5
:1034D0001FF0320ECD616FEF1AF071EF1AF08DEF21
:1034E0001AF0190E0F6ECC2BCC05D9EC3BF000096D
:1034F000D8A47DEF1AF07FEF1AF08DEF1AF00501D6
:10350000CD51020DFE0EF324D96E130EF420DA6EA7
:10351000F4C5DEF4F5C5DDF4CD2B000E0501E46F36
:10352000000EF56F000EF46FF40E1E6E050E1F6E8A
:10353000000E216E0A0E206E7CEC39F00501F4516C
:103540002A6EF5512B6E2C6A2D6A2A50605D2B5025
:1035500061592C5062592D506359D8B0B2EF1AF00E
:10356000B4EF1AF0BAEF1AF0F4C560F5F5C561F5DD
:10357000626B636B60C50FF561C510F562C511F52F
:1035800063C512F5190E136E000E146E000E156E43
:10359000000E166E47EC39F00FC51BF510C51CF573
:1035A00011C51DF512C51EF5640E1F6E000E206EAE
:1035B000000E216E000E226E3EEC35F00501F45136
:1035C0002A6EF5512B6E2C6A2D6A1B502A5C1C50FA
:1035D0002B581D502C581E502D58D8B0F2EF1AF011
:1035E000F4EF1AF027EF1FF0010EF027D8B4FBEF2D
:1035F0001AF0FDEF1AF027EF1FF0000EF06F4FECFE
:103600003EF0BE92BE90000E3B6E000E3C6E000E71
:103610003D6E000E3E6E060E5A6E5550D8A413EF46
:103620001BF015EF1BF017EF14F0030E556E20EE94
:103630000AF05D50D9265E50DA22020EDE6E000ED0
:10364000DD6E20EE08F05D50D9265E50DA22040EC1
:10365000DE6E000EDD6E20EE0CF05D50D9265E5061
:10366000DA22040EDE6E000EDD6E20EE0EF05D50EE
:10367000D9265E50DA22640EDE6E000EDD6E27EF74
:103680001FF0000E0501F96F010EF86F3B503C1062
:103690003D103E10D8B44FEF1BF051EF1BF0B3EFCD
:1036A0001EF0160EA5EC3EF05C04D8B45AEF1BF0E9
:1036B0005CEF1BF054EF1BF0160EE2EC31F014C57A
:1036C00049F515C54AF5320E516069EF1BF06BEFF5
:1036D0001BF087EF1BF0190E0F6E0501CB2BCB05EE
:1036E000D9EC3BF00009D8A478EF1BF07AEF1BF07F
:1036F00087EF1BF05150020D020EF324D96E150E08
:10370000F420DA6E49C5DEF44AC5DDF4512ADD0E37
:10371000495C050E4A58D8A090EF1BF092EF1BF0C1
:10372000E2EF1BF00501AB4BAC2BAC5109E1050EF0
:10373000AB5DD8A09EEF1BF0A0EF1BF027EF1FF0B2
:103740004FEC3EF0BE92BE90000E3B6E000E3C6E03
:10375000000E3D6E000E3E6E060E5A6E5550D8A4F9
:10376000B4EF1BF0B6EF1BF027EF1FF0030E556E02
:1037700020EE0AF05D50D9265E50DA22020EDE6E8F
:10378000000EDD6E20EE08F05D50D9265E50DA2284
:10379000040EDE6E000EDD6E20EE0CF05D50D926BC
:1037A0005E50DA22040EDE6E000EDD6E20EE0EF0AC
:1037B0005D50D9265E50DA22640EDE6E000EDD6E9C
:1037C00027EF1FF0000E0501AC6F000EAB6F4950E4
:1037D000AF274A50B023B14BB22BB25109E10A0EC8
:1037E000B15DD8A0F6EF1BF0F8EF1BF027EF1FF04C
:1037F000000EB26F000EB16FAFC50FF5B0C510F57A
:10380000000E126E0A0E116E2CEC38F00FC545F545
:1038100010C546F5000E0501B06F000EAF6FD890D1
:10382000A535D96EA635DA6E600ED926090EDA22D4
:1038300045C5DEF446C5DDF4900EA55D010EA65922
:10384000D8B025EF1CF027EF1CF029EF1CF0A54B9A
:10385000A62B52505318D8A430EF1CF032EF1CF0B6
:1038600034EF1CF0A94BAA2B4350455C0F6E44501B
:103870004658106E46EC3BF010BE48EF1CF010505E
:1038800009E1230E0F5CD8A048EF1CF04AEF1CF0B2
:1038900079EF1CF00501AA5109E1060EA95DD8A037
:1038A00054EF1CF056EF1CF079EF1CF0D42B435072
:1038B000455C0F6E44504658106E46EC3BF00F507E
:1038C0000501AD5D1050AE59D8B069EF1CF06BEF3B
:1038D0001CF080EF1CF04350455C0F6E445046587E
:1038E000106E46EC3BF00FC5ADF510C5AEF580EFA0
:1038F0001CF0000E0501D46F000EAE6F000EAD6F10
:103900005350525CD8B087EF1CF089EF1CF0B5EF34
:103910001CF052C50FF5106AFF0E126EF90E116EF3
:10392000FCEC3CF05350070DF3C42AF5F4C42BF51E
:103930000F502A242C6E10502B202D6E43502C2615
:1039400044502D228C0E2C26000E2D2245502C5C2E
:1039500046502D58D8B0AFEF1CF0B1EF1CF018EF67
:103960001DF00501D72B18EF1DF0535052C52AF555
:103970002B6A2A5E000E2B5A2BBEC8EF1CF02B5070
:1039800009E1040E2A5CD8A0C8EF1CF0CAEF1CF0B5
:10399000F4EF1CF052C50FF5106AFF0E126EFB0E0D
:1039A000116EFCEC3CF05350050DF3C42AF5F4C441
:1039B0002BF50F502A242C6E10502B202D6E4350C7
:1039C0002C2644502D22780E2C26000E2D224550F8
:1039D0002C5C46502D58D8B0F0EF1CF0F2EF1CF0E4
:1039E00018EF1DF0B1EF1CF0535052C52AF52B6AA9
:1039F0002A5E000E2B5AD8902A362B36D8902A36BB
:103A00002B362A50435C2C6E2B5044582D6E640E7E
:103A10002C26000E2D2245502C5C46502D58D8B037
:103A200014EF1DF016EF1DF018EF1DF0B1EF1CF0B4
:103A3000480E455C030E4658D8A021EF1DF023EF39
:103A40001DF025EF1DF00501D62B53C552F545C5D8
:103A5000A5F646C5A6F6830E455C020E4658D8A0CC
:103A600034EF1DF036EF1DF0BFEF1DF0000E050125
:103A7000DD6FDE2B860E455C020E4658D8B043EF54
:103A80001DF045EF1DF04DEF1DF0040EDE654BEF10
:103A90001DF04DEF1DF033EF1EF0000EDE6F820EB5
:103AA00045240F6EFD0E4620106E000E126E0C0E99
:103AB000116E2CEC38F00F50546E5450D8A463EFB4
:103AC0001DF065EF1DF067EF1DF0010E546E5350B1
:103AD000D8B46DEF1DF06FEF1DF086EF1DF0000EF6
:103AE0000501D56F5450535CD8A079EF1DF07BEFE2
:103AF0001DF080EF1DF05450535C536E82EF1DF0AB
:103B0000000E536E28EC1FF033EF1EF01A0E5960B2
:103B10008CEF1DF08EEF1DF0A3EF1DF059505424D3
:103B2000596E180E596497EF1DF099EF1DF09BEF39
:103B30001DF0190E596E5950F8EC3DF0000E0501BC
:103B4000D56F33EF1EF0F80E455C020E4658D8B024
:103B5000ACEF1DF0AEEF1DF0B9EF1DF0B00E455CFF
:103B6000020E4658D8A0B7EF1DF0B9EF1DF09EEF3A
:103B70001DF00501D52B33EF1EF033EF1EF07C0E48
:103B8000455C020E4658D8B0C8EF1DF0CAEF1DF0D4
:103B900033EF1EF0000E0501DE6FDD2B7A0E455C63
:103BA000020E4658D8A0D7EF1DF0D9EF1DF0E1EF77
:103BB0001DF0040EDD65DFEF1DF0E1EF1DF033EFCA
:103BC0001EF0000EDD6F020E446E7E0E436E4550F9
:103BD000435C2A6E465044582B6E040E2C6ED890CF
:103BE0002B322A322C2EEFEF1DF02A50546E5450F7
:103BF000D8A4FDEF1DF0FFEF1DF001EF1EF0010E48
:103C0000546E7F0E536007EF1EF009EF1EF018EFA1
:103C10001EF053505424536E7E0E536412EF1EF068
:103C200014EF1EF082EF1DF07F0E536E82EF1DF039
:103C30005950D8B41EEF1EF020EF1EF0BDEF1DF05E
:103C40005450595CD8B027EF1EF029EF1EF02DEF2D
:103C50001EF0000E596E30EF1EF05450595C596E34
:103C60005950F8EC3DF0A00E0501A325D96E0F0EBA
:103C7000A421DA6E53C5DFF4FE0EA325D96E100E13
:103C8000A421DA6E59C5DFF42C0EA35D010EA459F0
:103C9000D8B04DEF1EF04FEF1EF051EF1EF0A34BCA
:103CA000A42B040ED76157EF1EF059EF1EF071EFF1
:103CB0001EF0030ED6615FEF1EF061EF1EF071EF94
:103CC0001EF0050ED56167EF1EF069EF1EF071EF73
:103CD0001EF0020ED4656FEF1EF071EF1EF027EF9D
:103CE0001FF04FEC3EF0BE92BE90000E3B6E000EF9
:103CF0003C6E000E3D6E000E3E6E060E5A6E555026
:103D0000D8A485EF1EF087EF1EF017EF14F0030E16
:103D1000556E20EE0AF05D50D9265E50DA22020E72
:103D2000DE6E000EDD6E20EE08F05D50D9265E508E
:103D3000DA22040EDE6E000EDD6E20EE0CF05D5019
:103D4000D9265E50DA22040EDE6E000EDD6E20EE05
:103D50000EF05D50D9265E50DA22640EDE6E000E43
:103D6000DD6E27EF1FF0090E5A6E010EF96FF40E8B
:103D7000F86F4FEC3EF0BE92BE9027EF1FF0BDEC07
:103D80003BF0E9EC3CF00009D8A4C9EF1EF0CBEF02
:103D90001EF0CDEF1EF065EC2FF0000E0501E76F71
:103DA000000EF96F320EF86F020E5A6E000EB86FE9
:103DB000000EB76F20EE0AF05D50D9265E50DA2271
:103DC0000A0EDE6E000EDD6E20EE08F05D50D92684
:103DD0005E50DA22000EDB82000ECD6F000E516EB7
:103DE000000ECC6F000ECB6F27EF1FF05A502A6EDB
:103DF0002B6A2B50000AD8B400EF1FF027EF1FF0FA
:103E00002A50000AD8B456EF13F0010AD8B456EF7E
:103E100013F0030AD8B45FEF13F0010AD8B419EF16
:103E200014F0070AD8B41EEF15F0010AD8B4E1EF78
:103E300016F0030AD8B441EF1BF0010AD8B4F8EF2A
:103E400016F00E0AD8B4BFEF1EF027EF1FF01200D5
:103E5000B5EF23F0C39EC39CC39AC398BF96BF948B
:103E6000BF92C2EF25F0C38EC39CC39AC398BF967E
:103E7000BF94BF92C2EF25F0C39EC38CC39AC39870
:103E8000BF96BF94BF92C2EF25F0C38EC38CC39A76
:103E9000C398BF96BF94BF92C2EF25F0C39EC39C48
:103EA000C38AC398BF96BF94BF92C2EF25F0C38E5A
:103EB000C39CC38AC398BF96BF94BF92C2EF25F03C
:103EC000C39EC38CC38AC398BF96BF94BF92C2EFF0
:103ED00025F0C38EC38CC38AC398BF96BF94BF928C
:103EE000C2EF25F0C39EC39CC39AC388BF96BF94FC
:103EF000BF92C2EF25F0C38EC39CC39AC388BF96FE
:103F0000BF94BF92C2EF25F0C39EC38CC39AC388EF
:103F1000BF96BF94BF92C2EF25F0C38EC38CC39AE5
:103F2000C388BF96BF94BF92C2EF25F0C39EC39CC7
:103F3000C38AC388BF96BF94BF92C2EF25F0C38ED9
:103F4000C39CC38AC388BF96BF94BF92C2EF25F0BB
:103F5000C39EC38CC38AC388BF96BF94BF92C2EF6F
:103F600025F0C38EC38CC38AC388BF96BF94BF920B
:103F7000C2EF25F0C39EC39CC39AC398BF86BF946B
:103F8000BF92C2EF25F0C38EC39CC39AC398BF866D
:103F9000BF94BF92C2EF25F0C39EC38CC39AC3984F
:103FA000BF86BF94BF92C2EF25F0C38EC38CC39A65
:103FB000C398BF86BF94BF92C2EF25F0C39EC39C37
:103FC000C38AC398BF86BF94BF92C2EF25F0C38E49
:103FD000C39CC38AC398BF86BF94BF92C2EF25F02B
:103FE000C39EC38CC38AC398BF86BF94BF92C2EFDF
:103FF00025F0C38EC38CC38AC398BF86BF94BF927B
:10400000C2EF25F0C39EC39CC39AC388BF86BF94EA
:10401000BF92C2EF25F0C38EC39CC39AC388BF86EC
:10402000BF94BF92C2EF25F0C39EC38CC39AC388CE
:10403000BF86BF94BF92C2EF25F0C38EC38CC39AD4
:10404000C388BF86BF94BF92C2EF25F0C39EC39CB6
:10405000C38AC388BF86BF94BF92C2EF25F0C38EC8
:10406000C39CC38AC388BF86BF94BF92C2EF25F0AA
:10407000C39EC38CC38AC388BF86BF94BF92C2EF5E
:1040800025F0C38EC38CC38AC388BF86BF94BF92FA
:10409000C2EF25F0C39EC39CC39AC398BF96BF844A
:1040A000BF92C2EF25F0C38EC39CC39AC398BF963C
:1040B000BF84BF92C2EF25F0C39EC38CC39AC3983E
:1040C000BF96BF84BF92C2EF25F0C38EC38CC39A44
:1040D000C398BF96BF84BF92C2EF25F0C39EC39C16
:1040E000C38AC398BF96BF84BF92C2EF25F0C38E28
:1040F000C39CC38AC398BF96BF84BF92C2EF25F00A
:10410000C39EC38CC38AC398BF96BF84BF92C2EFBD
:1041100025F0C38EC38CC38AC398BF96BF84BF9259
:10412000C2EF25F0C39EC39CC39AC388BF96BF84C9
:10413000BF92C2EF25F0C38EC39CC39AC388BF96BB
:10414000BF84BF92C2EF25F0C39EC38CC39AC388BD
:10415000BF96BF84BF92C2EF25F0C38EC38CC39AB3
:10416000C388BF96BF84BF92C2EF25F0C39EC39C95
:10417000C38AC388BF96BF84BF92C2EF25F0C38EA7
:10418000C39CC38AC388BF96BF84BF92C2EF25F089
:10419000C39EC38CC38AC388BF96BF84BF92C2EF3D
:1041A00025F0C38EC38CC38AC388BF96BF84BF92D9
:1041B000C2EF25F0C39EC39CC39AC398BF86BF8439
:1041C000BF92C2EF25F0C38EC39CC39AC398BF862B
:1041D000BF84BF92C2EF25F0C39EC38CC39AC3981D
:1041E000BF86BF84BF92C2EF25F0C38EC38CC39A33
:1041F000C398BF86BF84BF92C2EF25F0C39EC39C05
:10420000C38AC398BF86BF84BF92C2EF25F0C38E16
:10421000C39CC38AC398BF86BF84BF92C2EF25F0F8
:10422000C39EC38CC38AC398BF86BF84BF92C2EFAC
:1042300025F0C38EC38CC38AC398BF86BF84BF9248
:10424000C2EF25F0C39EC39CC39AC388BF86BF84B8
:10425000BF92C2EF25F0C38EC39CC39AC388BF86AA
:10426000BF84BF92C2EF25F0C39EC38CC39AC3889C
:10427000BF86BF84BF92C2EF25F0C38EC38CC39AA2
:10428000C388BF86BF84BF92C2EF25F0C39EC39C84
:10429000C38AC388BF86BF84BF92C2EF25F0C38E96
:1042A000C39CC38AC388BF86BF84BF92C2EF25F078
:1042B000C39EC38CC38AC388BF86BF84BF92C2EF2C
:1042C00025F0C38EC38CC38AC388BF86BF84BF92C8
:1042D000C2EF25F0C39EC39CC39AC398BF96BF94F8
:1042E000BF82C2EF25F0C38EC39CC39AC398BF960A
:1042F000BF94BF82C2EF25F0C39EC38CC39AC398FC
:10430000BF96BF94BF82C2EF25F0C38EC38CC39A01
:10431000C398BF96BF94BF82C2EF25F0C39EC39CD3
:10432000C38AC398BF96BF94BF82C2EF25F0C38EE5
:10433000C39CC38AC398BF96BF94BF82C2EF25F0C7
:10434000C39EC38CC38AC398BF96BF94BF82C2EF7B
:1043500025F0C38EC38CC38AC398BF96BF94BF8217
:10436000C2EF25F0C39EC39CC39AC388BF96BF9477
:10437000BF82C2EF25F0C38EC39CC39AC388BF9689
:10438000BF94BF82C2EF25F0C39EC38CC39AC3887B
:10439000BF96BF94BF82C2EF25F0C38EC38CC39A71
:1043A000C388BF96BF94BF82C2EF25F0C39EC39C53
:1043B000C38AC388BF96BF94BF82C2EF25F0C38E65
:1043C000C39CC38AC388BF96BF94BF82C2EF25F047
:1043D000C39EC38CC38AC388BF96BF94BF82C2EFFB
:1043E00025F0C38EC38CC38AC388BF96BF94BF8297
:1043F000C2EF25F0C39EC39CC39AC398BF86BF94E7
:10440000BF82C2EF25F0C38EC39CC39AC398BF86F8
:10441000BF94BF82C2EF25F0C39EC38CC39AC398DA
:10442000BF86BF94BF82C2EF25F0C38EC38CC39AF0
:10443000C398BF86BF94BF82C2EF25F0C39EC39CC2
:10444000C38AC398BF86BF94BF82C2EF25F0C38ED4
:10445000C39CC38AC398BF86BF94BF82C2EF25F0B6
:10446000C39EC38CC38AC398BF86BF94BF82C2EF6A
:1044700025F0C38EC38CC38AC398BF86BF94BF8206
:10448000C2EF25F0C39EC39CC39AC388BF86BF9466
:10449000BF82C2EF25F0C38EC39CC39AC388BF8678
:1044A000BF94BF82C2EF25F0C39EC38CC39AC3885A
:1044B000BF86BF94BF82C2EF25F0C38EC38CC39A60
:1044C000C388BF86BF94BF82C2EF25F0C39EC39C42
:1044D000C38AC388BF86BF94BF82C2EF25F0C38E54
:1044E000C39CC38AC388BF86BF94BF82C2EF25F036
:1044F000C39EC38CC38AC388BF86BF94BF82C2EFEA
:1045000025F0C38EC38CC38AC388BF86BF94BF8285
:10451000C2EF25F0C39EC39CC39AC398BF96BF84C5
:10452000BF82C2EF25F0C38EC39CC39AC398BF96C7
:10453000BF84BF82C2EF25F0C39EC38CC39AC398C9
:10454000BF96BF84BF82C2EF25F0C38EC38CC39ACF
:10455000C398BF96BF84BF82C2EF25F0C39EC39CA1
:10456000C38AC398BF96BF84BF82C2EF25F0C38EB3
:10457000C39CC38AC398BF96BF84BF82C2EF25F095
:10458000C39EC38CC38AC398BF96BF84BF82C2EF49
:1045900025F0C38EC38CC38AC398BF96BF84BF82E5
:1045A000C2EF25F0C39EC39CC39AC388BF96BF8445
:1045B000BF82C2EF25F0C38EC39CC39AC388BF9647
:1045C000BF84BF82C2EF25F0C39EC38CC39AC38849
:1045D000BF96BF84BF82C2EF25F0C38EC38CC39A3F
:1045E000C388BF96BF84BF82C2EF25F0C39EC39C21
:1045F000C38AC388BF96BF84BF82C2EF25F0C38E33
:10460000C39CC38AC388BF96BF84BF82C2EF25F014
:10461000C39EC38CC38AC388BF96BF84BF82C2EFC8
:1046200025F0C38EC38CC38AC388BF96BF84BF8264
:10463000C2EF25F0C39EC39CC39AC398BF86BF84B4
:10464000BF82C2EF25F0C38EC39CC39AC398BF86B6
:10465000BF84BF82C2EF25F0C39EC38CC39AC398A8
:10466000BF86BF84BF82C2EF25F0C38EC38CC39ABE
:10467000C398BF86BF84BF82C2EF25F0C39EC39C90
:10468000C38AC398BF86BF84BF82C2EF25F0C38EA2
:10469000C39CC38AC398BF86BF84BF82C2EF25F084
:1046A000C39EC38CC38AC398BF86BF84BF82C2EF38
:1046B00025F0C38EC38CC38AC398BF86BF84BF82D4
:1046C000C2EF25F0C39EC39CC39AC388BF86BF8434
:1046D000BF82C2EF25F0C38EC39CC39AC388BF8636
:1046E000BF84BF82C2EF25F0C39EC38CC39AC38828
:1046F000BF86BF84BF82C2EF25F0C38EC38CC39A2E
:10470000C388BF86BF84BF82C2EF25F0C39EC39C0F
:10471000C38AC388BF86BF84BF82C2EF25F0C38E21
:10472000C39CC38AC388BF86BF84BF82C2EF25F003
:10473000C39EC38CC38AC388BF86BF84BF82C2EFB7
:1047400025F0C38EC38CC38AC388BF86BF84BF8253
:10475000C2EF25F0000E536EC39EC39CC39AC3984C
:10476000BF96BF94BF92C2EF25F053500F6E106AF0
:104770001050000AD8B4BFEF23F0AAEF23F00F5077
:10478000000AD8B42AEF1FF0010AD8B433EF1FF0A3
:10479000030AD8B43CEF1FF0010AD8B445EF1FF06C
:1047A000070AD8B44EEF1FF0010AD8B457EF1FF034
:1047B000030AD8B460EF1FF0010AD8B469EF1FF004
:1047C0000F0AD8B472EF1FF0010AD8B47BEF1FF0C4
:1047D000030AD8B484EF1FF0010AD8B48DEF1FF09C
:1047E000070AD8B496EF1FF0010AD8B49FEF1FF064
:1047F000030AD8B4A8EF1FF0010AD8B4B1EF1FF034
:104800001F0AD8B4BAEF1FF0010AD8B4C3EF1FF0E3
:10481000030AD8B4CCEF1FF0010AD8B4D5EF1FF0CB
:10482000070AD8B4DEEF1FF0010AD8B4E7EF1FF093
:10483000030AD8B4F0EF1FF0010AD8B4F9EF1FF063
:104840000F0AD8B402EF20F0010AD8B40BEF20F021
:10485000030AD8B414EF20F0010AD8B41DEF20F0F9
:10486000070AD8B426EF20F0010AD8B42FEF20F0C1
:10487000030AD8B438EF20F0010AD8B441EF20F091
:104880003F0AD8B44AEF20F0010AD8B453EF20F021
:10489000030AD8B45CEF20F0010AD8B465EF20F029
:1048A000070AD8B46EEF20F0010AD8B477EF20F0F1
:1048B000030AD8B480EF20F0010AD8B489EF20F0C1
:1048C0000F0AD8B492EF20F0010AD8B49BEF20F081
:1048D000030AD8B4A4EF20F0010AD8B4ADEF20F059
:1048E000070AD8B4B6EF20F0010AD8B4BFEF20F021
:1048F000030AD8B4C8EF20F0010AD8B4D1EF20F0F1
:104900001F0AD8B4DAEF20F0010AD8B4E3EF20F0A0
:10491000030AD8B4ECEF20F0010AD8B4F5EF20F088
:10492000070AD8B4FEEF20F0010AD8B407EF21F04F
:10493000030AD8B410EF21F0010AD8B419EF21F01E
:104940000F0AD8B422EF21F0010AD8B42BEF21F0DE
:10495000030AD8B434EF21F0010AD8B43DEF21F0B6
:10496000070AD8B446EF21F0010AD8B44FEF21F07E
:10497000030AD8B458EF21F0010AD8B461EF21F04E
:104980007F0AD8B46AEF21F0010AD8B473EF21F09E
:10499000030AD8B47CEF21F0010AD8B485EF21F0E6
:1049A000070AD8B48EEF21F0010AD8B497EF21F0AE
:1049B000030AD8B4A0EF21F0010AD8B4A9EF21F07E
:1049C0000F0AD8B4B2EF21F0010AD8B4BBEF21F03E
:1049D000030AD8B4C4EF21F0010AD8B4CDEF21F016
:1049E000070AD8B4D6EF21F0010AD8B4DFEF21F0DE
:1049F000030AD8B4E8EF21F0010AD8B4F1EF21F0AE
:104A00001F0AD8B4FAEF21F0010AD8B403EF22F05C
:104A1000030AD8B40CEF22F0010AD8B415EF22F043
:104A2000070AD8B41EEF22F0010AD8B427EF22F00B
:104A3000030AD8B430EF22F0010AD8B439EF22F0DB
:104A40000F0AD8B442EF22F0010AD8B44BEF22F09B
:104A5000030AD8B454EF22F0010AD8B45DEF22F073
:104A6000070AD8B466EF22F0010AD8B46FEF22F03B
:104A7000030AD8B478EF22F0010AD8B481EF22F00B
:104A80003F0AD8B48AEF22F0010AD8B493EF22F09B
:104A9000030AD8B49CEF22F0010AD8B4A5EF22F0A3
:104AA000070AD8B4AEEF22F0010AD8B4B7EF22F06B
:104AB000030AD8B4C0EF22F0010AD8B4C9EF22F03B
:104AC0000F0AD8B4D2EF22F0010AD8B4DBEF22F0FB
:104AD000030AD8B4E4EF22F0010AD8B4EDEF22F0D3
:104AE000070AD8B4F6EF22F0010AD8B4FFEF22F09B
:104AF000030AD8B408EF23F0010AD8B411EF23F069
:104B00001F0AD8B41AEF23F0010AD8B423EF23F018
:104B1000030AD8B42CEF23F0010AD8B435EF23F000
:104B2000070AD8B43EEF23F0010AD8B447EF23F0C8
:104B3000030AD8B450EF23F0010AD8B459EF23F098
:104B40000F0AD8B462EF23F0010AD8B46BEF23F058
:104B5000030AD8B474EF23F0010AD8B47DEF23F030
:104B6000070AD8B486EF23F0010AD8B48FEF23F0F8
:104B7000030AD8B498EF23F0010AD8B4A1EF23F0C8
:104B8000AAEF23F01200010E3F26000E4022412220
:104B90004222000E0501ED6F3B503C103D103E10CF
:104BA000D8B4D5EF25F0D7EF25F02BEF26F0010E86
:104BB00006019427000E9523962397233B503F5CD4
:104BC0003C5040583D5041583E504258D8A0EBEF21
:104BD00025F0EDEF25F02BEF26F073EC3EF0BE92C2
:104BE000BE905550D8A4F7EF25F0F9EF25F023EF4C
:104BF00026F0030E556E20EE0AF05D50D9265E5069
:104C0000DA22020EDE6E000EDD6E20EE08F05D5040
:104C1000D9265E50DA22040EDE6E000EDD6E20EE26
:104C20000CF05D50D9265E50DA22040EDE6E000EC6
:104C3000DD6E20EE0EF05D50D9265E50DA22640E55
:104C4000DE6E000EDD6E000E3B6E000E3C6E000E42
:104C50003D6E000E3E6E20EE12F05D50D9265E5085
:104C6000DA22DE50DE10D8B438EF26F03AEF26F024
:104C700054EF26F020EE12F05D50D9265E50DA2275
:104C8000DE06000EDD5ADE50DE10D8A44AEF26F014
:104C90004CEF26F054EF26F020EE10F05D50D926B0
:104CA0005E50DA22010EDB8E20EE2AF05D50D9260E
:104CB0005E50DA22DE50DE10D8B461EF26F063EFEA
:104CC00026F07DEF26F020EE2AF05D50D9265E50CA
:104CD000DA22DE06000EDD5ADE50DE10D8A473EFB5
:104CE00026F075EF26F07DEF26F020EE28F05D50DF
:104CF000D9265E50DA22010EDB8E20EE02F05D50E6
:104D0000D9265E50DA22DE50DE10D8B48AEF26F0C3
:104D10008CEF26F0C8EF26F020EE02F05D50D92689
:104D20005E50DA22DE06000EDD5ADE50DE10D8A418
:104D30009CEF26F09EEF26F0C8EF26F05DC5D9F473
:104D40005EC5DAF4010EDB8E20EE02F05D50D9264E
:104D50005E50DA22140EDE6E000EDD6E3B503C100B
:104D60003D103E10D8A4B7EF26F0B9EF26F0C8EFFB
:104D700026F00501FC05D8A4C0EF26F0C2EF26F00E
:104D8000C8EF26F0EFEC2FF00501FC6FC8EF26F01E
:104D900020EE0AF05D50D9265E50DA22DE50DE1099
:104DA000D8B4D5EF26F0D7EF26F0F1EF26F020EEBD
:104DB0000AF05D50D9265E50DA22DE06000EDD5A7A
:104DC000DE50DE10D8A4E7EF26F0E9EF26F0F1EF91
:104DD00026F020EE08F05D50D9265E50DA22010E52
:104DE000DB8E20EE1AF05D50D9265E50DA22DE50BE
:104DF000DE10D8B4FEEF26F000EF27F01AEF27F010
:104E000020EE1AF05D50D9265E50DA22DE06000E42
:104E1000DD5ADE50DE10D8A410EF27F012EF27F095
:104E20001AEF27F020EE18F05D50D9265E50DA22F6
:104E3000010EDB8E20EE32F05D50D9265E50DA2274
:104E4000DE50DE10D8B427EF27F029EF27F043EF2C
:104E500027F020EE32F05D50D9265E50DA22DE06D1
:104E6000000EDD5ADE50DE10D8A439EF27F03BEFFC
:104E700027F043EF27F020EE30F05D50D9265E504A
:104E8000DA22010EDB8E20EE42F05D50D9265E5014
:104E9000DA22DE50DE10D8B450EF27F052EF27F0C0
:104EA0006CEF27F020EE42F05D50D9265E50DA22FA
:104EB000DE06000EDD5ADE50DE10D8A462EF27F0C9
:104EC00064EF27F06CEF27F020EE40F05D50D9261C
:104ED0005E50DA22010EDB8E20EE4AF05D50D926BC
:104EE0005E50DA22DE50DE10D8B479EF27F07BEF87
:104EF00027F095EF27F020EE4AF05D50D9265E505E
:104F0000DA22DE06000EDD5ADE50DE10D8A48BEF6A
:104F100027F08DEF27F095EF27F020EE48F05D5059
:104F2000D9265E50DA22010EDB8E20EE3AF05D507B
:104F3000D9265E50DA22DE50DE10D8B4A2EF27F078
:104F4000A4EF27F0BEEF27F020EE3AF05D50D9260F
:104F50005E50DA22DE06000EDD5ADE50DE10D8A4E6
:104F6000B4EF27F0B6EF27F0BEEF27F020EE38F0D1
:104F70005D50D9265E50DA22010EDB8E20EE22F043
:104F80005D50D9265E50DA22DE50DE10D8B4CBEF69
:104F900027F0CDEF27F0E7EF27F020EE22F05D506D
:104FA000D9265E50DA22DE06000EDD5ADE50DE1013
:104FB000D8A4DDEF27F0DFEF27F0E7EF27F020EEB2
:104FC00020F05D50D9265E50DA22010EDB8E1200F1
:104FD00020EE10F05D50D9265E50DA22DEC42FF5A7
:104FE000DDC430F530AEF7EF27F0F9EF27F00FEF23
:104FF00028F020EE10F05D50D9265E50DA22000E27
:10500000DE1A800EDD1A20EE12F05D50D9265E50B9
:10501000DA22960EDE6E000EDD6E0EEC2CF020EE27
:1050200028F05D50D9265E50DA22DEC42FF5DDC4AB
:1050300030F530AE1EEF28F020EF28F049EF28F0D1
:1050400020EE28F05D50D9265E50DA22000EDE1ADE
:10505000800EDD1AD1A82FEF28F031EF28F03DEFB8
:1050600028F020EE2AF05D50D9265E50DA22640E38
:10507000DE6E000EDD6E49EF28F020EE2AF05D5066
:10508000D9265E50DA22E80EDE6E030EDD6E3BECB2
:105090002AF020EE08F05D50D9265E50DA22DEC4F8
:1050A0002FF5DDC430F530AE58EF28F05AEF28F078
:1050B00066EF28F020EE08F05D50D9265E50DA2227
:1050C000000EDE1A800EDD1A14EC29F05DC5D9F44D
:1050D0005EC5DAF4DEC42FF5DDC430F530AE73EF13
:1050E00028F075EF28F081EF28F05DC5D9F45EC592
:1050F000DAF4000EDE1A800EDD1A2EEC34F0EAEC43
:105100003DF020EE18F05D50D9265E50DA22DEC464
:105110002FF5DDC430F530AE90EF28F092EF28F097
:10512000A8EF28F020EE18F05D50D9265E50DA2264
:10513000000EDE1A800EDD1A52EC13F020EE1AF08B
:105140005D50D9265E50DA22F8C5DEF4F9C5DDF4EB
:1051500020EE38F05D50D9265E50DA22DEC42FF5FD
:10516000DDC430F530AEB7EF28F0B9EF28F0CFEF5F
:1051700028F020EE38F05D50D9265E50DA22000E7D
:10518000DE1A800EDD1A20EE3AF05D50D9265E5010
:10519000DA22640EDE6E000EDD6E14EC3EF020EEC0
:1051A00048F05D50D9265E50DA22DEC42FF5DDC40A
:1051B00030F530AEDEEF28F0E0EF28F0ECEF28F02D
:1051C00020EE48F05D50D9265E50DA22000EDE1A3D
:1051D000800EDD1A56EC3DF020EE50F05D50D926E1
:1051E0005E50DA22DEC42FF5DDC430F530AEFBEFC1
:1051F00028F0FDEF28F013EF29F020EE50F05D507D
:10520000D9265E50DA22000EDE1A800EDD1A20EE5C
:1052100052F05D50D9265E50DA22640EDE6E000E2A
:10522000DD6EADEC39F0120020EE0CF05D50D926A9
:105230005E50DA22DF50136EC5C615F54A0E1564AE
:1052400024EF29F026EF29F02AEF29F0010E146E41
:1052500068EF29F04C0E156030EF29F032EF29F09D
:105260003EEF29F0320E156438EF29F03AEF29F0BD
:105270003EEF29F0020E146E68EF29F0330E156030
:1052800044EF29F046EF29F052EF29F0190E15648A
:105290004CEF29F04EEF29F052EF29F0030E146E77
:1052A00068EF29F01A0E156058EF29F05AEF29F02F
:1052B00066EF29F01550D8B460EF29F062EF29F0BD
:1052C00066EF29F0040E146E68EF29F0050E146ED7
:1052D00020EE08F05D50D9265E50DA22DEC411F5CA
:1052E000DDC412F511A477EF29F079EF29F0F0EF82
:1052F00029F0000E0F6E010E4AEC2EF013A083EF82
:1053000029F085EF29F09DEF29F0050E1418D8A497
:105310008CEF29F08EEF29F096EF29F01304D8B422
:1053200094EF29F096EF29F0A2EF29F0010E0F6E0D
:1053300014504AEC2EF0A2EF29F0000E0F6E14501C
:105340004AEC2EF01350D8B4A8EF29F0AAEF29F0B8
:10535000E1EF29F0132ED1EF29F020EE08F05D5097
:10536000D9265E50DA22040EDE1A000EDD1A20EE77
:105370000AF05D50D9265E50DA22DE6ADD6A20EE40
:105380000CF05D50D9265E50DA22DE6ADD6A20EE2E
:105390000EF05D50D9265E50DA22DE6ADD6AE1EF5A
:1053A00029F020EE0EF05D50D9265E50DA2210EE84
:1053B0000AF05D50E1265E50E222DEC4E6F4DDC470
:1053C000E5F41350116E126A20EE0CF05D50D926F0
:1053D0005E50DA2211C5DEF412C5DDF43AEF2AF090
:1053E00020EE08F05D50D9265E50DA22DEC411F5B9
:1053F000DDC412F511A2FFEF29F001EF2AF03AEF18
:105400002AF020EE08F05D50D9265E50DA22020E16
:10541000DE1A000EDD1A000E0F6E010E4AEC2EF0A1
:1054200019EF2AF0010E0F6E14504AEC2EF03AEFED
:105430002AF01450116E126A1250000AD8B423EFE9
:105440002AF03AEF2AF01150010AD8B412EF2AF0EC
:10545000030AD8B412EF2AF0010AD8B412EF2AF0E6
:10546000070AD8B412EF2AF0010AD8B43AEF2AF0AA
:105470003AEF2AF01200020E5A18D8B442EF2AF07E
:1054800044EF2AF046EF2AF039EF2BF058C522F509
:10549000170EA5EC3EF05C04D8B451EF2AF053EFA0
:1054A0002AF04BEF2AF0170EE2EC31F014C547F565
:1054B00015C548F5B20E475C0C0E4858D8A063EFEE
:1054C0002AF065EF2AF069EF2AF0050E586EB9EF61
:1054D0002AF0B20E475C0C0E4858D8B072EF2AF092
:1054E00074EF2AF083EF2AF0300E475C0C0E485818
:1054F000D8A07DEF2AF07FEF2AF083EF2AF0040E88
:10550000586EB9EF2AF0300E475C0C0E4858D8B0F0
:105510008CEF2AF08EEF2AF09DEF2AF0B80E475C50
:105520000B0E4858D8A097EF2AF099EF2AF09DEF7C
:105530002AF0030E586EB9EF2AF0B80E475C0B0E36
:105540004858D8B0A6EF2AF0A8EF2AF0B7EF2AF013
:10555000BE0E475C0A0E4858D8A0B1EF2AF0B3EF50
:105560002AF0B7EF2AF0020E586EB9EF2AF0010EBA
:10557000586E58502218D8A4C0EF2AF0C2EF2AF073
:10558000C7EF2AF0000E0501E16FDDEF2AF00501FB
:10559000E12B030EE161CFEF2AF0D1EF2AF0DDEF2E
:1055A0002AF02250D8B4D7EF2AF0D9EF2AF0DDEF55
:1055B0002AF022C558F539EF2BF0000EE16F575055
:1055C000D8B4E5EF2AF0E7EF2AF0F3EF2AF020EE67
:1055D0002AF05D50D9265E50DA22E80EDE6E030E08
:1055E000DD6E39EF2BF0BE8ABE86BE88C280C282D5
:1055F000C284050E5818D8A400EF2BF002EF2BF050
:1056000008EF2BF0BE96C290C292C29439EF2BF0F5
:10561000040E5818D8A40FEF2BF011EF2BF016EF53
:105620002BF0BE96C290C29239EF2BF0030E5818A1
:10563000D8A41DEF2BF01FEF2BF023EF2BF0BE961D
:10564000C29039EF2BF0020E5818D8A42AEF2BF095
:105650002CEF2BF030EF2BF0BE9ABE9639EF2BF0EB
:105660005804D8A436EF2BF038EF2BF039EF2BF09D
:10567000BE9A1200000E0501E16F58C522F5170E03
:10568000A5EC3EF05C04D8B448EF2BF04AEF2BF0C9
:1056900042EF2BF0170EE2EC31F014C547F515C5BB
:1056A00048F5B20E475C0C0E4858D8A05AEF2BF0C4
:1056B0005CEF2BF060EF2BF0050E586EB0EF2BF087
:1056C000B20E475C0C0E4858D8B069EF2BF06BEF68
:1056D0002BF07AEF2BF0300E475C0C0E4858D8A018
:1056E00074EF2BF076EF2BF07AEF2BF0040E586E60
:1056F000B0EF2BF0300E475C0C0E4858D8B083EF5B
:105700002BF085EF2BF094EF2BF0B80E475C0B0ECF
:105710004858D8A08EEF2BF090EF2BF094EF2BF0A1
:10572000030E586EB0EF2BF0B80E475C0B0E4858C6
:10573000D8B09DEF2BF09FEF2BF0AEEF2BF0BE0E0D
:10574000475C0A0E4858D8A0A8EF2BF0AAEF2BF020
:10575000AEEF2BF0020E586EB0EF2BF0010E586E2C
:1057600058502218D8A4B7EF2BF0B9EF2BF03AEF2E
:105770002BF00501E12B030EE161C1EF2BF0C3EF2C
:105780002BF0C5EF2BF03DEF2BF0000EE16FBE8A42
:10579000BE86BE88C280C282C284050E5818D8A4B4
:1057A000D4EF2BF0D6EF2BF0DCEF2BF0BE96C290AF
:1057B000C292C2940DEF2CF0040E5818D8A4E3EF57
:1057C0002BF0E5EF2BF0EAEF2BF0BE96C290C292E1
:1057D0000DEF2CF0030E5818D8A4F1EF2BF0F3EFD7
:1057E0002BF0F7EF2BF0BE96C2900DEF2CF0020ECF
:1057F0005818D8A4FEEF2BF000EF2CF004EF2CF09B
:10580000BE9ABE960DEF2CF05804D8A40AEF2CF0E7
:105810000CEF2CF00DEF2CF0BE9A120057C517F5C7
:10582000000E576ED1A817EF2CF019EF2CF04FEFA8
:105830002CF0000E106E030E0F6E6DEC3CF0000E9F
:10584000D1B8010E156E000ED1BA010E166E1504F8
:10585000D8A42DEF2CF02FEF2CF052EF2CF020EEEF
:105860004AF05D50D9265E50DA22DE6ADD6A20EE0B
:1058700048F05D50D9265E50DA22DE6ADD6A1650A5
:10588000D8A445EF2CF047EF2CF04BEF2CF0010E95
:10589000576E52EF2CF0020E576E52EF2CF0000EA6
:1058A0000501E06F17505718D8B459EF2CF05BEF93
:1058B0002CF06DEF2CF020EE0AF05D50D9265E50F2
:1058C000DA22050EDE6E000EDD6E20EE08F05D5071
:1058D000D9265E50DA22000EDB825704D8A473EF7B
:1058E0002CF075EF2CF0BCEF2CF020EE12F05D5098
:1058F000D9265E50DA22F40EDE6E010EDD6E050151
:10590000E02B050EE06587EF2CF089EF2CF09FEF80
:105910002CF0010EE06F9FEF2CF0BE8ABE86BE8891
:10592000C280C282C284BE96CEEF2CF0C290CEEF6F
:105930002CF0C292CEEF2CF0C294CEEF2CF0E051BE
:10594000136E146A1450000AD8B4A9EF2CF0CEEFED
:105950002CF01350010AD8B48DEF2CF0030AD8B400
:1059600096EF2CF0010AD8B499EF2CF0070AD8B4BE
:105970009CEF2CF0CEEF2CF0020E5718D8A4C3EFFA
:105980002CF0C5EF2CF0CEEF2CF0000E0501E06FEF
:10599000BE8ABE88BE96C290C292C294120020EE09
:1059A00012F05D50D9265E50DA220A0EDE6E000E2D
:1059B000DD6E20EE2AF05D50D9265E50DA22640EAC
:1059C000DE6E000EDD6E20EE02F05D50D9265E50D8
:1059D000DA22140EDE6E000EDD6E20EE0AF05D504F
:1059E000D9265E50DA224B0EDE6E000EDD6E20EE02
:1059F0001AF05D50D9265E50DA22140EDE6E000ECB
:105A0000DD6E20EE32F05D50D9265E50DA22D00EE7
:105A1000DE6E070EDD6E20EE3AF05D50D9265E5048
:105A2000DA22640EDE6E000EDD6E20EE52F05D5066
:105A3000D9265E50DA22E80EDE6E030EDD6E20EE11
:105A400028F05D50D9265E50DA22000EDE6E800E00
:105A5000DD6E20EE08F05D50D9265E50DA22020E8F
:105A6000DE6E800EDD6E5DC5D9F45EC5DAF4DE6AE9
:105A7000DD6A20EE18F05D50D9265E50DA22DE6A2B
:105A8000DD6A20EE30F05D50D9265E50DA22DE6A03
:105A9000DD6A20EE38F05D50D9265E50DA22010E24
:105AA000DE6E000EDD6E20EE50F05D50D9265E50A9
:105AB000DA22040EDE6E000EDD6E0501EA81010EB3
:105AC000B66F400EB56F020E5A6EA00E566EAB0E3C
:105AD0000601FE6F060EFF6F000EAE6F640EAD6F17
:105AE000000EB06F000EAF6F640EC56F000EC66F74
:105AF000000EC76F000EC86FDCEC3DF04FEC3EF0BF
:105B0000BE92BE9026EC3BF03AEC2BF090EC35F0D8
:105B1000610089F4ECF361008DF4EDF312000FC520
:105B200019F510C51AF513501410D8A49AEF2DF0DA
:105B30009CEF2DF09EEF2DF049EF2EF019C5D9F412
:105B40001AC5DAF411C5DFF413501924156E145078
:105B50001A20166EFF0E1524D96EFF0E1620DA6E6F
:105B600011C5DFF4145007E1030E135CD8B0BBEF8E
:105B70002DF0BDEF2DF0BFEF2DF049EF2EF020EE10
:105B800001F01950D9261A50DA2211C5DFF420EE9F
:105B900002F01950D9261A50DA2211C5DFF4135039
:105BA0001924156E14501A20166EFE0E1524D96E87
:105BB000FF0E1620DA6E11C5DFF413501924156E8E
:105BC00014501A20166EFD0E1524D96EFF0E1620E5
:105BD000DA6E11C5DFF4145007E1070E135CD8B07C
:105BE000F4EF2DF0F6EF2DF0F8EF2DF049EF2EF059
:105BF00020EE03F01950D9261A50DA2211C5DFF42D
:105C000013501924156E14501A20166EFC0E15240C
:105C1000D96EFF0E1620DA6E11C5DFF4145007E1BD
:105C2000090E135CD8B017EF2EF019EF2EF01BEF12
:105C30002EF049EF2EF019C515F51AC516F5151EEB
:105C4000161E154A162A030E1514176E186A1750D9
:105C5000192618501A221750135E1850145AFC0EA9
:105C60001316FF0E141640EF2EF019C5D9F41AC5FD
:105C7000DAF411C5DFF41306D8A01406194A1A2A5B
:105C800013501410D8A447EF2EF049EF2EF035EF43
:105C90002EF01200106E0F04D8A451EF2EF053EF27
:105CA0002EF093EF2EF01004D8B459EF2EF05BEFE6
:105CB0002EF064EF2EF0050E1018D8A462EF2EF02F
:105CC00064EF2EF06AEF2EF0C09AC098C196C1948E
:105CD000D7EF2EF0020E1018D8A471EF2EF073EF4C
:105CE0002EF078EF2EF0C09AC098C196D7EF2EF024
:105CF000030E1018D8A47FEF2EF081EF2EF085EF61
:105D00002EF0C09AC098D7EF2EF0040E1018D8A429
:105D10008CEF2EF08EEF2EF091EF2EF0C09AD7EF91
:105D20002EF0D7EF2EF00F50D8A499EF2EF09BEF66
:105D30002EF0D7EF2EF01004D8B4A1EF2EF0A3EF81
:105D40002EF0ACEF2EF0050E1018D8A4AAEF2EF00E
:105D5000ACEF2EF0B2EF2EF0C08AC088C186C184AD
:105D6000D7EF2EF0020E1018D8A4B9EF2EF0BBEF2B
:105D70002EF0C0EF2EF0C08AC088C186D7EF2EF07B
:105D8000030E1018D8A4C7EF2EF0C9EF2EF0CDEFF8
:105D90002EF0C08AC088D7EF2EF0040E1018D8A4B9
:105DA000D4EF2EF0D6EF2EF0D7EF2EF0C08A1200EF
:105DB000D8C40CF5FAC40DF5FBC40EF59EAEE3EFA6
:105DC0002EF0E5EF2EF0EEEF2EF0AEAEEAEF2EF075
:105DD000ECEF2EF0EEEF2EF0A8EC3EF0A7A2F3EFE2
:105DE0002EF0F5EF2EF00AEF2FF0B7A2FAEF2EF01B
:105DF000FCEF2EF00AEF2FF002D80AEF2FF005008B
:105E0000FA6E05019B51FD6E9C51FE6E9D51FF6E19
:105E1000FA501200A7A40FEF2FF011EF2FF026EF8A
:105E20002FF0B7A416EF2FF018EF2FF026EF2FF07A
:105E300002D826EF2FF00500FA6E05019551FD6E90
:105E40009651FE6E9751FF6EFA501200A6A22BEFEC
:105E50002FF02DEF2FF042EF2FF0B6A232EF2FF000
:105E600034EF2FF042EF2FF002D842EF2FF0050071
:105E7000FA6E0601F851FD6EF951FE6EFA51FF6E91
:105E8000FA501200A6A447EF2FF049EF2FF05EEF73
:105E90002FF0B6A44EEF2FF050EF2FF05EEF2FF063
:105EA00002D85EEF2FF00500FA6E0601F251FD6E8A
:105EB000F351FE6EF451FF6EFA5012000EC5FBF462
:105EC0000DC5FAF40CC5D8F4110024EEECF3DE2A6B
:105ED000000EDD226100DDF4F2F36100E1F4F3F382
:105EE0006100E5F4F4F36100E9F4F5F361001DF5F8
:105EF000FCF3610021F5FDF36100FDF4F6F36100B0
:105F000001F5F7F3610005F5F8F3610009F5F9F320
:105F1000610051FAFAF3610055FAFBF3000E1E6EB0
:105F20001E50020D600EF324D96E090EF420DA6EB5
:105F30001E50020D620EF324E16E140EF420E26E88
:105F4000DEC4E6F4DDC4E5F41E2A4F0E1E64ABEF9A
:105F50002FF0ADEF2FF090EF2FF0EC0E186E130E28
:105F6000196EEFEC36F0000E0601946F000E956F7F
:105F7000000E966F000E976F000E6100A1F3FAF30A
:105F8000000E6100A1F3FBF3FE0E0F6E130E106EF8
:105F9000000E126E000E116E000E146E640E136E63
:105FA0008FEC2DF0020E0F6E150E106E000E126E9D
:105FB000000E116E000E146E640E136E8FEC2DF039
:105FC000620E0F6E140E106E000E126E000E116E29
:105FD000000E146EA00E136E8FEC2DF01200EB0E5F
:105FE000056E060E066E000ED3B0010E046E05C5DA
:105FF000D9F406C5DAF40450DE18D8A402EF30F064
:1060000004EF30F00DEF30F020EE02F00550D9260D
:106010000650DA22DE2A000EDD2205C5D9F406C5B7
:10602000DAF404C5DFF40450D8B419EF30F01BEFF4
:1060300030F057EF30F020EE02F00550D926065030
:10604000DA22010EDB5009E1030EDE5CD8A02BEF53
:1060500030F02DEF30F04BEF30F020EE02F0055035
:10606000D9260650DA22010EDB5007E1330EDE5C42
:10607000D8B03DEF30F03FEF30F04BEF30F020EE96
:1060800002F00550D9260650DA22DE6ADD6A050ED6
:10609000036E6FEF30F020EE02F00550D926065067
:1060A000DA22DE6ADD6A010E036E6FEF30F020EE59
:1060B00002F00550D9260650DA22010EDB5009E124
:1060C000970EDE5CD8A067EF30F069EF30F06DEF2F
:1060D00030F0040E036E6FEF30F0020E036E0350CB
:1060E0001200000EBE6E000EBF6E000EC06E000EDF
:1060F000C16E000EC26E000EC36EC00EC66EC70E1D
:10610000C76ECB0EC86EB00EC96E080ECA6E0D0EED
:10611000CB6EC00E0401006FF70E086FCB0E106F30
:10612000000E186F000E206F080E286F000E016F12
:10613000000E096F000E116F300E196F000E216FE7
:10614000010E296F000E026F000E0A6F000E126F13
:10615000030E1A6F000E226F000E2A6F03690B697F
:106160001369CC0E1B6F070E236FFE0E2B6F046995
:106170000C6914691C690F0E246F2C69000E020152
:10618000896F000E886F000E876F000E866F1F0EDE
:10619000746F2A0E766F230E1F6F090E0E6F0A0E94
:1061A0000D6F260E2A6F000E0401056F000E066F9C
:1061B000000E076F000E0D6F000E0E6F000E0F6FBA
:1061C000000E156F000E166F000E176F000E256F74
:1061D000000E266F000E276F12004E50020D400E6B
:1061E000F324D96E060EF420DA6EDE6ADD6A02014F
:1061F000D8A7FDEF30F0FFEF30F021EF31F04E5037
:10620000020D400EF324D96E060EF420DA6E06015C
:10621000DF82050189518A118B11D8B412EF31F058
:1062200014EF31F021EF31F002D821EF31F0050009
:10623000FA6E8951FD6E8A51FE6E8B51FF6EFA50D7
:1062400012000201D8A327EF31F029EF31F04BEF14
:1062500031F04E50020D400EF324D96E060EF4209C
:10626000DA6E0601DF840501865187118811D8B4E2
:106270003CEF31F03EEF31F04BEF31F002D84BEF15
:1062800031F00500FA6E8651FD6E8751FE6E885121
:10629000FF6EFA501200C7C201F54E281F0B026EA6
:1062A0004D500218D8A457EF31F059EF31F05BEFA1
:1062B00031F067EF31F0600E4E24D96EDA6A070EC6
:1062C000DA2201C5DFF402C54EF50501C22B12002A
:1062D0004C50020D000EF324D96E060EF420DA6E37
:1062E000DE6ADD6A0201C5A778EF31F07AEF31F09E
:1062F0009CEF31F04C50020D000EF324D96E060EC7
:10630000F420DA6E0601DF820501775178117911E8
:10631000D8B48DEF31F08FEF31F09CEF31F002D82F
:106320009CEF31F00500FA6E7751FD6E7851FE6EEC
:106330007951FF6EFA5012000201C5A3A2EF31F0AD
:10634000A4EF31F0C6EF31F04C50020D000EF324F3
:10635000D96E060EF420DA6E0601DF840501745151
:1063600075117611D8B4B7EF31F0B9EF31F0C6EF4F
:1063700031F002D8C6EF31F00500FA6E7451FD6EAF
:106380007551FE6E7651FF6EFA501200B4C201F5DF
:106390004C281F0B026E4B500218D8A4D2EF31F0DC
:1063A000D4EF31F0D6EF31F0E1EF31F0400E4C2474
:1063B000D96EDA6A070EDA2201C5DFF402C54CF5A0
:1063C0005B2A1200186E000E1E6E000E1D6E185015
:1063D00056EC3CF0000E1A6E000E196E100E1C6E7C
:1063E000000E1B6E000E1F6E185056EC3CF00FC5D1
:1063F00020F510C521F52050195C21501A58D8B04D
:1064000004EF32F006EF32F00CEF32F020C519F550
:1064100021C51AF51BEF32F01B50205C1C5021588F
:10642000D8B015EF32F017EF32F01BEF32F020C585
:106430001BF521C51CF520501D2621501E221F2AA8
:10644000090E1F6426EF32F028EF32F0F4EF31F03E
:1064500019C516F51AC517F5161E171E164A172A5E
:106460001B50165E1C50175A1D5016241D6E1E50D0
:1064700017201E6E1DC516F51EC517F5D8901732CC
:106480001632D89017321632D8901732163216C5F7
:1064900014F517C515F51200000E356E230E3524C0
:1064A000D96EDA6A050EDA22DF6A352A110E3564F2
:1064B0005CEF32F05EEF32F04EEF32F0360E206ECF
:1064C0007C0E1F6EADEC3CF00009D8B46AEF32F0E0
:1064D0006CEF32F0ABEF32F0E10E206E020E1F6E69
:1064E000ADEC3CF00009D8B478EF32F07AEF32F03E
:1064F000ABEF32F0030E66EC36F0230E186E050E8D
:10650000196E120E1A6EC1EC3CF0030ECDEC3DF08C
:10651000230E0F6E050E106E020E116EDDEC39F0BB
:106520002518D8A496EF32F098EF32F0ABEF32F0A6
:10653000260E0F6E050E106E020E116EDDEC39F098
:106540002818D8A4A6EF32F0A8EF32F0ABEF32F063
:10655000010EACEF32F0000E1200FAC409F5FBC4D4
:106560000AF5A1A8B6EF32F0B8EF32F0C1EF32F081
:10657000B1A8BDEF32F0BFEF32F0C1EF32F004EC62
:106580003BF0A7A0C6EF32F0C8EF32F0DDEF32F0FB
:10659000B7A0CDEF32F0CFEF32F0DDEF32F002D81E
:1065A000DDEF32F00500FA6E05019851FD6E99514C
:1065B000FE6E9A51FF6EFA501200A6A0E2EF32F082
:1065C000E4EF32F0F9EF32F0B6A0E9EF32F0EBEFA2
:1065D00032F0F9EF32F002D8F9EF32F00500FA6E3E
:1065E0000601F551FD6EF651FE6EF751FF6EFA5041
:1065F00012009FA4FEEF32F000EF33F009EF33F00A
:10660000AFA405EF33F007EF33F009EF33F0F4EC0C
:106610003BF00AC5FBF409C5FAF41100480EF66E0A
:106620007D0EF76E000EF86E0900F5C4FEF6090047
:10663000F5C4FFF6100EF66E7D0EF76E000EF86EC6
:1066400001EEF6F110EE09F00900F5C4EEF4E550A4
:10665000E150FAE1460EF66E7D0EF76E000EF86E12
:106660000900F5C45DF50900F5C45EF502EE60F1C0
:1066700013EE06F0EE6AE550E150FCE1E250FAE17B
:1066800002EE00F1600EEE6AE806FDE102EE00F0B7
:10669000BC0EEE6AE806FDE101EE00F3CB0EEE6AF9
:1066A000E806FDE101EE00F2EF0EEE6AE806FDE11C
:1066B00001EE60F1960EEE6AE806FDE101EE37F1BB
:1066C000260EEE6AE806FDE10401080E5D6F000E7D
:1066D0005E6F000E5F6F00010FEF3DF0A790DA0EC6
:1066E0000501986F610E996F000E9A6FA792060EC2
:1066F0009B6F770E9C6F000E9D6FA794140E956F85
:10670000690E966F000E976F000E0201C76F000EA4
:10671000C96F000ECB6F000ECD6F000ECF6FB00EA5
:10672000D16F800ED26F000ED36FA00ED46F010E0A
:10673000D56F200ED66F000ED76F800ED86F000E6B
:10674000D96FDA0E0F6E7C0E106E000E116E89EC92
:106750003DF0580E0F6E7D0E106E000E116E78EC2F
:106760003DF04E0E0F6E7D0E106E000E116E67EC3A
:106770003DF0000E0601A26F000EA16F000E050194
:10678000C56F000EC46F800EC36F000E4E6E000EFC
:106790004D6E000EC26FA780A7841200A690D00E87
:1067A0000601F56F620EF66F000EF76FA692400EAF
:1067B000F86F770EF96F000EFA6FA694C80EF26F9D
:1067C000690EF36F000EF46F000E0201B46F000E3D
:1067D000B66F000EB86F000EBA6F000EBC6FB00E31
:1067E000BE6F800EBF6F000EC06FA00EC16F010E96
:1067F000C26F200EC36F000EC46F800EC56F000EF7
:10680000C66FCE0E0F6E7C0E106E000E116EBCECBD
:106810003DF0560E0F6E7D0E106E000E116EABEC3D
:106820003DF04C0E0F6E7D0E106E000E116E9AEC48
:106830003DF0000E0601A06F000E9F6F000E0501D7
:10684000C16F000EC06F400EBF6F000E4C6E000E89
:106850004B6E000E5B6EA680A68412003B503C106F
:106860003D103E10D8B437EF34F039EF34F03BEF41
:1068700034F089EF34F0FCC510F5010E0501FC6F12
:10688000A00E5618D8A447EF34F049EF34F053EF78
:1068900034F01004D8B44FEF34F051EF34F053EF2C
:1068A00034F089EF34F010C556F5020E5618D8A40E
:1068B0005CEF34F05EEF34F064EF34F0000EB86F4C
:1068C000000EB76F89EF34F0050E5618D8A46BEFA1
:1068D00034F06DEF34F07EEF34F0020E5A18D8A485
:1068E00074EF34F076EF34F07AEF34F0010EE66FA7
:1068F00089EF34F0000EE66F89EF34F0040E56187D
:10690000D8A485EF34F087EF34F089EF34F056ECFB
:106910003DF012000201D8AD90EF34F092EF34F068
:10692000B4EF34F04E50020D400EF324D96E060E33
:10693000F420DA6E0601DF80050183518411851190
:10694000D8B4A5EF34F0A7EF34F0B4EF34F002D8A8
:10695000B4EF34F00500FA6E8351FD6E8451FE6E83
:106960008551FF6EFA5012000201D8A7BAEF34F039
:10697000BCEF34F0DEEF34F04E50020D400EF32445
:10698000D96E060EF420DA6E0601DF820501895108
:106990008A118B11D8B4CFEF34F0D1EF34F0DEEFA1
:1069A00034F002D8DEEF34F00500FA6E8951FD6E46
:1069B0008A51FE6E8B51FF6EFA5012000201D8937D
:1069C000D895D89BD89D12000201C5ADEAEF34F0EE
:1069D000ECEF34F00EEF35F04C50020D000EF324C6
:1069E000D96E060EF420DA6E0601DF8005017151C2
:1069F00072117311D8B4FFEF34F001EF35F00EEFE0
:106A000035F002D80EEF35F00500FA6E7151FD6ECB
:106A10007251FE6E7351FF6EFA5012000201C5A74B
:106A200014EF35F016EF35F038EF35F04C50020D1D
:106A3000000EF324D96E060EF420DA6E0601DF8212
:106A40000501775178117911D8B429EF35F02BEF82
:106A500035F038EF35F002D838EF35F00500FA6E32
:106A60007751FD6E7851FE6E7951FF6EFA5012002B
:106A70000201C593C595C59BC59D1200000E236EEE
:106A8000000E246E000E256E000E266E1F50201084
:106A900021102210D8B44FEF35F051EF35F087EFC9
:106AA00035F0010E276E5BEF35F0D8901F3620369B
:106AB00021362236272A22AE60EF35F062EF35F01C
:106AC00055EF35F0D89023362436253626361F501C
:106AD0001B5C20501C5821501D5822501E58D8A015
:106AE00074EF35F076EF35F07FEF35F01F501B5E19
:106AF00020501C5A21501D5A22501E5A2380D890D3
:106B00002232213220321F32272E62EF35F023C588
:106B10001BF524C51CF525C51DF526C51EF512005F
:106B2000000E286E000E276E000E05019E6F000EEF
:106B30009F6F010EA06F9EC50FF59FC510F5A0C5F4
:106B400011F520EC36F0246E2450296E2A6A010ECD
:106B500005019E250F6E000E9F21106E000EA021D4
:106B6000116E20EC36F0246E2450266E256A2550D6
:106B7000291226502A12292806E12A28D8A4C3EF70
:106B800035F0C5EF35F0C7EF35F0D4EF35F029C556
:106B900027F52AC528F57A0E05019E27010E9F23A9
:106BA000000EA0239BEF35F027C522F528C523F55D
:106BB0001200000E266E000E256E360E206E150E8B
:106BC0001F6EADEC3CF0000E106E1E0E0F6E6DECE5
:106BD0003CF09FEC38F0E806D8A4F1EF35F0F3EF85
:106BE00035F0FEEF35F0F1C525F5266A2550266E05
:106BF000256A0501F251251204EF36F0000E106EE1
:106C00000A0E0F6E6DEC3CF03F0E206EF90E1F6EFB
:106C1000ADEC3CF0800E265CD8B011EF36F013EFEF
:106C200036F019EF36F0000E246E000E236E1FEFC3
:106C300036F0251E261E25C523F526C524F512008F
:106C4000F7C412F5136A146A156A14C515F513C54D
:106C500014F512C513F5126AF8C416F5176A186A06
:106C6000196A17C519F516C518F5176A166A12506C
:106C700016101A6E135017101B6E145018101C6E3D
:106C8000155019101D6EF6501A101E6E1B501F6EF7
:106C90001C50206E1D50216E11C5F8F40FC512F561
:106CA00010C513F511C514F513C512F514C513F568
:106CB000146A1250F76E0FC5F6F4080020C5F8F4F8
:106CC0001FC5F7F41EC5F6F4F55012000F6E0F0441
:106CD000D8A46DEF36F06FEF36F074EF36F0380E63
:106CE0000501C76FA8EF36F0030E0F18D8A47BEF8D
:106CF00036F07DEF36F086EF36F0210E0501C96FD4
:106D0000420EC76F430EC66FA8EF36F0040E0F1881
:106D1000D8A48DEF36F08FEF36F098EF36F0000EF6
:106D20000501C96F000EC76F000EC66FA8EF36F0E1
:106D3000050E0F18D8A49FEF36F0A1EF36F0AAEF9A
:106D400036F0640E0501C96FC80EC76FC90EC66F55
:106D50000FC5C8F51200C69404010295BE84CB800D
:106D60002981C3800893C7920A93BF920895C7945C
:106D70000A95BF940897C7960A97BF962899CB980B
:106D80002A99C398289BCB9A2A9BC39A289DCB9C6F
:106D90002A9DC39C289FCB9E2A9FC39E0091C6908C
:106DA0000291BE900093C6920293BE921095C89431
:106DB0001295C0841899C9881999C188189BC98AE5
:106DC000198BC18AC88611971087C096C88C119DEF
:106DD000108DC09CC88E119F108FC09E120018C5C8
:106DE0001AF519C51BF5000E1D6E000E1C6EAA0EBD
:106DF000106E550E0F6E79EC3EF09EC50FF59FC5D7
:106E000010F5A0C511F51AC5D9F41BC5DAF4DEC416
:106E100012F5DDC413F566EC38F0E806D8A413EFDC
:106E200037F015EF37F017EF37F015EF37F07EEC4E
:106E30003EF0020E05019E27000E9F23000EA023A8
:106E4000020E1A26000E1B221C4A1D2A1D5009E1A3
:106E5000BD0E1C5CD8A02FEF37F031EF37F0F7EF05
:106E600036F01200176E000E166E0501C951C925C5
:106E7000156E83EC3CF0155001090DEC3AF011EC65
:106E800039F00009D8B447EF37F049EF37F04DEF4C
:106E900037F0000E176E68EF37F068EF37F03BEC15
:106EA0003AF013C5D9F414C5DAF4DF6E134A142A84
:106EB0001704D8A45EEF37F060EF37F064EF37F0D7
:106EC00026EC3CF066EF37F03EEC3CF0162A170655
:106ED0001750D8A46EEF37F070EF37F04FEF37F060
:106EE00045EC3DF0165012001B6E800E1C6E080E15
:106EF0001D6E1CC5D9F41DC5DAF41BC5DFF41C4A90
:106F00001D2A000E1E6E94EF37F018C5D9F419C56E
:106F1000DAF41CC5E1F41DC5E2F4DFC4E7F4184A55
:106F2000192A1C4A1D2A1E2A1A501E5CD8A09BEF43
:106F300037F09DEF37F085EF37F01A2A800E136E89
:106F4000080E146E1A50B2EC37F01E6E1A501E184E
:106F5000D8B4ADEF37F0B0EF37F0010EB1EF37F046
:106F6000000E1200156E0501C951C925166E83EC7D
:106F70003CF016500DEC3AF011EC39F00009D8B4A1
:106F8000C4EF37F0C6EF37F0C9EF37F0000EEFEF80
:106F900037F0000E176EE3EF37F013C5D9F414C5C0
:106FA000DAF4DF500DEC3AF0134A142A11EC39F000
:106FB0000009D8B4DEEF37F0E0EF37F0E2EF37F05A
:106FC000ECEF37F0172A1550175CD8A0EAEF37F02E
:106FD000ECEF37F0CDEF37F045EC3DF017501200F5
:106FE000000E296E020E5860F8EF37F0FAEF37F016
:106FF000FDEF37F0000E2BEF38F0D9EC35F023C55C
:1070000027F524C528F5285009E13D0E275CD8A0B6
:107010000CEF38F00EEF38F019EF38F0010E0501E3
:10702000E76F010E296E27C560F528C561F5626B13
:10703000636B0501E651D8B420EF38F022EF38F049
:107040002AEF38F0000EE66F020EF06F020EE76FC7
:10705000010E296E29501200000E146E000E136EE0
:1070600011501210D8B437EF38F039EF38F061EF23
:1070700038F0010E156E41EF38F0D8901136123607
:10708000152A12AE46EF38F048EF38F03DEF38F0F1
:10709000D8901336143611500F5C12501058D8A0E7
:1070A00054EF38F056EF38F05BEF38F011500F5EC8
:1070B0001250105A1380D89012321132152E48EF08
:1070C00038F013C50FF514C510F51200000ED6BE2A
:1070D000010E176E11C545F00FC514F510C515F555
:1070E00011C516F515C514F516C515F5166A145013
:1070F0000001446F0FC543F01350476F12C546F0AF
:107100004151F80B0309416FD69E000150C542F072
:107110004F50426F408117B002D0D69E01D0D68E1C
:10712000F80E0001411741AF98EF38F09AEF38F0B0
:107130009DEF38F0010E9EEF38F0000E1200000EA9
:107140000501F36FF3C5F2F5F2C5F1F5030E66EC38
:1071500036F0F10E186E050E196E030E1A6EC1ECA4
:107160003CF01D6E030ECDEC3DF01D04D8A4BBEF2A
:1071700038F0BDEF38F0C8EF38F0F10E0F6E050EA5
:10718000106E020E116EDDEC39F01C6ECBEF38F094
:10719000000ED7EF38F01C500501F319D8B4D3EF27
:1071A00038F0D6EF38F0010ED7EF38F0000E1200AD
:1071B000000E0301D96F000EDA6F000EDB6F000EB8
:1071C000DC6F000EDF6F000EE06F000EE56F000E4B
:1071D000E76F3E0EEC6F080EEE6F000EEF6F000EC5
:1071E000F06F000EF16F000EF26F000EF46F100ED4
:1071F000F56F000EF66F000EF76F030EF86F000EBE
:10720000F96F030EFA6F840EF36FAF945C0E0F6E7E
:107210007D0E106E000E116E48EC3EF09F84B09013
:107220001200000E116E000E106EA1EC3EF0C19225
:107230009FEC3EF00A0E83EC3EF0C1820A0E83EC16
:107240003EF0000ED1B0010E126E104A112A410E0E
:10725000105C1F0E1158D8A030EF39F032EF39F022
:1072600034EF39F03CEF39F01250D8A43AEF39F04E
:107270003CEF39F021EF39F00A0E83EC3EF0C19279
:107280000A0E83EC3EF09DEC3EF012501200000E10
:10729000176E000E186E000E196E000E1A6E0FA0FB
:1072A00054EF39F056EF39F05EEF39F013501726EE
:1072B000145018221550192216501A22D89013363D
:1072C000143615361636D8901232113210320F326B
:1072D0000F50101011101210D8A471EF39F073EF85
:1072E00039F04FEF39F017C50FF518C510F519C56E
:1072F00011F51AC512F512009FEC38F0E806D8A473
:1073000084EF39F086EF39F0ACEF39F0F1C524F5B0
:10731000256A2450256E246A0501F2512412800E3C
:10732000255CD8B096EF39F098EF39F0A0EF39F03E
:107330001EC5D9F41FC5DAF4DE6ADD6AACEF39F098
:10734000241C226E251C236E1EC5D9F41FC5DAF439
:1073500022C5DEF423C5DDF412005B50D8B4B3EFD0
:1073600039F0B5EF39F0DCEF39F00501CF51D8A491
:10737000BCEF39F0BEEF39F0CCEF39F0010ECF6F32
:1073800020EE52F05D50D9265E50DA22320EDE6ECB
:10739000000EDD6EDCEF39F0000ECF6F5C0E0F6E6D
:1073A000120E106EA30E116E070E126E000E146EEA
:1073B000000E136E8FEC3AF01200136802EF3AF0F1
:1073C0000FC5D9F410C5DAF4DF50131A0F4A102A8A
:1073D000000E126E13AEEFEF39F0F1EF39F0F7EF68
:1073E00039F013501324310A136EF9EF39F0D890A5
:1073F0001336122A070E126400EF3AF002EF3AF049
:10740000EAEF39F011061128D8A409EF3AF00BEF92
:107410003AF0E0EF39F013501200106E9DEC3EF0A0
:10742000C192000E116E10AE18EF3AF01AEF3AF05A
:107430001DEF3AF0C1801EEF3AF0C190050E83ECCB
:107440003EF0C1820A0E83EC3EF0C1920A0E83EC3C
:107450003EF0D8901036112A070E116432EF3AF040
:1074600034EF3AF013EF3AF00A0E83EC3EF00A0ED6
:1074700083EC3EF01200000E106EC1929FEC3EF0C5
:107480000A0E83EC3EF0000E116EC1820A0E83ECF0
:107490003EF0D8901036D1A050EF3AF052EF3AF0CB
:1074A00053EF3AF010800A0E83EC3EF0C1920A0EC0
:1074B00083EC3EF0112A070E116461EF3AF063EF9E
:1074C0003AF045EF3AF010501200D68A0301658970
:1074D0006B816A816385629F6B936B956A936A95F2
:1074E000AF90D680000E0F6E000E106E000E116E63
:1074F00041EC3EF0B490D682000E0F6E000E106E7E
:10750000000E116E3AEC3EF0B890D684000E0F6E6D
:10751000000E106E000E116E33EC3EF0120011C51D
:1075200017F512C518F50FC515F510C516F5A9EF15
:107530003AF017C5D9F418C5DAF4DF50196E174AB6
:10754000182A15C5D9F416C5DAF419C5DFF4154A99
:10755000162A1306D8A01406132806E11428D8A466
:10756000B4EF3AF0B6EF3AF099EF3AF012000F6E3E
:107570000F04D8A4BEEF3AF0C0EF3AF0CCEF3AF0E7
:10758000BE9ABE96BE98C290C292C294C09AC0984B
:10759000C196C194DEEF3AF00F50D8A4D2EF3AF082
:1075A000D4EF3AF0DEEF3AF0BE8ABE86BE88C280E3
:1075B000C282C284C08AC088C186C1841200000E03
:1075C00003011F6F000E206F020E216FC10E1D6F91
:1075D0007F0E1C6F1C511DC312F5136A12C513F5E3
:1075E000126A12100501A16F1350A26F5A0E0F6E8E
:1075F0007D0E106E000E116E2CEC3EF0B198A1883D
:10760000010E03011E6F1200B198A1C501F5A2C5BC
:1076100002F598EC3CF00601EF51F011F111D8B4ED
:1076200014EF3BF016EF3BF025EF3BF002D823EFD1
:107630003BF00500FA6EEF51FD6EF051FE6EF15118
:10764000FF6EFA501200C3EC25F01200BE86C696FB
:1076500004010287BE88C6980289BE8AC69A028B38
:10766000C280CA902281C282CA922283C284CA94F2
:107670002285C08AC89A128BC088C8981289C18690
:10768000C9961A87C184C9941A85120010BE53EF97
:107690003BF0105006E10F04D8B051EF3BF053EF30
:1076A0003BF061EF3BF00FC511F510C512F5111E4F
:1076B000121E114A122A11C50FF512C510F565EFF9
:1076C0003BF00FC50FF510C510F5120006EC3EF0AB
:1076D00071EC30F0D8EC38F061EC3EF0D5EC3CF0D9
:1076E0008DEC3EF033EC3DF097EC3EF021EC3DF0BC
:1076F000DFEC3AF0CEEC33F06EEC33F05BEC3EF0C6
:1077000065EC3AF01200800E0501C3618AEF3BF090
:107710008CEF3BF09EEF3BF0000EC425D96EDA6A89
:10772000080EDA22DF500201C96F0501C4297F0B60
:107730000B6E0BC5C4F5C32B9FEF3BF0A792120055
:10774000400E0501BF61A7EF3BF0A9EF3BF0BBEF97
:107750003BF0000EC025D96EDA6A070EDA22DF5040
:107760000201B66F0501C0293F0B0B6E0BC5C0F5BA
:10777000BF2BBCEF3BF0A69212003F0E206EF90E1D
:107780001F6EADEC3CF0000E106E020E0F6E6DEC35
:107790003CF0040E66EC36F0000E186E000E196E0A
:1077A000000E1A6E060E74EC37F0040ECDEC3DF0B0
:1077B0001200106E080E116E000E126ED89010346A
:1077C0001234126ED89010360F50125CD8A0EBEF26
:1077D0003BF0EDEF3BF0EFEF3BF00F50125E112E60
:1077E000DEEF3BF012501200AF940601FB51FC118A
:1077F000FD11D8B4FEEF3BF000EF3CF00DEF3CF094
:1078000002D80DEF3CF00500FA6EFB51FD6EFC5105
:10781000FE6EFD51FF6EFA5012001200040E66EC6F
:1078200036F0000E186E000E196E000E1A6E060E5F
:1078300074EC37F01F6E040ECDEC3DF0000E106EB0
:10784000190E0F6E6DEC3CF01F5012009DEC3EF0D7
:10785000A1EC3EF00A0E83EC3EF0C1920A0E83ECDE
:107860003EF0C1800A0E83EC3EF0C1820A0E83EC2A
:107870003EF0C1920A0E83EC3EF012009DEC3EF009
:10788000A1EC3EF00A0E83EC3EF0C1920A0E83ECAE
:107890003EF0C1900A0E83EC3EF0C1820A0E83ECEA
:1078A0003EF0C1920A0E83EC3EF01200136E13C537
:1078B000ECF30301F39DF381F3B161EF3CF063EF6F
:1078C0003CF05CEF3CF0EB51126E116AEA5111246E
:1078D0000F6E000E1220106E12000F50126E116A01
:1078E00076EF3CF000F000F000F000F01106D8A0B8
:1078F000120611501210D8A480EF3CF082EF3CF039
:1079000072EF3CF012009DEC3EF0A1EC3EF0C18025
:107910000A0E83EC3EF0C1820A0E83EC3EF0C19069
:107920000A0E83EC3EF0C1920A0E83EC3EF0120088
:1079300003011EA59EEF3CF0A0EF3CF0A8EF3CF049
:107940001E9102501D6F01C51CF31E81ACEF3CF06F
:1079500002501D6F01C51CF31200030E66EC36F0D9
:107960001FC522F5220E186E050E196E010E1A6E35
:10797000205074EC37F0216E030ECDEC3DF0215019
:10798000120018C513F519C514F51A5032EC37F06A
:107990001B6E1A501B18D8B4D0EF3CF0D3EF3CF05C
:1079A000010ED4EF3CF0000E1200000E0301BC6F7C
:1079B000030EC16F010EBE6F010EBF6F140EC26FBA
:1079C000000EC36F030EC46F0C0EBD6F800EC06F30
:1079D0001200860E05019E5DFE0E9F59010EA059F4
:1079E000D8A0F5EF3CF0F7EF3CF0FAEF3CF0010ED9
:1079F000FBEF3CF0000E12000F501102F3C413F520
:107A0000F4C414F50F501202F35014261050110252
:107A1000F350142613C50FF514C510F5120066ECCB
:107A20003BF0D68EBE8494EC3EF0ABEC36F0CFEC5F
:107A30002CF091EC3EF0E8EC27F01BEF3DF00EEF60
:107A400000F0080E0001606F7C0E616F470E636FDF
:107A5000080E646F030E656FC70E666FFC0E676FCE
:107A60003C0E686F1200060E0401476F000E426F55
:107A7000000E416F000E406F000E456F5D0E446FAB
:107A8000B20E436F100E466F12009DEC3EF0A1EC5B
:107A90003EF0C1900A0E83EC3EF0C1820A0E83ECE8
:107AA0003EF0C1800A0E83EC3EF012005750D8B46D
:107AB0005CEF3DF05EEF3DF060EF3DF066EF3DF0D6
:107AC000000EB7EC3AF0BE9464EF3DF012000F5098
:107AD00010101110D8B46FEF3DF071EF3DF077EF5B
:107AE0003DF00FC583F510C584F511C585F512006D
:107AF0000F5010101110D8B480EF3DF082EF3DF020
:107B000088EF3DF00FC586F510C587F511C588F5DE
:107B100012000F5010101110D8B491EF3DF093EFF8
:107B20003DF099EF3DF00FC589F510C58AF511C5F7
:107B30008BF512000F5010101110D8B4A2EF3DF0C9
:107B4000A4EF3DF0AAEF3DF00FC571F510C572F539
:107B500011C573F512000F5010101110D8B4B3EF07
:107B60003DF0B5EF3DF0BBEF3DF00FC574F510C52E
:107B700075F511C576F512000F5010101110D8B41C
:107B8000C4EF3DF0C6EF3DF0CCEF3DF00FC577F50B
:107B900010C578F511C579F512000F6E0501C851B1
:107BA0000F18D8A4D6EF3DF0D8EF3DF0DBEF3DF055
:107BB000C969C769C66912000EEC3CF0366E3650D2
:107BC000D8B4E5EF3DF0E7EF3DF0E9EF3DF04CECE8
:107BD00032F01200000ED6BE010E0F6ED69E0001CE
:107BE000785104000FB002D0D69E01D0D68E12007C
:107BF000106EC0C30FF53F0E0301C01710C5BEF3D2
:107C000010C5BFF30F504009C06F1200700E000185
:107C1000AD6F000EAF6F000EB36F050EB16F000EAB
:107C2000B06F000EAC6F1200640E0601C56F000E3F
:107C3000C66F000EC76F000EC86F120011C545F465
:107C400010C544F40FC543F41200360E206E150E15
:107C50001F6EADEC3CF012000FC5EFF610C5F0F64C
:107C600011C5F1F612000FC58CF510C58DF511C5C3
:107C70008EF512000FC58FF510C590F511C591F561
:107C800012000FC592F510C593F511C594F51200B9
:107C90000FC5FBF610C5FCF611C5FDF61200800EEF
:107CA0000301C06F0401469F1200840E0301C06FE0
:107CB0000401468F1200160E0001786F070E796FCF
:107CC0001200060E00013A6F900E396F1200D7AE07
:107CD0006CEF3EF0A9EF3EF01200D7AE72EF3EF02F
:107CE000AAEF3EF01200800E0301C06F0401469F10
:107CF000120010504F6E0FC550F51200000E4F6E5F
:107D0000000E506E12000F6E0F2E84EF3EF0120028
:097D10006400F4011401010101F9
:107D1A00C20E0301D76F120000017881120003011D
:107D2A001E8112009AEC3EF012000001419F1200DF
:107D3A00C9901200C9801200C99212000009AB064C
:107D4A001200120012001200120012001200120099
:047D5A001200120001
:020000040020DA
:10000000FF0FFF0FFF0FFF0FFF0FFF0FFF0FFF0F80
:10001000FF0FFF0FFF0FFF0FFF0FFF0FFF0FFF0F70
:10002000FF0FFF0FFF0FFF0FFF0FFF0FFF0FFF0F60
:10003000FF0FFF0FFF0FFF0FFF0FFF0FFF0FFF0F50
:020000040030CA
:0A000000FAFEF7FFBFC7FFFFFFFF86
:00000001FF
